{
  "contractName": "AuctionStore",
  "abi": [
    {
      "inputs": [
        {
          "internalType": "address",
          "name": "_productContractAddress",
          "type": "address"
        },
        {
          "internalType": "address",
          "name": "_farmerContractAddress",
          "type": "address"
        }
      ],
      "stateMutability": "nonpayable",
      "type": "constructor"
    },
    {
      "anonymous": false,
      "inputs": [
        {
          "indexed": true,
          "internalType": "uint256",
          "name": "productId",
          "type": "uint256"
        },
        {
          "indexed": true,
          "internalType": "address",
          "name": "buyer",
          "type": "address"
        },
        {
          "indexed": false,
          "internalType": "uint256",
          "name": "amount",
          "type": "uint256"
        }
      ],
      "name": "ProductPurchased",
      "type": "event"
    },
    {
      "inputs": [
        {
          "internalType": "uint256",
          "name": "",
          "type": "uint256"
        }
      ],
      "name": "aucproducts",
      "outputs": [
        {
          "internalType": "uint256",
          "name": "aucproductId",
          "type": "uint256"
        },
        {
          "internalType": "string",
          "name": "name",
          "type": "string"
        },
        {
          "internalType": "string",
          "name": "description",
          "type": "string"
        },
        {
          "internalType": "string",
          "name": "category",
          "type": "string"
        },
        {
          "internalType": "string",
          "name": "location",
          "type": "string"
        },
        {
          "internalType": "address",
          "name": "productOwner",
          "type": "address"
        },
        {
          "internalType": "uint256",
          "name": "price",
          "type": "uint256"
        },
        {
          "internalType": "address",
          "name": "buyer",
          "type": "address"
        },
        {
          "internalType": "bool",
          "name": "isSold",
          "type": "bool"
        }
      ],
      "stateMutability": "view",
      "type": "function",
      "constant": true
    },
    {
      "inputs": [],
      "name": "farmerContract",
      "outputs": [
        {
          "internalType": "contract FarmerContract",
          "name": "",
          "type": "address"
        }
      ],
      "stateMutability": "view",
      "type": "function",
      "constant": true
    },
    {
      "inputs": [
        {
          "internalType": "uint256",
          "name": "",
          "type": "uint256"
        }
      ],
      "name": "locations",
      "outputs": [
        {
          "internalType": "string",
          "name": "",
          "type": "string"
        }
      ],
      "stateMutability": "view",
      "type": "function",
      "constant": true
    },
    {
      "inputs": [],
      "name": "owner",
      "outputs": [
        {
          "internalType": "address",
          "name": "",
          "type": "address"
        }
      ],
      "stateMutability": "view",
      "type": "function",
      "constant": true
    },
    {
      "inputs": [],
      "name": "productContract",
      "outputs": [
        {
          "internalType": "contract ProductContract",
          "name": "",
          "type": "address"
        }
      ],
      "stateMutability": "view",
      "type": "function",
      "constant": true
    },
    {
      "inputs": [
        {
          "internalType": "string",
          "name": "_newLocation",
          "type": "string"
        }
      ],
      "name": "addLocation",
      "outputs": [],
      "stateMutability": "nonpayable",
      "type": "function"
    },
    {
      "inputs": [],
      "name": "getLocationList",
      "outputs": [
        {
          "internalType": "string[]",
          "name": "",
          "type": "string[]"
        }
      ],
      "stateMutability": "view",
      "type": "function",
      "constant": true
    },
    {
      "inputs": [
        {
          "internalType": "uint256",
          "name": "_productId",
          "type": "uint256"
        },
        {
          "internalType": "string",
          "name": "_name",
          "type": "string"
        },
        {
          "internalType": "string",
          "name": "_description",
          "type": "string"
        },
        {
          "internalType": "string",
          "name": "_category",
          "type": "string"
        },
        {
          "internalType": "string",
          "name": "_location",
          "type": "string"
        }
      ],
      "name": "createProduct",
      "outputs": [],
      "stateMutability": "nonpayable",
      "type": "function"
    },
    {
      "inputs": [
        {
          "internalType": "uint256",
          "name": "aucproductId",
          "type": "uint256"
        }
      ],
      "name": "buyProduct",
      "outputs": [],
      "stateMutability": "payable",
      "type": "function",
      "payable": true
    },
    {
      "inputs": [],
      "name": "withdraw",
      "outputs": [],
      "stateMutability": "nonpayable",
      "type": "function"
    },
    {
      "inputs": [],
      "name": "getNumberOfProducts",
      "outputs": [
        {
          "internalType": "uint256",
          "name": "",
          "type": "uint256"
        }
      ],
      "stateMutability": "view",
      "type": "function",
      "constant": true
    },
    {
      "inputs": [],
      "name": "listAllProducts",
      "outputs": [
        {
          "components": [
            {
              "internalType": "uint256",
              "name": "aucproductId",
              "type": "uint256"
            },
            {
              "internalType": "string",
              "name": "name",
              "type": "string"
            },
            {
              "internalType": "string",
              "name": "description",
              "type": "string"
            },
            {
              "internalType": "string",
              "name": "category",
              "type": "string"
            },
            {
              "internalType": "string",
              "name": "location",
              "type": "string"
            },
            {
              "internalType": "address",
              "name": "productOwner",
              "type": "address"
            },
            {
              "internalType": "uint256",
              "name": "price",
              "type": "uint256"
            },
            {
              "internalType": "address",
              "name": "buyer",
              "type": "address"
            },
            {
              "internalType": "bool",
              "name": "isSold",
              "type": "bool"
            }
          ],
          "internalType": "struct AuctionStore.AuctionProduct[]",
          "name": "",
          "type": "tuple[]"
        }
      ],
      "stateMutability": "view",
      "type": "function",
      "constant": true
    }
  ],
  "bytecode": "0x60806040523480156200001157600080fd5b5060405162002a9b38038062002a9b833981810160405281019062000037919062000173565b33600260006101000a81548173ffffffffffffffffffffffffffffffffffffffff021916908373ffffffffffffffffffffffffffffffffffffffff160217905550816000806101000a81548173ffffffffffffffffffffffffffffffffffffffff021916908373ffffffffffffffffffffffffffffffffffffffff16021790555080600160006101000a81548173ffffffffffffffffffffffffffffffffffffffff021916908373ffffffffffffffffffffffffffffffffffffffff16021790555060006003819055505050620001ba565b600080fd5b600073ffffffffffffffffffffffffffffffffffffffff82169050919050565b60006200013b826200010e565b9050919050565b6200014d816200012e565b81146200015957600080fd5b50565b6000815190506200016d8162000142565b92915050565b600080604083850312156200018d576200018c62000109565b5b60006200019d858286016200015c565b9250506020620001b0858286016200015c565b9150509250929050565b6128d180620001ca6000396000f3fe6080604052600436106100a75760003560e01c80635fddb088116100645780635fddb088146101b25780638642269e146101db5780638da5cb5b146101f75780639954ff6f146102225780639c0b7d461461024d578063b9e0db3514610278576100a7565b806319894efc146100ac57806326085b78146100f15780632a28d4df1461011a57806338b43d93146101455780633ccfd60b146101705780633ffd81fb14610187575b600080fd5b3480156100b857600080fd5b506100d360048036038101906100ce91906115be565b6102b5565b6040516100e8999897969594939291906116e6565b60405180910390f35b3480156100fd57600080fd5b50610118600480360381019061011391906118c4565b610580565b005b34801561012657600080fd5b5061012f610aab565b60405161013c9190611a0e565b60405180910390f35b34801561015157600080fd5b5061015a610acf565b6040516101679190611c3c565b60405180910390f35b34801561017c57600080fd5b50610185610e52565b005b34801561019357600080fd5b5061019c610f96565b6040516101a99190611c5e565b60405180910390f35b3480156101be57600080fd5b506101d960048036038101906101d49190611c79565b610fa3565b005b6101f560048036038101906101f091906115be565b6111eb565b005b34801561020357600080fd5b5061020c6113a3565b6040516102199190611cc2565b60405180910390f35b34801561022e57600080fd5b506102376113c9565b6040516102449190611d9f565b60405180910390f35b34801561025957600080fd5b506102626114a2565b60405161026f9190611de2565b60405180910390f35b34801561028457600080fd5b5061029f600480360381019061029a91906115be565b6114c8565b6040516102ac9190611dfd565b60405180910390f35b600481815481106102c557600080fd5b90600052602060002090600802016000915090508060000154908060010180546102ee90611e4e565b80601f016020809104026020016040519081016040528092919081815260200182805461031a90611e4e565b80156103675780601f1061033c57610100808354040283529160200191610367565b820191906000526020600020905b81548152906001019060200180831161034a57829003601f168201915b50505050509080600201805461037c90611e4e565b80601f01602080910402602001604051908101604052809291908181526020018280546103a890611e4e565b80156103f55780601f106103ca576101008083540402835291602001916103f5565b820191906000526020600020905b8154815290600101906020018083116103d857829003601f168201915b50505050509080600301805461040a90611e4e565b80601f016020809104026020016040519081016040528092919081815260200182805461043690611e4e565b80156104835780601f1061045857610100808354040283529160200191610483565b820191906000526020600020905b81548152906001019060200180831161046657829003601f168201915b50505050509080600401805461049890611e4e565b80601f01602080910402602001604051908101604052809291908181526020018280546104c490611e4e565b80156105115780601f106104e657610100808354040283529160200191610511565b820191906000526020600020905b8154815290600101906020018083116104f457829003601f168201915b5050505050908060050160009054906101000a900473ffffffffffffffffffffffffffffffffffffffff16908060060154908060070160009054906101000a900473ffffffffffffffffffffffffffffffffffffffff16908060070160149054906101000a900460ff16905089565b600160009054906101000a900473ffffffffffffffffffffffffffffffffffffffff1673ffffffffffffffffffffffffffffffffffffffff166391d14854600160009054906101000a900473ffffffffffffffffffffffffffffffffffffffff1673ffffffffffffffffffffffffffffffffffffffff1663f39439706040518163ffffffff1660e01b8152600401602060405180830381865afa15801561062b573d6000803e3d6000fd5b505050506040513d601f19601f8201168201806040525081019061064f9190611eb5565b336040518363ffffffff1660e01b815260040161066d929190611ef1565b602060405180830381865afa15801561068a573d6000803e3d6000fd5b505050506040513d601f19601f820116820180604052508101906106ae9190611f46565b6106ed576040517f08c379a00000000000000000000000000000000000000000000000000000000081526004016106e490611fbf565b60405180910390fd5b60008060009054906101000a900473ffffffffffffffffffffffffffffffffffffffff1673ffffffffffffffffffffffffffffffffffffffff16633b88c4ff876040518263ffffffff1660e01b81526004016107499190611c5e565b600060405180830381865afa158015610766573d6000803e3d6000fd5b505050506040513d6000823e3d601f19601f8201168201806040525081019061078f919061211e565b6000015151036107d4576040517f08c379a00000000000000000000000000000000000000000000000000000000081526004016107cb906121d9565b60405180910390fd5b6005816040516107e49190612235565b908152602001604051809103902060009054906101000a900460ff1661083f576040517f08c379a000000000000000000000000000000000000000000000000000000000815260040161083690612298565b60405180910390fd5b600060405180610120016040528060048054905081526020018681526020018581526020018481526020018381526020013373ffffffffffffffffffffffffffffffffffffffff16815260200160008054906101000a900473ffffffffffffffffffffffffffffffffffffffff1673ffffffffffffffffffffffffffffffffffffffff16633b88c4ff896040518263ffffffff1660e01b81526004016108e59190611c5e565b600060405180830381865afa158015610902573d6000803e3d6000fd5b505050506040513d6000823e3d601f19601f8201168201806040525081019061092b919061211e565b602001518152602001600073ffffffffffffffffffffffffffffffffffffffff16815260200160001515815250905060048190806001815401808255809150506001900390600052602060002090600802016000909190919091506000820151816000015560208201518160010190816109a5919061245a565b5060408201518160020190816109bb919061245a565b5060608201518160030190816109d1919061245a565b5060808201518160040190816109e7919061245a565b5060a08201518160050160006101000a81548173ffffffffffffffffffffffffffffffffffffffff021916908373ffffffffffffffffffffffffffffffffffffffff16021790555060c0820151816006015560e08201518160070160006101000a81548173ffffffffffffffffffffffffffffffffffffffff021916908373ffffffffffffffffffffffffffffffffffffffff1602179055506101008201518160070160146101000a81548160ff0219169083151502179055505050505050505050565b60008054906101000a900473ffffffffffffffffffffffffffffffffffffffff1681565b60606004805480602002602001604051908101604052809291908181526020016000905b82821015610e4957838290600052602060002090600802016040518061012001604052908160008201548152602001600182018054610b3190611e4e565b80601f0160208091040260200160405190810160405280929190818152602001828054610b5d90611e4e565b8015610baa5780601f10610b7f57610100808354040283529160200191610baa565b820191906000526020600020905b815481529060010190602001808311610b8d57829003601f168201915b50505050508152602001600282018054610bc390611e4e565b80601f0160208091040260200160405190810160405280929190818152602001828054610bef90611e4e565b8015610c3c5780601f10610c1157610100808354040283529160200191610c3c565b820191906000526020600020905b815481529060010190602001808311610c1f57829003601f168201915b50505050508152602001600382018054610c5590611e4e565b80601f0160208091040260200160405190810160405280929190818152602001828054610c8190611e4e565b8015610cce5780601f10610ca357610100808354040283529160200191610cce565b820191906000526020600020905b815481529060010190602001808311610cb157829003601f168201915b50505050508152602001600482018054610ce790611e4e565b80601f0160208091040260200160405190810160405280929190818152602001828054610d1390611e4e565b8015610d605780601f10610d3557610100808354040283529160200191610d60565b820191906000526020600020905b815481529060010190602001808311610d4357829003601f168201915b505050505081526020016005820160009054906101000a900473ffffffffffffffffffffffffffffffffffffffff1673ffffffffffffffffffffffffffffffffffffffff1673ffffffffffffffffffffffffffffffffffffffff168152602001600682015481526020016007820160009054906101000a900473ffffffffffffffffffffffffffffffffffffffff1673ffffffffffffffffffffffffffffffffffffffff1673ffffffffffffffffffffffffffffffffffffffff1681526020016007820160149054906101000a900460ff16151515158152505081526020019060010190610af3565b50505050905090565b600260009054906101000a900473ffffffffffffffffffffffffffffffffffffffff1673ffffffffffffffffffffffffffffffffffffffff163373ffffffffffffffffffffffffffffffffffffffff1614610ee2576040517f08c379a0000000000000000000000000000000000000000000000000000000008152600401610ed99061259e565b60405180910390fd5b600047905060008111610f2a576040517f08c379a0000000000000000000000000000000000000000000000000000000008152600401610f219061260a565b60405180910390fd5b600260009054906101000a900473ffffffffffffffffffffffffffffffffffffffff1673ffffffffffffffffffffffffffffffffffffffff166108fc829081150290604051600060405180830381858888f19350505050158015610f92573d6000803e3d6000fd5b5050565b6000600480549050905090565b600160009054906101000a900473ffffffffffffffffffffffffffffffffffffffff1673ffffffffffffffffffffffffffffffffffffffff166391d14854600160009054906101000a900473ffffffffffffffffffffffffffffffffffffffff1673ffffffffffffffffffffffffffffffffffffffff166375b238fc6040518163ffffffff1660e01b8152600401602060405180830381865afa15801561104e573d6000803e3d6000fd5b505050506040513d601f19601f820116820180604052508101906110729190611eb5565b336040518363ffffffff1660e01b8152600401611090929190611ef1565b602060405180830381865afa1580156110ad573d6000803e3d6000fd5b505050506040513d601f19601f820116820180604052508101906110d19190611f46565b611110576040517f08c379a000000000000000000000000000000000000000000000000000000000815260040161110790612676565b60405180910390fd5b6005816040516111209190612235565b908152602001604051809103902060009054906101000a900460ff161561117c576040517f08c379a0000000000000000000000000000000000000000000000000000000008152600401611173906126e2565b60405180910390fd5b6006819080600181540180825580915050600190039060005260206000200160009091909190915090816111b0919061245a565b5060016005826040516111c39190612235565b908152602001604051809103902060006101000a81548160ff02191690831515021790555050565b6004805490508110611232576040517f08c379a00000000000000000000000000000000000000000000000000000000081526004016112299061274e565b60405180910390fd5b6000600482815481106112485761124761276e565b5b906000526020600020906008020190508060070160149054906101000a900460ff16156112aa576040517f08c379a00000000000000000000000000000000000000000000000000000000081526004016112a1906127e9565b60405180910390fd5b806006015434146112f0576040517f08c379a00000000000000000000000000000000000000000000000000000000081526004016112e79061287b565b60405180910390fd5b60018160070160146101000a81548160ff021916908315150217905550338160070160006101000a81548173ffffffffffffffffffffffffffffffffffffffff021916908373ffffffffffffffffffffffffffffffffffffffff1602179055503373ffffffffffffffffffffffffffffffffffffffff16827fa530f889d7f1bd9a73028e48944ca013ab2c6624a31e3fa26f923f4bb719abd5346040516113979190611c5e565b60405180910390a35050565b600260009054906101000a900473ffffffffffffffffffffffffffffffffffffffff1681565b60606006805480602002602001604051908101604052809291908181526020016000905b8282101561149957838290600052602060002001805461140c90611e4e565b80601f016020809104026020016040519081016040528092919081815260200182805461143890611e4e565b80156114855780601f1061145a57610100808354040283529160200191611485565b820191906000526020600020905b81548152906001019060200180831161146857829003601f168201915b5050505050815260200190600101906113ed565b50505050905090565b600160009054906101000a900473ffffffffffffffffffffffffffffffffffffffff1681565b600681815481106114d857600080fd5b9060005260206000200160009150905080546114f390611e4e565b80601f016020809104026020016040519081016040528092919081815260200182805461151f90611e4e565b801561156c5780601f106115415761010080835404028352916020019161156c565b820191906000526020600020905b81548152906001019060200180831161154f57829003601f168201915b505050505081565b6000604051905090565b600080fd5b600080fd5b6000819050919050565b61159b81611588565b81146115a657600080fd5b50565b6000813590506115b881611592565b92915050565b6000602082840312156115d4576115d361157e565b5b60006115e2848285016115a9565b91505092915050565b6115f481611588565b82525050565b600081519050919050565b600082825260208201905092915050565b60005b83811015611634578082015181840152602081019050611619565b60008484015250505050565b6000601f19601f8301169050919050565b600061165c826115fa565b6116668185611605565b9350611676818560208601611616565b61167f81611640565b840191505092915050565b600073ffffffffffffffffffffffffffffffffffffffff82169050919050565b60006116b58261168a565b9050919050565b6116c5816116aa565b82525050565b60008115159050919050565b6116e0816116cb565b82525050565b6000610120820190506116fc600083018c6115eb565b818103602083015261170e818b611651565b90508181036040830152611722818a611651565b905081810360608301526117368189611651565b9050818103608083015261174a8188611651565b905061175960a08301876116bc565b61176660c08301866115eb565b61177360e08301856116bc565b6117816101008301846116d7565b9a9950505050505050505050565b600080fd5b600080fd5b7f4e487b7100000000000000000000000000000000000000000000000000000000600052604160045260246000fd5b6117d182611640565b810181811067ffffffffffffffff821117156117f0576117ef611799565b5b80604052505050565b6000611803611574565b905061180f82826117c8565b919050565b600067ffffffffffffffff82111561182f5761182e611799565b5b61183882611640565b9050602081019050919050565b82818337600083830152505050565b600061186761186284611814565b6117f9565b90508281526020810184848401111561188357611882611794565b5b61188e848285611845565b509392505050565b600082601f8301126118ab576118aa61178f565b5b81356118bb848260208601611854565b91505092915050565b600080600080600060a086880312156118e0576118df61157e565b5b60006118ee888289016115a9565b955050602086013567ffffffffffffffff81111561190f5761190e611583565b5b61191b88828901611896565b945050604086013567ffffffffffffffff81111561193c5761193b611583565b5b61194888828901611896565b935050606086013567ffffffffffffffff81111561196957611968611583565b5b61197588828901611896565b925050608086013567ffffffffffffffff81111561199657611995611583565b5b6119a288828901611896565b9150509295509295909350565b6000819050919050565b60006119d46119cf6119ca8461168a565b6119af565b61168a565b9050919050565b60006119e6826119b9565b9050919050565b60006119f8826119db565b9050919050565b611a08816119ed565b82525050565b6000602082019050611a2360008301846119ff565b92915050565b600081519050919050565b600082825260208201905092915050565b6000819050602082019050919050565b611a5e81611588565b82525050565b600082825260208201905092915050565b6000611a80826115fa565b611a8a8185611a64565b9350611a9a818560208601611616565b611aa381611640565b840191505092915050565b611ab7816116aa565b82525050565b611ac6816116cb565b82525050565b600061012083016000830151611ae56000860182611a55565b5060208301518482036020860152611afd8282611a75565b91505060408301518482036040860152611b178282611a75565b91505060608301518482036060860152611b318282611a75565b91505060808301518482036080860152611b4b8282611a75565b91505060a0830151611b6060a0860182611aae565b5060c0830151611b7360c0860182611a55565b5060e0830151611b8660e0860182611aae565b50610100830151611b9b610100860182611abd565b508091505092915050565b6000611bb28383611acc565b905092915050565b6000602082019050919050565b6000611bd282611a29565b611bdc8185611a34565b935083602082028501611bee85611a45565b8060005b85811015611c2a5784840389528151611c0b8582611ba6565b9450611c1683611bba565b925060208a01995050600181019050611bf2565b50829750879550505050505092915050565b60006020820190508181036000830152611c568184611bc7565b905092915050565b6000602082019050611c7360008301846115eb565b92915050565b600060208284031215611c8f57611c8e61157e565b5b600082013567ffffffffffffffff811115611cad57611cac611583565b5b611cb984828501611896565b91505092915050565b6000602082019050611cd760008301846116bc565b92915050565b600081519050919050565b600082825260208201905092915050565b6000819050602082019050919050565b6000611d158383611a75565b905092915050565b6000602082019050919050565b6000611d3582611cdd565b611d3f8185611ce8565b935083602082028501611d5185611cf9565b8060005b85811015611d8d5784840389528151611d6e8582611d09565b9450611d7983611d1d565b925060208a01995050600181019050611d55565b50829750879550505050505092915050565b60006020820190508181036000830152611db98184611d2a565b905092915050565b6000611dcc826119db565b9050919050565b611ddc81611dc1565b82525050565b6000602082019050611df76000830184611dd3565b92915050565b60006020820190508181036000830152611e178184611651565b905092915050565b7f4e487b7100000000000000000000000000000000000000000000000000000000600052602260045260246000fd5b60006002820490506001821680611e6657607f821691505b602082108103611e7957611e78611e1f565b5b50919050565b6000819050919050565b611e9281611e7f565b8114611e9d57600080fd5b50565b600081519050611eaf81611e89565b92915050565b600060208284031215611ecb57611eca61157e565b5b6000611ed984828501611ea0565b91505092915050565b611eeb81611e7f565b82525050565b6000604082019050611f066000830185611ee2565b611f1360208301846116bc565b9392505050565b611f23816116cb565b8114611f2e57600080fd5b50565b600081519050611f4081611f1a565b92915050565b600060208284031215611f5c57611f5b61157e565b5b6000611f6a84828501611f31565b91505092915050565b7f4e6f7420617574686f72697a6564000000000000000000000000000000000000600082015250565b6000611fa9600e83611605565b9150611fb482611f73565b602082019050919050565b60006020820190508181036000830152611fd881611f9c565b9050919050565b600080fd5b600080fd5b6000611ffc611ff784611814565b6117f9565b90508281526020810184848401111561201857612017611794565b5b612023848285611616565b509392505050565b600082601f8301126120405761203f61178f565b5b8151612050848260208601611fe9565b91505092915050565b60008151905061206881611592565b92915050565b60006080828403121561208457612083611fdf565b5b61208e60806117f9565b9050600082015167ffffffffffffffff8111156120ae576120ad611fe4565b5b6120ba8482850161202b565b60008301525060206120ce84828501612059565b60208301525060406120e284828501612059565b604083015250606082015167ffffffffffffffff81111561210657612105611fe4565b5b6121128482850161202b565b60608301525092915050565b6000602082840312156121345761213361157e565b5b600082015167ffffffffffffffff81111561215257612151611583565b5b61215e8482850161206e565b91505092915050565b7f4974656d2077697468207468697320494420646f6573206e6f7420657869737460008201527f7300000000000000000000000000000000000000000000000000000000000000602082015250565b60006121c3602183611605565b91506121ce82612167565b604082019050919050565b600060208201905081810360008301526121f2816121b6565b9050919050565b600081905092915050565b600061220f826115fa565b61221981856121f9565b9350612229818560208601611616565b80840191505092915050565b60006122418284612204565b915081905092915050565b7f4c6f636174696f6e20646f6573206e6f74206578697374000000000000000000600082015250565b6000612282601783611605565b915061228d8261224c565b602082019050919050565b600060208201905081810360008301526122b181612275565b9050919050565b60008190508160005260206000209050919050565b60006020601f8301049050919050565b600082821b905092915050565b60006008830261231a7fffffffffffffffffffffffffffffffffffffffffffffffffffffffffffffffff826122dd565b61232486836122dd565b95508019841693508086168417925050509392505050565b600061235761235261234d84611588565b6119af565b611588565b9050919050565b6000819050919050565b6123718361233c565b61238561237d8261235e565b8484546122ea565b825550505050565b600090565b61239a61238d565b6123a5818484612368565b505050565b5b818110156123c9576123be600082612392565b6001810190506123ab565b5050565b601f82111561240e576123df816122b8565b6123e8846122cd565b810160208510156123f7578190505b61240b612403856122cd565b8301826123aa565b50505b505050565b600082821c905092915050565b600061243160001984600802612413565b1980831691505092915050565b600061244a8383612420565b9150826002028217905092915050565b612463826115fa565b67ffffffffffffffff81111561247c5761247b611799565b5b6124868254611e4e565b6124918282856123cd565b600060209050601f8311600181146124c457600084156124b2578287015190505b6124bc858261243e565b865550612524565b601f1984166124d2866122b8565b60005b828110156124fa578489015182556001820191506020850194506020810190506124d5565b868310156125175784890151612513601f891682612420565b8355505b6001600288020188555050505b505050505050565b7f4f6e6c7920746865206f776e65722063616e2077697468647261772066756e6460008201527f7300000000000000000000000000000000000000000000000000000000000000602082015250565b6000612588602183611605565b91506125938261252c565b604082019050919050565b600060208201905081810360008301526125b78161257b565b9050919050565b7f4e6f2062616c616e636520746f20776974686472617700000000000000000000600082015250565b60006125f4601683611605565b91506125ff826125be565b602082019050919050565b60006020820190508181036000830152612623816125e7565b9050919050565b7f4e6f7420617574686f72697a656420617320616e2061646d696e000000000000600082015250565b6000612660601a83611605565b915061266b8261262a565b602082019050919050565b6000602082019050818103600083015261268f81612653565b9050919050565b7f4c6f636174696f6e20616c726561647920657869737473000000000000000000600082015250565b60006126cc601783611605565b91506126d782612696565b602082019050919050565b600060208201905081810360008301526126fb816126bf565b9050919050565b7f50726f6475637420646f6573206e6f7420657869737400000000000000000000600082015250565b6000612738601683611605565b915061274382612702565b602082019050919050565b600060208201905081810360008301526127678161272b565b9050919050565b7f4e487b7100000000000000000000000000000000000000000000000000000000600052603260045260246000fd5b7f50726f647563742068617320616c7265616479206265656e20736f6c64000000600082015250565b60006127d3601d83611605565b91506127de8261279d565b602082019050919050565b60006020820190508181036000830152612802816127c6565b9050919050565b7f496e636f727265637420616d6f756e742073656e742e2053656e64207468652060008201527f65786163742070726f647563742070726963652e000000000000000000000000602082015250565b6000612865603483611605565b915061287082612809565b604082019050919050565b6000602082019050818103600083015261289481612858565b905091905056fea264697066735822122040673ba9d080539a416f3d35bb994241e87c65bc9709015bf43b354c3415517464736f6c63430008130033",
  "immutableReferences": {},
  "source": "// SPDX-License-Identifier: GPL-3.0\r\npragma solidity 0.8.19;\r\n\r\nimport \"./ProductContract.sol\";\r\nimport \"./FarmerContract.sol\";\r\n\r\ncontract AuctionStore{\r\n    ProductContract public productContract;\r\n    FarmerContract public farmerContract;\r\n    address public owner;\r\n    uint locationscount;\r\n    constructor(address _productContractAddress,address _farmerContractAddress) {\r\n        owner = msg.sender;\r\n        productContract = ProductContract(_productContractAddress);\r\n        farmerContract = FarmerContract(_farmerContractAddress);\r\n        locationscount = 0;\r\n    }\r\n    struct AuctionProduct {\r\n        uint256 aucproductId;\r\n        string name;\r\n        string description;\r\n        string category;\r\n        string location;\r\n        address productOwner;\r\n        uint256 price;\r\n        address buyer;\r\n        bool isSold;\r\n    }\r\n    \r\n    AuctionProduct[] public aucproducts;\r\n    mapping(string => bool) private locationExists;\r\n    string[] public locations;\r\n    \r\n    // Modifier that checks if the sender has the FARMER_ROLE in FarmerContract\r\n    modifier onlyFarmerRole() {\r\n        require(farmerContract.hasRole(farmerContract.FARMER_ROLE(), msg.sender), \"Not authorized\");\r\n        _;\r\n    }\r\n\r\n    modifier onlyAdmin() {\r\n        require(farmerContract.hasRole(farmerContract.ADMIN_ROLE(), msg.sender), \"Not authorized as an admin\");\r\n        _;\r\n    }\r\n\r\n    event ProductPurchased(uint256 indexed productId, address indexed buyer, uint256 amount);\r\n    \r\n\r\n    function addLocation(string memory _newLocation) public onlyAdmin{\r\n        require(!locationExists[_newLocation], \"Location already exists\");\r\n\r\n        locations.push(_newLocation);\r\n        locationExists[_newLocation] = true;\r\n    }\r\n\r\n    function getLocationList() public view returns (string[] memory) {\r\n        return locations;\r\n    }\r\n\r\n    function createProduct(uint _productId,string memory _name, string memory _description, string memory _category,string memory _location) public onlyFarmerRole{\r\n        require(bytes(productContract.getAllProductDetailsById(_productId).name).length != 0, \"Item with this ID does not exists\");\r\n        require(locationExists[_location],\"Location does not exist\");\r\n        AuctionProduct memory newProduct = AuctionProduct({\r\n            aucproductId: aucproducts.length,\r\n            name: _name,\r\n            description: _description,\r\n            category: _category,\r\n            location: _location,\r\n            productOwner: msg.sender,\r\n            price: productContract.getAllProductDetailsById(_productId).msp,\r\n            buyer: address(0),\r\n            isSold: false\r\n        });\r\n        aucproducts.push(newProduct);\r\n    }\r\n\r\n    function buyProduct(uint256 aucproductId) public payable {\r\n        require(aucproductId < aucproducts.length, \"Product does not exist\");\r\n        AuctionProduct storage product = aucproducts[aucproductId];\r\n        require(!product.isSold, \"Product has already been sold\");\r\n        require(msg.value == product.price, \"Incorrect amount sent. Send the exact product price.\");\r\n\r\n        product.isSold = true;\r\n        product.buyer = msg.sender;\r\n        emit ProductPurchased(aucproductId, msg.sender, msg.value);\r\n    }\r\n\r\n    function withdraw() public {\r\n        require(msg.sender == owner, \"Only the owner can withdraw funds\");\r\n        uint256 contractBalance = address(this).balance;\r\n        require(contractBalance > 0, \"No balance to withdraw\");\r\n        payable(owner).transfer(contractBalance);\r\n    }\r\n\r\n    function getNumberOfProducts() public view returns (uint256) {\r\n        return aucproducts.length;\r\n    }\r\n\r\n    function listAllProducts() public view returns (AuctionProduct[] memory) {\r\n        return aucproducts;\r\n    }\r\n}",
  "sourcePath": "C:\\Users\\ACER\\Documents\\Personal\\SEM-7_EXPERIMENTS\\sem-8-mini-project\\PDS_Security\\contracts\\AuctionStore.sol",
  "compiler": {
    "name": "solc",
    "version": "0.8.19+commit.7dd6d404.Emscripten.clang"
  },
  "schemaVersion": "3.4.16",
  "updatedAt": "2024-01-29T05:17:02.554Z",
  "networkType": "ethereum",
  "devdoc": {
    "kind": "dev",
    "methods": {},
    "version": 1
  },
  "userdoc": {
    "kind": "user",
    "methods": {},
    "version": 1
  }
}