{
  "contractName": "AuctionStore",
  "abi": [
    {
      "inputs": [
        {
          "internalType": "address",
          "name": "_productContractAddress",
          "type": "address"
        },
        {
          "internalType": "address",
          "name": "_farmerContractAddress",
          "type": "address"
        }
      ],
      "stateMutability": "nonpayable",
      "type": "constructor"
    },
    {
      "anonymous": false,
      "inputs": [
        {
          "indexed": true,
          "internalType": "uint256",
          "name": "productId",
          "type": "uint256"
        },
        {
          "indexed": true,
          "internalType": "address",
          "name": "buyer",
          "type": "address"
        },
        {
          "indexed": false,
          "internalType": "uint256",
          "name": "amount",
          "type": "uint256"
        }
      ],
      "name": "ProductPurchased",
      "type": "event"
    },
    {
      "inputs": [
        {
          "internalType": "uint256",
          "name": "",
          "type": "uint256"
        }
      ],
      "name": "aucproducts",
      "outputs": [
        {
          "internalType": "uint256",
          "name": "aucproductId",
          "type": "uint256"
        },
        {
          "internalType": "string",
          "name": "name",
          "type": "string"
        },
        {
          "internalType": "string",
          "name": "description",
          "type": "string"
        },
        {
          "internalType": "string",
          "name": "category",
          "type": "string"
        },
        {
          "internalType": "string",
          "name": "location",
          "type": "string"
        },
        {
          "internalType": "address",
          "name": "productOwner",
          "type": "address"
        },
        {
          "internalType": "uint256",
          "name": "price",
          "type": "uint256"
        },
        {
          "internalType": "address",
          "name": "buyer",
          "type": "address"
        },
        {
          "internalType": "bool",
          "name": "isSold",
          "type": "bool"
        }
      ],
      "stateMutability": "view",
      "type": "function",
      "constant": true
    },
    {
      "inputs": [],
      "name": "farmerContract",
      "outputs": [
        {
          "internalType": "contract FarmerContract",
          "name": "",
          "type": "address"
        }
      ],
      "stateMutability": "view",
      "type": "function",
      "constant": true
    },
    {
      "inputs": [
        {
          "internalType": "uint256",
          "name": "",
          "type": "uint256"
        }
      ],
      "name": "locations",
      "outputs": [
        {
          "internalType": "string",
          "name": "",
          "type": "string"
        }
      ],
      "stateMutability": "view",
      "type": "function",
      "constant": true
    },
    {
      "inputs": [],
      "name": "owner",
      "outputs": [
        {
          "internalType": "address",
          "name": "",
          "type": "address"
        }
      ],
      "stateMutability": "view",
      "type": "function",
      "constant": true
    },
    {
      "inputs": [],
      "name": "productContract",
      "outputs": [
        {
          "internalType": "contract ProductContract",
          "name": "",
          "type": "address"
        }
      ],
      "stateMutability": "view",
      "type": "function",
      "constant": true
    },
    {
      "inputs": [
        {
          "internalType": "uint256",
          "name": "",
          "type": "uint256"
        }
      ],
      "name": "productList",
      "outputs": [
        {
          "internalType": "string",
          "name": "commodityName",
          "type": "string"
        },
        {
          "internalType": "uint256",
          "name": "Quantity",
          "type": "uint256"
        },
        {
          "internalType": "string",
          "name": "commodityImage",
          "type": "string"
        },
        {
          "internalType": "string",
          "name": "District",
          "type": "string"
        },
        {
          "internalType": "string",
          "name": "State",
          "type": "string"
        },
        {
          "internalType": "bool",
          "name": "sold",
          "type": "bool"
        }
      ],
      "stateMutability": "view",
      "type": "function",
      "constant": true
    },
    {
      "inputs": [
        {
          "internalType": "string",
          "name": "_newLocation",
          "type": "string"
        }
      ],
      "name": "addLocation",
      "outputs": [],
      "stateMutability": "nonpayable",
      "type": "function"
    },
    {
      "inputs": [],
      "name": "getLocationList",
      "outputs": [
        {
          "internalType": "string[]",
          "name": "",
          "type": "string[]"
        }
      ],
      "stateMutability": "view",
      "type": "function",
      "constant": true
    },
    {
      "inputs": [
        {
          "internalType": "uint256",
          "name": "_productId",
          "type": "uint256"
        },
        {
          "internalType": "string",
          "name": "_name",
          "type": "string"
        },
        {
          "internalType": "string",
          "name": "_description",
          "type": "string"
        },
        {
          "internalType": "string",
          "name": "_category",
          "type": "string"
        },
        {
          "internalType": "string",
          "name": "_location",
          "type": "string"
        }
      ],
      "name": "createProduct",
      "outputs": [],
      "stateMutability": "nonpayable",
      "type": "function"
    },
    {
      "inputs": [
        {
          "internalType": "uint256",
          "name": "aucproductId",
          "type": "uint256"
        }
      ],
      "name": "buyProduct",
      "outputs": [],
      "stateMutability": "payable",
      "type": "function",
      "payable": true
    },
    {
      "inputs": [],
      "name": "withdraw",
      "outputs": [],
      "stateMutability": "nonpayable",
      "type": "function"
    },
    {
      "inputs": [],
      "name": "getNumberOfProducts",
      "outputs": [
        {
          "internalType": "uint256",
          "name": "",
          "type": "uint256"
        }
      ],
      "stateMutability": "view",
      "type": "function",
      "constant": true
    },
    {
      "inputs": [],
      "name": "listAllProducts",
      "outputs": [
        {
          "components": [
            {
              "internalType": "uint256",
              "name": "aucproductId",
              "type": "uint256"
            },
            {
              "internalType": "string",
              "name": "name",
              "type": "string"
            },
            {
              "internalType": "string",
              "name": "description",
              "type": "string"
            },
            {
              "internalType": "string",
              "name": "category",
              "type": "string"
            },
            {
              "internalType": "string",
              "name": "location",
              "type": "string"
            },
            {
              "internalType": "address",
              "name": "productOwner",
              "type": "address"
            },
            {
              "internalType": "uint256",
              "name": "price",
              "type": "uint256"
            },
            {
              "internalType": "address",
              "name": "buyer",
              "type": "address"
            },
            {
              "internalType": "bool",
              "name": "isSold",
              "type": "bool"
            }
          ],
          "internalType": "struct AuctionStore.AuctionProduct[]",
          "name": "",
          "type": "tuple[]"
        }
      ],
      "stateMutability": "view",
      "type": "function",
      "constant": true
    }
  ],
  "bytecode": "0x60806040523480156200001157600080fd5b5060405162002dee38038062002dee833981810160405281019062000037919062000173565b33600260006101000a81548173ffffffffffffffffffffffffffffffffffffffff021916908373ffffffffffffffffffffffffffffffffffffffff160217905550816000806101000a81548173ffffffffffffffffffffffffffffffffffffffff021916908373ffffffffffffffffffffffffffffffffffffffff16021790555080600160006101000a81548173ffffffffffffffffffffffffffffffffffffffff021916908373ffffffffffffffffffffffffffffffffffffffff16021790555060006003819055505050620001ba565b600080fd5b600073ffffffffffffffffffffffffffffffffffffffff82169050919050565b60006200013b826200010e565b9050919050565b6200014d816200012e565b81146200015957600080fd5b50565b6000815190506200016d8162000142565b92915050565b600080604083850312156200018d576200018c62000109565b5b60006200019d858286016200015c565b9250506020620001b0858286016200015c565b9150509250929050565b612c2480620001ca6000396000f3fe6080604052600436106100c25760003560e01c8063528c87d21161007f5780638da5cb5b116100595780638da5cb5b146102545780639954ff6f1461027f5780639c0b7d46146102aa578063b9e0db35146102d5576100c2565b8063528c87d2146101cd5780635fddb0881461020f5780638642269e14610238576100c2565b806319894efc146100c757806326085b781461010c5780632a28d4df1461013557806338b43d93146101605780633ccfd60b1461018b5780633ffd81fb146101a2575b600080fd5b3480156100d357600080fd5b506100ee60048036038101906100e99190611894565b610312565b604051610103999897969594939291906119bc565b60405180910390f35b34801561011857600080fd5b50610133600480360381019061012e9190611b9a565b6105dd565b005b34801561014157600080fd5b5061014a610b08565b6040516101579190611ce4565b60405180910390f35b34801561016c57600080fd5b50610175610b2c565b6040516101829190611f12565b60405180910390f35b34801561019757600080fd5b506101a0610eaf565b005b3480156101ae57600080fd5b506101b7610ff3565b6040516101c49190611f34565b60405180910390f35b3480156101d957600080fd5b506101f460048036038101906101ef9190611894565b611000565b60405161020696959493929190611f4f565b60405180910390f35b34801561021b57600080fd5b5061023660048036038101906102319190611fcc565b611279565b005b610252600480360381019061024d9190611894565b6114c1565b005b34801561026057600080fd5b50610269611679565b6040516102769190612015565b60405180910390f35b34801561028b57600080fd5b5061029461169f565b6040516102a191906120f2565b60405180910390f35b3480156102b657600080fd5b506102bf611778565b6040516102cc9190612135565b60405180910390f35b3480156102e157600080fd5b506102fc60048036038101906102f79190611894565b61179e565b6040516103099190612150565b60405180910390f35b6004818154811061032257600080fd5b906000526020600020906008020160009150905080600001549080600101805461034b906121a1565b80601f0160208091040260200160405190810160405280929190818152602001828054610377906121a1565b80156103c45780601f10610399576101008083540402835291602001916103c4565b820191906000526020600020905b8154815290600101906020018083116103a757829003601f168201915b5050505050908060020180546103d9906121a1565b80601f0160208091040260200160405190810160405280929190818152602001828054610405906121a1565b80156104525780601f1061042757610100808354040283529160200191610452565b820191906000526020600020905b81548152906001019060200180831161043557829003601f168201915b505050505090806003018054610467906121a1565b80601f0160208091040260200160405190810160405280929190818152602001828054610493906121a1565b80156104e05780601f106104b5576101008083540402835291602001916104e0565b820191906000526020600020905b8154815290600101906020018083116104c357829003601f168201915b5050505050908060040180546104f5906121a1565b80601f0160208091040260200160405190810160405280929190818152602001828054610521906121a1565b801561056e5780601f106105435761010080835404028352916020019161056e565b820191906000526020600020905b81548152906001019060200180831161055157829003601f168201915b5050505050908060050160009054906101000a900473ffffffffffffffffffffffffffffffffffffffff16908060060154908060070160009054906101000a900473ffffffffffffffffffffffffffffffffffffffff16908060070160149054906101000a900460ff16905089565b600160009054906101000a900473ffffffffffffffffffffffffffffffffffffffff1673ffffffffffffffffffffffffffffffffffffffff166391d14854600160009054906101000a900473ffffffffffffffffffffffffffffffffffffffff1673ffffffffffffffffffffffffffffffffffffffff1663f39439706040518163ffffffff1660e01b8152600401602060405180830381865afa158015610688573d6000803e3d6000fd5b505050506040513d601f19601f820116820180604052508101906106ac9190612208565b336040518363ffffffff1660e01b81526004016106ca929190612244565b602060405180830381865afa1580156106e7573d6000803e3d6000fd5b505050506040513d601f19601f8201168201806040525081019061070b9190612299565b61074a576040517f08c379a000000000000000000000000000000000000000000000000000000000815260040161074190612312565b60405180910390fd5b60008060009054906101000a900473ffffffffffffffffffffffffffffffffffffffff1673ffffffffffffffffffffffffffffffffffffffff16633b88c4ff876040518263ffffffff1660e01b81526004016107a69190611f34565b600060405180830381865afa1580156107c3573d6000803e3d6000fd5b505050506040513d6000823e3d601f19601f820116820180604052508101906107ec9190612471565b600001515103610831576040517f08c379a00000000000000000000000000000000000000000000000000000000081526004016108289061252c565b60405180910390fd5b6006816040516108419190612588565b908152602001604051809103902060009054906101000a900460ff1661089c576040517f08c379a0000000000000000000000000000000000000000000000000000000008152600401610893906125eb565b60405180910390fd5b600060405180610120016040528060048054905081526020018681526020018581526020018481526020018381526020013373ffffffffffffffffffffffffffffffffffffffff16815260200160008054906101000a900473ffffffffffffffffffffffffffffffffffffffff1673ffffffffffffffffffffffffffffffffffffffff16633b88c4ff896040518263ffffffff1660e01b81526004016109429190611f34565b600060405180830381865afa15801561095f573d6000803e3d6000fd5b505050506040513d6000823e3d601f19601f820116820180604052508101906109889190612471565b602001518152602001600073ffffffffffffffffffffffffffffffffffffffff1681526020016000151581525090506004819080600181540180825580915050600190039060005260206000209060080201600090919091909150600082015181600001556020820151816001019081610a0291906127ad565b506040820151816002019081610a1891906127ad565b506060820151816003019081610a2e91906127ad565b506080820151816004019081610a4491906127ad565b5060a08201518160050160006101000a81548173ffffffffffffffffffffffffffffffffffffffff021916908373ffffffffffffffffffffffffffffffffffffffff16021790555060c0820151816006015560e08201518160070160006101000a81548173ffffffffffffffffffffffffffffffffffffffff021916908373ffffffffffffffffffffffffffffffffffffffff1602179055506101008201518160070160146101000a81548160ff0219169083151502179055505050505050505050565b60008054906101000a900473ffffffffffffffffffffffffffffffffffffffff1681565b60606004805480602002602001604051908101604052809291908181526020016000905b82821015610ea657838290600052602060002090600802016040518061012001604052908160008201548152602001600182018054610b8e906121a1565b80601f0160208091040260200160405190810160405280929190818152602001828054610bba906121a1565b8015610c075780601f10610bdc57610100808354040283529160200191610c07565b820191906000526020600020905b815481529060010190602001808311610bea57829003601f168201915b50505050508152602001600282018054610c20906121a1565b80601f0160208091040260200160405190810160405280929190818152602001828054610c4c906121a1565b8015610c995780601f10610c6e57610100808354040283529160200191610c99565b820191906000526020600020905b815481529060010190602001808311610c7c57829003601f168201915b50505050508152602001600382018054610cb2906121a1565b80601f0160208091040260200160405190810160405280929190818152602001828054610cde906121a1565b8015610d2b5780601f10610d0057610100808354040283529160200191610d2b565b820191906000526020600020905b815481529060010190602001808311610d0e57829003601f168201915b50505050508152602001600482018054610d44906121a1565b80601f0160208091040260200160405190810160405280929190818152602001828054610d70906121a1565b8015610dbd5780601f10610d9257610100808354040283529160200191610dbd565b820191906000526020600020905b815481529060010190602001808311610da057829003601f168201915b505050505081526020016005820160009054906101000a900473ffffffffffffffffffffffffffffffffffffffff1673ffffffffffffffffffffffffffffffffffffffff1673ffffffffffffffffffffffffffffffffffffffff168152602001600682015481526020016007820160009054906101000a900473ffffffffffffffffffffffffffffffffffffffff1673ffffffffffffffffffffffffffffffffffffffff1673ffffffffffffffffffffffffffffffffffffffff1681526020016007820160149054906101000a900460ff16151515158152505081526020019060010190610b50565b50505050905090565b600260009054906101000a900473ffffffffffffffffffffffffffffffffffffffff1673ffffffffffffffffffffffffffffffffffffffff163373ffffffffffffffffffffffffffffffffffffffff1614610f3f576040517f08c379a0000000000000000000000000000000000000000000000000000000008152600401610f36906128f1565b60405180910390fd5b600047905060008111610f87576040517f08c379a0000000000000000000000000000000000000000000000000000000008152600401610f7e9061295d565b60405180910390fd5b600260009054906101000a900473ffffffffffffffffffffffffffffffffffffffff1673ffffffffffffffffffffffffffffffffffffffff166108fc829081150290604051600060405180830381858888f19350505050158015610fef573d6000803e3d6000fd5b5050565b6000600480549050905090565b6005818154811061101057600080fd5b9060005260206000209060060201600091509050806000018054611033906121a1565b80601f016020809104026020016040519081016040528092919081815260200182805461105f906121a1565b80156110ac5780601f10611081576101008083540402835291602001916110ac565b820191906000526020600020905b81548152906001019060200180831161108f57829003601f168201915b5050505050908060010154908060020180546110c7906121a1565b80601f01602080910402602001604051908101604052809291908181526020018280546110f3906121a1565b80156111405780601f1061111557610100808354040283529160200191611140565b820191906000526020600020905b81548152906001019060200180831161112357829003601f168201915b505050505090806003018054611155906121a1565b80601f0160208091040260200160405190810160405280929190818152602001828054611181906121a1565b80156111ce5780601f106111a3576101008083540402835291602001916111ce565b820191906000526020600020905b8154815290600101906020018083116111b157829003601f168201915b5050505050908060040180546111e3906121a1565b80601f016020809104026020016040519081016040528092919081815260200182805461120f906121a1565b801561125c5780601f106112315761010080835404028352916020019161125c565b820191906000526020600020905b81548152906001019060200180831161123f57829003601f168201915b5050505050908060050160009054906101000a900460ff16905086565b600160009054906101000a900473ffffffffffffffffffffffffffffffffffffffff1673ffffffffffffffffffffffffffffffffffffffff166391d14854600160009054906101000a900473ffffffffffffffffffffffffffffffffffffffff1673ffffffffffffffffffffffffffffffffffffffff166375b238fc6040518163ffffffff1660e01b8152600401602060405180830381865afa158015611324573d6000803e3d6000fd5b505050506040513d601f19601f820116820180604052508101906113489190612208565b336040518363ffffffff1660e01b8152600401611366929190612244565b602060405180830381865afa158015611383573d6000803e3d6000fd5b505050506040513d601f19601f820116820180604052508101906113a79190612299565b6113e6576040517f08c379a00000000000000000000000000000000000000000000000000000000081526004016113dd906129c9565b60405180910390fd5b6006816040516113f69190612588565b908152602001604051809103902060009054906101000a900460ff1615611452576040517f08c379a000000000000000000000000000000000000000000000000000000000815260040161144990612a35565b60405180910390fd5b60078190806001815401808255809150506001900390600052602060002001600090919091909150908161148691906127ad565b5060016006826040516114999190612588565b908152602001604051809103902060006101000a81548160ff02191690831515021790555050565b6004805490508110611508576040517f08c379a00000000000000000000000000000000000000000000000000000000081526004016114ff90612aa1565b60405180910390fd5b60006004828154811061151e5761151d612ac1565b5b906000526020600020906008020190508060070160149054906101000a900460ff1615611580576040517f08c379a000000000000000000000000000000000000000000000000000000000815260040161157790612b3c565b60405180910390fd5b806006015434146115c6576040517f08c379a00000000000000000000000000000000000000000000000000000000081526004016115bd90612bce565b60405180910390fd5b60018160070160146101000a81548160ff021916908315150217905550338160070160006101000a81548173ffffffffffffffffffffffffffffffffffffffff021916908373ffffffffffffffffffffffffffffffffffffffff1602179055503373ffffffffffffffffffffffffffffffffffffffff16827fa530f889d7f1bd9a73028e48944ca013ab2c6624a31e3fa26f923f4bb719abd53460405161166d9190611f34565b60405180910390a35050565b600260009054906101000a900473ffffffffffffffffffffffffffffffffffffffff1681565b60606007805480602002602001604051908101604052809291908181526020016000905b8282101561176f5783829060005260206000200180546116e2906121a1565b80601f016020809104026020016040519081016040528092919081815260200182805461170e906121a1565b801561175b5780601f106117305761010080835404028352916020019161175b565b820191906000526020600020905b81548152906001019060200180831161173e57829003601f168201915b5050505050815260200190600101906116c3565b50505050905090565b600160009054906101000a900473ffffffffffffffffffffffffffffffffffffffff1681565b600781815481106117ae57600080fd5b9060005260206000200160009150905080546117c9906121a1565b80601f01602080910402602001604051908101604052809291908181526020018280546117f5906121a1565b80156118425780601f1061181757610100808354040283529160200191611842565b820191906000526020600020905b81548152906001019060200180831161182557829003601f168201915b505050505081565b6000604051905090565b600080fd5b600080fd5b6000819050919050565b6118718161185e565b811461187c57600080fd5b50565b60008135905061188e81611868565b92915050565b6000602082840312156118aa576118a9611854565b5b60006118b88482850161187f565b91505092915050565b6118ca8161185e565b82525050565b600081519050919050565b600082825260208201905092915050565b60005b8381101561190a5780820151818401526020810190506118ef565b60008484015250505050565b6000601f19601f8301169050919050565b6000611932826118d0565b61193c81856118db565b935061194c8185602086016118ec565b61195581611916565b840191505092915050565b600073ffffffffffffffffffffffffffffffffffffffff82169050919050565b600061198b82611960565b9050919050565b61199b81611980565b82525050565b60008115159050919050565b6119b6816119a1565b82525050565b6000610120820190506119d2600083018c6118c1565b81810360208301526119e4818b611927565b905081810360408301526119f8818a611927565b90508181036060830152611a0c8189611927565b90508181036080830152611a208188611927565b9050611a2f60a0830187611992565b611a3c60c08301866118c1565b611a4960e0830185611992565b611a576101008301846119ad565b9a9950505050505050505050565b600080fd5b600080fd5b7f4e487b7100000000000000000000000000000000000000000000000000000000600052604160045260246000fd5b611aa782611916565b810181811067ffffffffffffffff82111715611ac657611ac5611a6f565b5b80604052505050565b6000611ad961184a565b9050611ae58282611a9e565b919050565b600067ffffffffffffffff821115611b0557611b04611a6f565b5b611b0e82611916565b9050602081019050919050565b82818337600083830152505050565b6000611b3d611b3884611aea565b611acf565b905082815260208101848484011115611b5957611b58611a6a565b5b611b64848285611b1b565b509392505050565b600082601f830112611b8157611b80611a65565b5b8135611b91848260208601611b2a565b91505092915050565b600080600080600060a08688031215611bb657611bb5611854565b5b6000611bc48882890161187f565b955050602086013567ffffffffffffffff811115611be557611be4611859565b5b611bf188828901611b6c565b945050604086013567ffffffffffffffff811115611c1257611c11611859565b5b611c1e88828901611b6c565b935050606086013567ffffffffffffffff811115611c3f57611c3e611859565b5b611c4b88828901611b6c565b925050608086013567ffffffffffffffff811115611c6c57611c6b611859565b5b611c7888828901611b6c565b9150509295509295909350565b6000819050919050565b6000611caa611ca5611ca084611960565b611c85565b611960565b9050919050565b6000611cbc82611c8f565b9050919050565b6000611cce82611cb1565b9050919050565b611cde81611cc3565b82525050565b6000602082019050611cf96000830184611cd5565b92915050565b600081519050919050565b600082825260208201905092915050565b6000819050602082019050919050565b611d348161185e565b82525050565b600082825260208201905092915050565b6000611d56826118d0565b611d608185611d3a565b9350611d708185602086016118ec565b611d7981611916565b840191505092915050565b611d8d81611980565b82525050565b611d9c816119a1565b82525050565b600061012083016000830151611dbb6000860182611d2b565b5060208301518482036020860152611dd38282611d4b565b91505060408301518482036040860152611ded8282611d4b565b91505060608301518482036060860152611e078282611d4b565b91505060808301518482036080860152611e218282611d4b565b91505060a0830151611e3660a0860182611d84565b5060c0830151611e4960c0860182611d2b565b5060e0830151611e5c60e0860182611d84565b50610100830151611e71610100860182611d93565b508091505092915050565b6000611e888383611da2565b905092915050565b6000602082019050919050565b6000611ea882611cff565b611eb28185611d0a565b935083602082028501611ec485611d1b565b8060005b85811015611f005784840389528151611ee18582611e7c565b9450611eec83611e90565b925060208a01995050600181019050611ec8565b50829750879550505050505092915050565b60006020820190508181036000830152611f2c8184611e9d565b905092915050565b6000602082019050611f4960008301846118c1565b92915050565b600060c0820190508181036000830152611f698189611927565b9050611f7860208301886118c1565b8181036040830152611f8a8187611927565b90508181036060830152611f9e8186611927565b90508181036080830152611fb28185611927565b9050611fc160a08301846119ad565b979650505050505050565b600060208284031215611fe257611fe1611854565b5b600082013567ffffffffffffffff81111561200057611fff611859565b5b61200c84828501611b6c565b91505092915050565b600060208201905061202a6000830184611992565b92915050565b600081519050919050565b600082825260208201905092915050565b6000819050602082019050919050565b60006120688383611d4b565b905092915050565b6000602082019050919050565b600061208882612030565b612092818561203b565b9350836020820285016120a48561204c565b8060005b858110156120e057848403895281516120c1858261205c565b94506120cc83612070565b925060208a019950506001810190506120a8565b50829750879550505050505092915050565b6000602082019050818103600083015261210c818461207d565b905092915050565b600061211f82611cb1565b9050919050565b61212f81612114565b82525050565b600060208201905061214a6000830184612126565b92915050565b6000602082019050818103600083015261216a8184611927565b905092915050565b7f4e487b7100000000000000000000000000000000000000000000000000000000600052602260045260246000fd5b600060028204905060018216806121b957607f821691505b6020821081036121cc576121cb612172565b5b50919050565b6000819050919050565b6121e5816121d2565b81146121f057600080fd5b50565b600081519050612202816121dc565b92915050565b60006020828403121561221e5761221d611854565b5b600061222c848285016121f3565b91505092915050565b61223e816121d2565b82525050565b60006040820190506122596000830185612235565b6122666020830184611992565b9392505050565b612276816119a1565b811461228157600080fd5b50565b6000815190506122938161226d565b92915050565b6000602082840312156122af576122ae611854565b5b60006122bd84828501612284565b91505092915050565b7f4e6f7420617574686f72697a6564000000000000000000000000000000000000600082015250565b60006122fc600e836118db565b9150612307826122c6565b602082019050919050565b6000602082019050818103600083015261232b816122ef565b9050919050565b600080fd5b600080fd5b600061234f61234a84611aea565b611acf565b90508281526020810184848401111561236b5761236a611a6a565b5b6123768482856118ec565b509392505050565b600082601f83011261239357612392611a65565b5b81516123a384826020860161233c565b91505092915050565b6000815190506123bb81611868565b92915050565b6000608082840312156123d7576123d6612332565b5b6123e16080611acf565b9050600082015167ffffffffffffffff81111561240157612400612337565b5b61240d8482850161237e565b6000830152506020612421848285016123ac565b6020830152506040612435848285016123ac565b604083015250606082015167ffffffffffffffff81111561245957612458612337565b5b6124658482850161237e565b60608301525092915050565b60006020828403121561248757612486611854565b5b600082015167ffffffffffffffff8111156124a5576124a4611859565b5b6124b1848285016123c1565b91505092915050565b7f4974656d2077697468207468697320494420646f6573206e6f7420657869737460008201527f7300000000000000000000000000000000000000000000000000000000000000602082015250565b60006125166021836118db565b9150612521826124ba565b604082019050919050565b6000602082019050818103600083015261254581612509565b9050919050565b600081905092915050565b6000612562826118d0565b61256c818561254c565b935061257c8185602086016118ec565b80840191505092915050565b60006125948284612557565b915081905092915050565b7f4c6f636174696f6e20646f6573206e6f74206578697374000000000000000000600082015250565b60006125d56017836118db565b91506125e08261259f565b602082019050919050565b60006020820190508181036000830152612604816125c8565b9050919050565b60008190508160005260206000209050919050565b60006020601f8301049050919050565b600082821b905092915050565b60006008830261266d7fffffffffffffffffffffffffffffffffffffffffffffffffffffffffffffffff82612630565b6126778683612630565b95508019841693508086168417925050509392505050565b60006126aa6126a56126a08461185e565b611c85565b61185e565b9050919050565b6000819050919050565b6126c48361268f565b6126d86126d0826126b1565b84845461263d565b825550505050565b600090565b6126ed6126e0565b6126f88184846126bb565b505050565b5b8181101561271c576127116000826126e5565b6001810190506126fe565b5050565b601f821115612761576127328161260b565b61273b84612620565b8101602085101561274a578190505b61275e61275685612620565b8301826126fd565b50505b505050565b600082821c905092915050565b600061278460001984600802612766565b1980831691505092915050565b600061279d8383612773565b9150826002028217905092915050565b6127b6826118d0565b67ffffffffffffffff8111156127cf576127ce611a6f565b5b6127d982546121a1565b6127e4828285612720565b600060209050601f8311600181146128175760008415612805578287015190505b61280f8582612791565b865550612877565b601f1984166128258661260b565b60005b8281101561284d57848901518255600182019150602085019450602081019050612828565b8683101561286a5784890151612866601f891682612773565b8355505b6001600288020188555050505b505050505050565b7f4f6e6c7920746865206f776e65722063616e2077697468647261772066756e6460008201527f7300000000000000000000000000000000000000000000000000000000000000602082015250565b60006128db6021836118db565b91506128e68261287f565b604082019050919050565b6000602082019050818103600083015261290a816128ce565b9050919050565b7f4e6f2062616c616e636520746f20776974686472617700000000000000000000600082015250565b60006129476016836118db565b915061295282612911565b602082019050919050565b600060208201905081810360008301526129768161293a565b9050919050565b7f4e6f7420617574686f72697a656420617320616e2061646d696e000000000000600082015250565b60006129b3601a836118db565b91506129be8261297d565b602082019050919050565b600060208201905081810360008301526129e2816129a6565b9050919050565b7f4c6f636174696f6e20616c726561647920657869737473000000000000000000600082015250565b6000612a1f6017836118db565b9150612a2a826129e9565b602082019050919050565b60006020820190508181036000830152612a4e81612a12565b9050919050565b7f50726f6475637420646f6573206e6f7420657869737400000000000000000000600082015250565b6000612a8b6016836118db565b9150612a9682612a55565b602082019050919050565b60006020820190508181036000830152612aba81612a7e565b9050919050565b7f4e487b7100000000000000000000000000000000000000000000000000000000600052603260045260246000fd5b7f50726f647563742068617320616c7265616479206265656e20736f6c64000000600082015250565b6000612b26601d836118db565b9150612b3182612af0565b602082019050919050565b60006020820190508181036000830152612b5581612b19565b9050919050565b7f496e636f727265637420616d6f756e742073656e742e2053656e64207468652060008201527f65786163742070726f647563742070726963652e000000000000000000000000602082015250565b6000612bb86034836118db565b9150612bc382612b5c565b604082019050919050565b60006020820190508181036000830152612be781612bab565b905091905056fea2646970667358221220e382730493e508d8582ab432557e185df53c104011d6607a877c0da94497fa5564736f6c63430008130033",
  "immutableReferences": {},
  "source": "// SPDX-License-Identifier: GPL-3.0\r\npragma solidity 0.8.19;\r\n\r\nimport \"./ProductContract.sol\";\r\nimport \"./FarmerContract.sol\";\r\n\r\ncontract AuctionStore{\r\n    ProductContract public productContract;\r\n    FarmerContract public farmerContract;\r\n    address public owner;\r\n    uint locationscount;\r\n    constructor(address _productContractAddress,address _farmerContractAddress) {\r\n        owner = msg.sender;\r\n        productContract = ProductContract(_productContractAddress);\r\n        farmerContract = FarmerContract(_farmerContractAddress);\r\n        locationscount = 0;\r\n    }\r\n    struct AuctionProduct {\r\n        uint256 aucproductId;\r\n        string name;\r\n        string description;\r\n        string category;\r\n        string location;\r\n        address productOwner;\r\n        uint256 price;\r\n        address buyer;\r\n        bool isSold;\r\n    }\r\n    \r\n    struct ProductDetails {\r\n        string commodityName ;\r\n        uint256 Quantity;\r\n        string commodityImage;\r\n        string District;\r\n        string State;\r\n        bool sold;\r\n    }\r\n    AuctionProduct[] public aucproducts;\r\n    ProductDetails[]  public productList;\r\n    mapping(string => bool) private locationExists;\r\n    string[] public locations;\r\n    \r\n    // Modifier that checks if the sender has the FARMER_ROLE in FarmerContract\r\n    modifier onlyFarmerRole() {\r\n        require(farmerContract.hasRole(farmerContract.FARMER_ROLE(), msg.sender), \"Not authorized\");\r\n        _;\r\n    }\r\n\r\n    modifier onlyAdmin() {\r\n        require(farmerContract.hasRole(farmerContract.ADMIN_ROLE(), msg.sender), \"Not authorized as an admin\");\r\n        _;\r\n    }\r\n\r\n    event ProductPurchased(uint256 indexed productId, address indexed buyer, uint256 amount);\r\n    \r\n\r\n    function addLocation(string memory _newLocation) public onlyAdmin{\r\n        require(!locationExists[_newLocation], \"Location already exists\");\r\n\r\n        locations.push(_newLocation);\r\n        locationExists[_newLocation] = true;\r\n    }\r\n\r\n    function getLocationList() public view returns (string[] memory) {\r\n        return locations;\r\n    }\r\n\r\n    function createProduct(uint _productId,string memory _name, string memory _description, string memory _category,string memory _location) public onlyFarmerRole{\r\n        require(bytes(productContract.getAllProductDetailsById(_productId).name).length != 0, \"Item with this ID does not exists\");\r\n        require(locationExists[_location],\"Location does not exist\");\r\n        AuctionProduct memory newProduct = AuctionProduct({\r\n            aucproductId: aucproducts.length,\r\n            name: _name,\r\n            description: _description,\r\n            category: _category,\r\n            location: _location,\r\n            productOwner: msg.sender,\r\n            price: productContract.getAllProductDetailsById(_productId).msp,\r\n            buyer: address(0),\r\n            isSold: false\r\n        });\r\n        aucproducts.push(newProduct);\r\n    }\r\n\r\n    // function addFarmerProduct(address _address , string commodityName)  returns () {\r\n    //     string commodityName ;\r\n    //     uint256 Quantity;\r\n    //     string commodityImage;\r\n    //     string District;\r\n    //     string State;\r\n    //     bool sold;\r\n    // }\r\n\r\n    // function getProductsByAddress(address farmerAddress) external view returns(){\r\n\r\n    // }\r\n\r\n    function buyProduct(uint256 aucproductId) public payable {\r\n        require(aucproductId < aucproducts.length, \"Product does not exist\");\r\n        AuctionProduct storage product = aucproducts[aucproductId];\r\n        require(!product.isSold, \"Product has already been sold\");\r\n        require(msg.value == product.price, \"Incorrect amount sent. Send the exact product price.\");\r\n\r\n        product.isSold = true;\r\n        product.buyer = msg.sender;\r\n        emit ProductPurchased(aucproductId, msg.sender, msg.value);\r\n    }\r\n\r\n    function withdraw() public {\r\n        require(msg.sender == owner, \"Only the owner can withdraw funds\");\r\n        uint256 contractBalance = address(this).balance;\r\n        require(contractBalance > 0, \"No balance to withdraw\");\r\n        payable(owner).transfer(contractBalance);\r\n    }\r\n\r\n    function getNumberOfProducts() public view returns (uint256) {\r\n        return aucproducts.length;\r\n    }\r\n\r\n    function listAllProducts() public view returns (AuctionProduct[] memory) {\r\n        return aucproducts;\r\n    }\r\n}",
  "sourcePath": "C:\\Users\\ACER\\Documents\\Personal\\SEM-7_EXPERIMENTS\\sem-8-mini-project\\PDS_Security\\contracts\\AuctionStore.sol",
  "compiler": {
    "name": "solc",
    "version": "0.8.19+commit.7dd6d404.Emscripten.clang"
  },
  "schemaVersion": "3.4.16",
  "updatedAt": "2024-01-17T08:44:13.281Z",
  "networkType": "ethereum",
  "devdoc": {
    "kind": "dev",
    "methods": {},
    "version": 1
  },
  "userdoc": {
    "kind": "user",
    "methods": {},
    "version": 1
  }
}