{
  "contractName": "FarmerContract",
  "abi": [
    {
      "inputs": [],
      "stateMutability": "payable",
      "type": "constructor",
      "payable": true
    },
    {
      "anonymous": false,
      "inputs": [
        {
          "indexed": true,
          "internalType": "bytes32",
          "name": "role",
          "type": "bytes32"
        },
        {
          "indexed": true,
          "internalType": "bytes32",
          "name": "previousAdminRole",
          "type": "bytes32"
        },
        {
          "indexed": true,
          "internalType": "bytes32",
          "name": "newAdminRole",
          "type": "bytes32"
        }
      ],
      "name": "RoleAdminChanged",
      "type": "event"
    },
    {
      "anonymous": false,
      "inputs": [
        {
          "indexed": true,
          "internalType": "bytes32",
          "name": "role",
          "type": "bytes32"
        },
        {
          "indexed": true,
          "internalType": "address",
          "name": "account",
          "type": "address"
        },
        {
          "indexed": true,
          "internalType": "address",
          "name": "sender",
          "type": "address"
        }
      ],
      "name": "RoleGranted",
      "type": "event"
    },
    {
      "anonymous": false,
      "inputs": [
        {
          "indexed": true,
          "internalType": "bytes32",
          "name": "role",
          "type": "bytes32"
        },
        {
          "indexed": true,
          "internalType": "address",
          "name": "account",
          "type": "address"
        },
        {
          "indexed": true,
          "internalType": "address",
          "name": "sender",
          "type": "address"
        }
      ],
      "name": "RoleRevoked",
      "type": "event"
    },
    {
      "inputs": [],
      "name": "ADMIN_ROLE",
      "outputs": [
        {
          "internalType": "bytes32",
          "name": "",
          "type": "bytes32"
        }
      ],
      "stateMutability": "view",
      "type": "function",
      "constant": true
    },
    {
      "inputs": [],
      "name": "DEFAULT_ADMIN_ROLE",
      "outputs": [
        {
          "internalType": "bytes32",
          "name": "",
          "type": "bytes32"
        }
      ],
      "stateMutability": "view",
      "type": "function",
      "constant": true
    },
    {
      "inputs": [],
      "name": "FARMER_ROLE",
      "outputs": [
        {
          "internalType": "bytes32",
          "name": "",
          "type": "bytes32"
        }
      ],
      "stateMutability": "view",
      "type": "function",
      "constant": true
    },
    {
      "inputs": [
        {
          "internalType": "uint256",
          "name": "",
          "type": "uint256"
        }
      ],
      "name": "farmerAddresses",
      "outputs": [
        {
          "internalType": "address",
          "name": "",
          "type": "address"
        }
      ],
      "stateMutability": "view",
      "type": "function",
      "constant": true
    },
    {
      "inputs": [],
      "name": "farmerCount",
      "outputs": [
        {
          "internalType": "uint256",
          "name": "",
          "type": "uint256"
        }
      ],
      "stateMutability": "view",
      "type": "function",
      "constant": true
    },
    {
      "inputs": [
        {
          "internalType": "address",
          "name": "",
          "type": "address"
        },
        {
          "internalType": "uint256",
          "name": "",
          "type": "uint256"
        }
      ],
      "name": "farmerProducts",
      "outputs": [
        {
          "internalType": "string",
          "name": "name",
          "type": "string"
        },
        {
          "internalType": "uint256",
          "name": "quantity",
          "type": "uint256"
        },
        {
          "internalType": "string",
          "name": "unit",
          "type": "string"
        },
        {
          "internalType": "string",
          "name": "image",
          "type": "string"
        },
        {
          "internalType": "string",
          "name": "district",
          "type": "string"
        },
        {
          "internalType": "string",
          "name": "state",
          "type": "string"
        },
        {
          "internalType": "bool",
          "name": "sold",
          "type": "bool"
        },
        {
          "internalType": "string",
          "name": "pincode",
          "type": "string"
        }
      ],
      "stateMutability": "view",
      "type": "function",
      "constant": true
    },
    {
      "inputs": [
        {
          "internalType": "uint256",
          "name": "",
          "type": "uint256"
        }
      ],
      "name": "farmerRequests",
      "outputs": [
        {
          "internalType": "address",
          "name": "",
          "type": "address"
        }
      ],
      "stateMutability": "view",
      "type": "function",
      "constant": true
    },
    {
      "inputs": [
        {
          "internalType": "bytes32",
          "name": "role",
          "type": "bytes32"
        }
      ],
      "name": "getRoleAdmin",
      "outputs": [
        {
          "internalType": "bytes32",
          "name": "",
          "type": "bytes32"
        }
      ],
      "stateMutability": "view",
      "type": "function",
      "constant": true
    },
    {
      "inputs": [
        {
          "internalType": "bytes32",
          "name": "role",
          "type": "bytes32"
        },
        {
          "internalType": "address",
          "name": "account",
          "type": "address"
        }
      ],
      "name": "grantRole",
      "outputs": [],
      "stateMutability": "nonpayable",
      "type": "function"
    },
    {
      "inputs": [
        {
          "internalType": "bytes32",
          "name": "role",
          "type": "bytes32"
        },
        {
          "internalType": "address",
          "name": "account",
          "type": "address"
        }
      ],
      "name": "hasRole",
      "outputs": [
        {
          "internalType": "bool",
          "name": "",
          "type": "bool"
        }
      ],
      "stateMutability": "view",
      "type": "function",
      "constant": true
    },
    {
      "inputs": [
        {
          "internalType": "bytes32",
          "name": "role",
          "type": "bytes32"
        },
        {
          "internalType": "address",
          "name": "account",
          "type": "address"
        }
      ],
      "name": "renounceRole",
      "outputs": [],
      "stateMutability": "nonpayable",
      "type": "function"
    },
    {
      "inputs": [
        {
          "internalType": "bytes32",
          "name": "role",
          "type": "bytes32"
        },
        {
          "internalType": "address",
          "name": "account",
          "type": "address"
        }
      ],
      "name": "revokeRole",
      "outputs": [],
      "stateMutability": "nonpayable",
      "type": "function"
    },
    {
      "inputs": [
        {
          "internalType": "bytes4",
          "name": "interfaceId",
          "type": "bytes4"
        }
      ],
      "name": "supportsInterface",
      "outputs": [
        {
          "internalType": "bool",
          "name": "",
          "type": "bool"
        }
      ],
      "stateMutability": "view",
      "type": "function",
      "constant": true
    },
    {
      "inputs": [
        {
          "internalType": "address",
          "name": "_adminacc",
          "type": "address"
        }
      ],
      "name": "addOfficial",
      "outputs": [],
      "stateMutability": "nonpayable",
      "type": "function"
    },
    {
      "inputs": [
        {
          "internalType": "address",
          "name": "user",
          "type": "address"
        }
      ],
      "name": "canAccessResource",
      "outputs": [
        {
          "internalType": "bool",
          "name": "",
          "type": "bool"
        }
      ],
      "stateMutability": "view",
      "type": "function",
      "constant": true
    },
    {
      "inputs": [
        {
          "internalType": "address",
          "name": "_addressvar",
          "type": "address"
        }
      ],
      "name": "farmerRegistration",
      "outputs": [],
      "stateMutability": "nonpayable",
      "type": "function"
    },
    {
      "inputs": [
        {
          "internalType": "string",
          "name": "_name",
          "type": "string"
        },
        {
          "internalType": "string",
          "name": "_pincode",
          "type": "string"
        },
        {
          "internalType": "uint256",
          "name": "quantity",
          "type": "uint256"
        },
        {
          "internalType": "string",
          "name": "_unit",
          "type": "string"
        },
        {
          "internalType": "string",
          "name": "_img",
          "type": "string"
        },
        {
          "internalType": "string",
          "name": "_district",
          "type": "string"
        },
        {
          "internalType": "string",
          "name": "_state",
          "type": "string"
        }
      ],
      "name": "addProduct",
      "outputs": [],
      "stateMutability": "nonpayable",
      "type": "function"
    },
    {
      "inputs": [
        {
          "internalType": "address",
          "name": "_addressvar",
          "type": "address"
        }
      ],
      "name": "getFarmerProducts",
      "outputs": [
        {
          "components": [
            {
              "internalType": "string",
              "name": "name",
              "type": "string"
            },
            {
              "internalType": "uint256",
              "name": "quantity",
              "type": "uint256"
            },
            {
              "internalType": "string",
              "name": "unit",
              "type": "string"
            },
            {
              "internalType": "string",
              "name": "image",
              "type": "string"
            },
            {
              "internalType": "string",
              "name": "district",
              "type": "string"
            },
            {
              "internalType": "string",
              "name": "state",
              "type": "string"
            },
            {
              "internalType": "bool",
              "name": "sold",
              "type": "bool"
            },
            {
              "internalType": "string",
              "name": "pincode",
              "type": "string"
            }
          ],
          "internalType": "struct FarmerContract.productDetails[]",
          "name": "",
          "type": "tuple[]"
        }
      ],
      "stateMutability": "view",
      "type": "function",
      "constant": true
    },
    {
      "inputs": [
        {
          "internalType": "address",
          "name": "_farmer",
          "type": "address"
        }
      ],
      "name": "grantRoleToFarmer",
      "outputs": [],
      "stateMutability": "nonpayable",
      "type": "function"
    },
    {
      "inputs": [],
      "name": "getFarmers",
      "outputs": [
        {
          "internalType": "address[]",
          "name": "",
          "type": "address[]"
        }
      ],
      "stateMutability": "view",
      "type": "function",
      "constant": true
    },
    {
      "inputs": [],
      "name": "getFarmersRequests",
      "outputs": [
        {
          "internalType": "address[]",
          "name": "",
          "type": "address[]"
        }
      ],
      "stateMutability": "view",
      "type": "function",
      "constant": true
    }
  ],
  "bytecode": "0x6080604052620000196000801b336200009260201b60201c565b6200004b7fa49807205ce4d355092ef5a8a18f56e8913cf4a201fbe287825b095693c21775336200009260201b60201c565b33600160006101000a81548173ffffffffffffffffffffffffffffffffffffffff021916908373ffffffffffffffffffffffffffffffffffffffff160217905550620001f5565b620000a482826200018360201b60201c565b6200017f57600160008084815260200190815260200160002060000160008373ffffffffffffffffffffffffffffffffffffffff1673ffffffffffffffffffffffffffffffffffffffff16815260200190815260200160002060006101000a81548160ff02191690831515021790555062000124620001ed60201b60201c565b73ffffffffffffffffffffffffffffffffffffffff168173ffffffffffffffffffffffffffffffffffffffff16837f2f8788117e7eff1d82e926ec794901d17c78024a50270940304540a733656f0d60405160405180910390a45b5050565b600080600084815260200190815260200160002060000160008373ffffffffffffffffffffffffffffffffffffffff1673ffffffffffffffffffffffffffffffffffffffff16815260200190815260200160002060009054906101000a900460ff16905092915050565b600033905090565b612a9780620002056000396000f3fe608060405234801561001057600080fd5b50600436106101375760003560e01c8063789f8d40116100b8578063bd45b3971161007c578063bd45b39714610372578063d547741f14610390578063d9a94c60146103ac578063f3943970146103ca578063f42a83d4146103e8578063fece87721461040457610137565b8063789f8d40146102ba57806391d14854146102d8578063a217fddf14610308578063ac840db014610326578063b9cc16141461034257610137565b806336ef11b0116100ff57806336ef11b014610204578063456154f51461023457806369a4d569146102505780636e91ef811461028057806375b238fc1461029c57610137565b806301ffc9a71461013c5780630a5cf0421461016c578063248a9ca31461019c5780632f2ff15d146101cc57806336568abe146101e8575b600080fd5b61015660048036038101906101519190611a45565b61043b565b6040516101639190611a8d565b60405180910390f35b61018660048036038101906101819190611b06565b6104b5565b6040516101939190611d80565b60405180910390f35b6101b660048036038101906101b19190611dd8565b6108e5565b6040516101c39190611e14565b60405180910390f35b6101e660048036038101906101e19190611e2f565b610904565b005b61020260048036038101906101fd9190611e2f565b610925565b005b61021e60048036038101906102199190611b06565b6109a8565b60405161022b9190611a8d565b60405180910390f35b61024e60048036038101906102499190611b06565b610a06565b005b61026a60048036038101906102659190611e9b565b610c4e565b6040516102779190611ed7565b60405180910390f35b61029a60048036038101906102959190611b06565b610c8d565b005b6102a4610d0b565b6040516102b19190611e14565b60405180910390f35b6102c2610d2f565b6040516102cf9190611fb0565b60405180910390f35b6102f260048036038101906102ed9190611e2f565b610dbd565b6040516102ff9190611a8d565b60405180910390f35b610310610e27565b60405161031d9190611e14565b60405180910390f35b610340600480360381019061033b9190611b06565b610e2e565b005b61035c60048036038101906103579190611e9b565b610e86565b6040516103699190611ed7565b60405180910390f35b61037a610ec5565b6040516103879190611fe1565b60405180910390f35b6103aa60048036038101906103a59190611e2f565b610ecb565b005b6103b4610eec565b6040516103c19190611fb0565b60405180910390f35b6103d2610f7a565b6040516103df9190611e14565b60405180910390f35b61040260048036038101906103fd9190612131565b610f9e565b005b61041e6004803603810190610419919061227b565b611102565b604051610432989796959493929190612305565b60405180910390f35b60007f7965db0b000000000000000000000000000000000000000000000000000000007bffffffffffffffffffffffffffffffffffffffffffffffffffffffff1916827bffffffffffffffffffffffffffffffffffffffffffffffffffffffff191614806104ae57506104ad826114a4565b5b9050919050565b6060600260008373ffffffffffffffffffffffffffffffffffffffff1673ffffffffffffffffffffffffffffffffffffffff168152602001908152602001600020805480602002602001604051908101604052809291908181526020016000905b828210156108da57838290600052602060002090600802016040518061010001604052908160008201805461054a906123dc565b80601f0160208091040260200160405190810160405280929190818152602001828054610576906123dc565b80156105c35780601f10610598576101008083540402835291602001916105c3565b820191906000526020600020905b8154815290600101906020018083116105a657829003601f168201915b50505050508152602001600182015481526020016002820180546105e6906123dc565b80601f0160208091040260200160405190810160405280929190818152602001828054610612906123dc565b801561065f5780601f106106345761010080835404028352916020019161065f565b820191906000526020600020905b81548152906001019060200180831161064257829003601f168201915b50505050508152602001600382018054610678906123dc565b80601f01602080910402602001604051908101604052809291908181526020018280546106a4906123dc565b80156106f15780601f106106c6576101008083540402835291602001916106f1565b820191906000526020600020905b8154815290600101906020018083116106d457829003601f168201915b5050505050815260200160048201805461070a906123dc565b80601f0160208091040260200160405190810160405280929190818152602001828054610736906123dc565b80156107835780601f1061075857610100808354040283529160200191610783565b820191906000526020600020905b81548152906001019060200180831161076657829003601f168201915b5050505050815260200160058201805461079c906123dc565b80601f01602080910402602001604051908101604052809291908181526020018280546107c8906123dc565b80156108155780601f106107ea57610100808354040283529160200191610815565b820191906000526020600020905b8154815290600101906020018083116107f857829003601f168201915b505050505081526020016006820160009054906101000a900460ff16151515158152602001600782018054610849906123dc565b80601f0160208091040260200160405190810160405280929190818152602001828054610875906123dc565b80156108c25780601f10610897576101008083540402835291602001916108c2565b820191906000526020600020905b8154815290600101906020018083116108a557829003601f168201915b50505050508152505081526020019060010190610516565b505050509050919050565b6000806000838152602001908152602001600020600101549050919050565b61090d826108e5565b6109168161150e565b6109208383611522565b505050565b61092d611602565b73ffffffffffffffffffffffffffffffffffffffff168173ffffffffffffffffffffffffffffffffffffffff161461099a576040517f08c379a00000000000000000000000000000000000000000000000000000000081526004016109919061247f565b60405180910390fd5b6109a4828261160a565b5050565b60007fa49807205ce4d355092ef5a8a18f56e8913cf4a201fbe287825b095693c217756109d48161150e565b6109fe7fa49807205ce4d355092ef5a8a18f56e8913cf4a201fbe287825b095693c2177584610dbd565b915050919050565b7fa49807205ce4d355092ef5a8a18f56e8913cf4a201fbe287825b095693c21775610a308161150e565b60005b600580549050811015610bbc578273ffffffffffffffffffffffffffffffffffffffff1660058281548110610a6b57610a6a61249f565b5b9060005260206000200160009054906101000a900473ffffffffffffffffffffffffffffffffffffffff1673ffffffffffffffffffffffffffffffffffffffff1603610ba95760056001600580549050610ac591906124fd565b81548110610ad657610ad561249f565b5b9060005260206000200160009054906101000a900473ffffffffffffffffffffffffffffffffffffffff1660058281548110610b1557610b1461249f565b5b9060005260206000200160006101000a81548173ffffffffffffffffffffffffffffffffffffffff021916908373ffffffffffffffffffffffffffffffffffffffff1602179055506005805480610b6f57610b6e612531565b5b6001900381819060005260206000200160006101000a81549073ffffffffffffffffffffffffffffffffffffffff02191690559055610bbc565b8080610bb490612560565b915050610a33565b50610be77f7c6181838a71a779e445600d4c6ecbe16bacf2b3c5bda69c29fada66d1b645d183610904565b6003829080600181540180825580915050600190039060005260206000200160009091909190916101000a81548173ffffffffffffffffffffffffffffffffffffffff021916908373ffffffffffffffffffffffffffffffffffffffff1602179055505050565b60058181548110610c5e57600080fd5b906000526020600020016000915054906101000a900473ffffffffffffffffffffffffffffffffffffffff1681565b60046000815480929190610ca090612560565b91905055506005819080600181540180825580915050600190039060005260206000200160009091909190916101000a81548173ffffffffffffffffffffffffffffffffffffffff021916908373ffffffffffffffffffffffffffffffffffffffff16021790555050565b7fa49807205ce4d355092ef5a8a18f56e8913cf4a201fbe287825b095693c2177581565b60606003805480602002602001604051908101604052809291908181526020018280548015610db357602002820191906000526020600020905b8160009054906101000a900473ffffffffffffffffffffffffffffffffffffffff1673ffffffffffffffffffffffffffffffffffffffff1681526020019060010190808311610d69575b5050505050905090565b600080600084815260200190815260200160002060000160008373ffffffffffffffffffffffffffffffffffffffff1673ffffffffffffffffffffffffffffffffffffffff16815260200190815260200160002060009054906101000a900460ff16905092915050565b6000801b81565b7fa49807205ce4d355092ef5a8a18f56e8913cf4a201fbe287825b095693c21775610e588161150e565b610e827fa49807205ce4d355092ef5a8a18f56e8913cf4a201fbe287825b095693c2177583610904565b5050565b60038181548110610e9657600080fd5b906000526020600020016000915054906101000a900473ffffffffffffffffffffffffffffffffffffffff1681565b60045481565b610ed4826108e5565b610edd8161150e565b610ee7838361160a565b505050565b60606005805480602002602001604051908101604052809291908181526020018280548015610f7057602002820191906000526020600020905b8160009054906101000a900473ffffffffffffffffffffffffffffffffffffffff1673ffffffffffffffffffffffffffffffffffffffff1681526020019060010190808311610f26575b5050505050905090565b7f7c6181838a71a779e445600d4c6ecbe16bacf2b3c5bda69c29fada66d1b645d181565b6000604051806101000160405280898152602001878152602001868152602001858152602001848152602001838152602001600015158152602001888152509050600260003373ffffffffffffffffffffffffffffffffffffffff1673ffffffffffffffffffffffffffffffffffffffff168152602001908152602001600020819080600181540180825580915050600190039060005260206000209060080201600090919091909150600082015181600001908161105d9190612754565b5060208201518160010155604082015181600201908161107d9190612754565b5060608201518160030190816110939190612754565b5060808201518160040190816110a99190612754565b5060a08201518160050190816110bf9190612754565b5060c08201518160060160006101000a81548160ff02191690831515021790555060e08201518160070190816110f59190612754565b5050505050505050505050565b6002602052816000526040600020818154811061111e57600080fd5b906000526020600020906008020160009150915050806000018054611142906123dc565b80601f016020809104026020016040519081016040528092919081815260200182805461116e906123dc565b80156111bb5780601f10611190576101008083540402835291602001916111bb565b820191906000526020600020905b81548152906001019060200180831161119e57829003601f168201915b5050505050908060010154908060020180546111d6906123dc565b80601f0160208091040260200160405190810160405280929190818152602001828054611202906123dc565b801561124f5780601f106112245761010080835404028352916020019161124f565b820191906000526020600020905b81548152906001019060200180831161123257829003601f168201915b505050505090806003018054611264906123dc565b80601f0160208091040260200160405190810160405280929190818152602001828054611290906123dc565b80156112dd5780601f106112b2576101008083540402835291602001916112dd565b820191906000526020600020905b8154815290600101906020018083116112c057829003601f168201915b5050505050908060040180546112f2906123dc565b80601f016020809104026020016040519081016040528092919081815260200182805461131e906123dc565b801561136b5780601f106113405761010080835404028352916020019161136b565b820191906000526020600020905b81548152906001019060200180831161134e57829003601f168201915b505050505090806005018054611380906123dc565b80601f01602080910402602001604051908101604052809291908181526020018280546113ac906123dc565b80156113f95780601f106113ce576101008083540402835291602001916113f9565b820191906000526020600020905b8154815290600101906020018083116113dc57829003601f168201915b5050505050908060060160009054906101000a900460ff1690806007018054611421906123dc565b80601f016020809104026020016040519081016040528092919081815260200182805461144d906123dc565b801561149a5780601f1061146f5761010080835404028352916020019161149a565b820191906000526020600020905b81548152906001019060200180831161147d57829003601f168201915b5050505050905088565b60007f01ffc9a7000000000000000000000000000000000000000000000000000000007bffffffffffffffffffffffffffffffffffffffffffffffffffffffff1916827bffffffffffffffffffffffffffffffffffffffffffffffffffffffff1916149050919050565b61151f8161151a611602565b6116eb565b50565b61152c8282610dbd565b6115fe57600160008084815260200190815260200160002060000160008373ffffffffffffffffffffffffffffffffffffffff1673ffffffffffffffffffffffffffffffffffffffff16815260200190815260200160002060006101000a81548160ff0219169083151502179055506115a3611602565b73ffffffffffffffffffffffffffffffffffffffff168173ffffffffffffffffffffffffffffffffffffffff16837f2f8788117e7eff1d82e926ec794901d17c78024a50270940304540a733656f0d60405160405180910390a45b5050565b600033905090565b6116148282610dbd565b156116e757600080600084815260200190815260200160002060000160008373ffffffffffffffffffffffffffffffffffffffff1673ffffffffffffffffffffffffffffffffffffffff16815260200190815260200160002060006101000a81548160ff02191690831515021790555061168c611602565b73ffffffffffffffffffffffffffffffffffffffff168173ffffffffffffffffffffffffffffffffffffffff16837ff6391f5c32d9c69d2a47ea670b442974b53935d1edc7fd64eb21e047a839171b60405160405180910390a45b5050565b6116f58282610dbd565b61176c5761170281611770565b6117108360001c602061179d565b6040516020016117219291906128fa565b6040516020818303038152906040526040517f08c379a00000000000000000000000000000000000000000000000000000000081526004016117639190612934565b60405180910390fd5b5050565b60606117968273ffffffffffffffffffffffffffffffffffffffff16601460ff1661179d565b9050919050565b6060600060028360026117b09190612956565b6117ba9190612998565b67ffffffffffffffff8111156117d3576117d2612006565b5b6040519080825280601f01601f1916602001820160405280156118055781602001600182028036833780820191505090505b5090507f30000000000000000000000000000000000000000000000000000000000000008160008151811061183d5761183c61249f565b5b60200101907effffffffffffffffffffffffffffffffffffffffffffffffffffffffffffff1916908160001a9053507f7800000000000000000000000000000000000000000000000000000000000000816001815181106118a1576118a061249f565b5b60200101907effffffffffffffffffffffffffffffffffffffffffffffffffffffffffffff1916908160001a905350600060018460026118e19190612956565b6118eb9190612998565b90505b600181111561198b577f3031323334353637383961626364656600000000000000000000000000000000600f86166010811061192d5761192c61249f565b5b1a60f81b8282815181106119445761194361249f565b5b60200101907effffffffffffffffffffffffffffffffffffffffffffffffffffffffffffff1916908160001a905350600485901c945080611984906129cc565b90506118ee565b50600084146119cf576040517f08c379a00000000000000000000000000000000000000000000000000000000081526004016119c690612a41565b60405180910390fd5b8091505092915050565b6000604051905090565b600080fd5b600080fd5b60007fffffffff0000000000000000000000000000000000000000000000000000000082169050919050565b611a22816119ed565b8114611a2d57600080fd5b50565b600081359050611a3f81611a19565b92915050565b600060208284031215611a5b57611a5a6119e3565b5b6000611a6984828501611a30565b91505092915050565b60008115159050919050565b611a8781611a72565b82525050565b6000602082019050611aa26000830184611a7e565b92915050565b600073ffffffffffffffffffffffffffffffffffffffff82169050919050565b6000611ad382611aa8565b9050919050565b611ae381611ac8565b8114611aee57600080fd5b50565b600081359050611b0081611ada565b92915050565b600060208284031215611b1c57611b1b6119e3565b5b6000611b2a84828501611af1565b91505092915050565b600081519050919050565b600082825260208201905092915050565b6000819050602082019050919050565b600081519050919050565b600082825260208201905092915050565b60005b83811015611b99578082015181840152602081019050611b7e565b60008484015250505050565b6000601f19601f8301169050919050565b6000611bc182611b5f565b611bcb8185611b6a565b9350611bdb818560208601611b7b565b611be481611ba5565b840191505092915050565b6000819050919050565b611c0281611bef565b82525050565b611c1181611a72565b82525050565b6000610100830160008301518482036000860152611c358282611bb6565b9150506020830151611c4a6020860182611bf9565b5060408301518482036040860152611c628282611bb6565b91505060608301518482036060860152611c7c8282611bb6565b91505060808301518482036080860152611c968282611bb6565b91505060a083015184820360a0860152611cb08282611bb6565b91505060c0830151611cc560c0860182611c08565b5060e083015184820360e0860152611cdd8282611bb6565b9150508091505092915050565b6000611cf68383611c17565b905092915050565b6000602082019050919050565b6000611d1682611b33565b611d208185611b3e565b935083602082028501611d3285611b4f565b8060005b85811015611d6e5784840389528151611d4f8582611cea565b9450611d5a83611cfe565b925060208a01995050600181019050611d36565b50829750879550505050505092915050565b60006020820190508181036000830152611d9a8184611d0b565b905092915050565b6000819050919050565b611db581611da2565b8114611dc057600080fd5b50565b600081359050611dd281611dac565b92915050565b600060208284031215611dee57611ded6119e3565b5b6000611dfc84828501611dc3565b91505092915050565b611e0e81611da2565b82525050565b6000602082019050611e296000830184611e05565b92915050565b60008060408385031215611e4657611e456119e3565b5b6000611e5485828601611dc3565b9250506020611e6585828601611af1565b9150509250929050565b611e7881611bef565b8114611e8357600080fd5b50565b600081359050611e9581611e6f565b92915050565b600060208284031215611eb157611eb06119e3565b5b6000611ebf84828501611e86565b91505092915050565b611ed181611ac8565b82525050565b6000602082019050611eec6000830184611ec8565b92915050565b600081519050919050565b600082825260208201905092915050565b6000819050602082019050919050565b611f2781611ac8565b82525050565b6000611f398383611f1e565b60208301905092915050565b6000602082019050919050565b6000611f5d82611ef2565b611f678185611efd565b9350611f7283611f0e565b8060005b83811015611fa3578151611f8a8882611f2d565b9750611f9583611f45565b925050600181019050611f76565b5085935050505092915050565b60006020820190508181036000830152611fca8184611f52565b905092915050565b611fdb81611bef565b82525050565b6000602082019050611ff66000830184611fd2565b92915050565b600080fd5b600080fd5b7f4e487b7100000000000000000000000000000000000000000000000000000000600052604160045260246000fd5b61203e82611ba5565b810181811067ffffffffffffffff8211171561205d5761205c612006565b5b80604052505050565b60006120706119d9565b905061207c8282612035565b919050565b600067ffffffffffffffff82111561209c5761209b612006565b5b6120a582611ba5565b9050602081019050919050565b82818337600083830152505050565b60006120d46120cf84612081565b612066565b9050828152602081018484840111156120f0576120ef612001565b5b6120fb8482856120b2565b509392505050565b600082601f83011261211857612117611ffc565b5b81356121288482602086016120c1565b91505092915050565b600080600080600080600060e0888a0312156121505761214f6119e3565b5b600088013567ffffffffffffffff81111561216e5761216d6119e8565b5b61217a8a828b01612103565b975050602088013567ffffffffffffffff81111561219b5761219a6119e8565b5b6121a78a828b01612103565b96505060406121b88a828b01611e86565b955050606088013567ffffffffffffffff8111156121d9576121d86119e8565b5b6121e58a828b01612103565b945050608088013567ffffffffffffffff811115612206576122056119e8565b5b6122128a828b01612103565b93505060a088013567ffffffffffffffff811115612233576122326119e8565b5b61223f8a828b01612103565b92505060c088013567ffffffffffffffff8111156122605761225f6119e8565b5b61226c8a828b01612103565b91505092959891949750929550565b60008060408385031215612292576122916119e3565b5b60006122a085828601611af1565b92505060206122b185828601611e86565b9150509250929050565b600082825260208201905092915050565b60006122d782611b5f565b6122e181856122bb565b93506122f1818560208601611b7b565b6122fa81611ba5565b840191505092915050565b6000610100820190508181036000830152612320818b6122cc565b905061232f602083018a611fd2565b818103604083015261234181896122cc565b9050818103606083015261235581886122cc565b9050818103608083015261236981876122cc565b905081810360a083015261237d81866122cc565b905061238c60c0830185611a7e565b81810360e083015261239e81846122cc565b90509998505050505050505050565b7f4e487b7100000000000000000000000000000000000000000000000000000000600052602260045260246000fd5b600060028204905060018216806123f457607f821691505b602082108103612407576124066123ad565b5b50919050565b7f416363657373436f6e74726f6c3a2063616e206f6e6c792072656e6f756e636560008201527f20726f6c657320666f722073656c660000000000000000000000000000000000602082015250565b6000612469602f836122bb565b91506124748261240d565b604082019050919050565b600060208201905081810360008301526124988161245c565b9050919050565b7f4e487b7100000000000000000000000000000000000000000000000000000000600052603260045260246000fd5b7f4e487b7100000000000000000000000000000000000000000000000000000000600052601160045260246000fd5b600061250882611bef565b915061251383611bef565b925082820390508181111561252b5761252a6124ce565b5b92915050565b7f4e487b7100000000000000000000000000000000000000000000000000000000600052603160045260246000fd5b600061256b82611bef565b91507fffffffffffffffffffffffffffffffffffffffffffffffffffffffffffffffff820361259d5761259c6124ce565b5b600182019050919050565b60008190508160005260206000209050919050565b60006020601f8301049050919050565b600082821b905092915050565b60006008830261260a7fffffffffffffffffffffffffffffffffffffffffffffffffffffffffffffffff826125cd565b61261486836125cd565b95508019841693508086168417925050509392505050565b6000819050919050565b600061265161264c61264784611bef565b61262c565b611bef565b9050919050565b6000819050919050565b61266b83612636565b61267f61267782612658565b8484546125da565b825550505050565b600090565b612694612687565b61269f818484612662565b505050565b5b818110156126c3576126b860008261268c565b6001810190506126a5565b5050565b601f821115612708576126d9816125a8565b6126e2846125bd565b810160208510156126f1578190505b6127056126fd856125bd565b8301826126a4565b50505b505050565b600082821c905092915050565b600061272b6000198460080261270d565b1980831691505092915050565b6000612744838361271a565b9150826002028217905092915050565b61275d82611b5f565b67ffffffffffffffff81111561277657612775612006565b5b61278082546123dc565b61278b8282856126c7565b600060209050601f8311600181146127be57600084156127ac578287015190505b6127b68582612738565b86555061281e565b601f1984166127cc866125a8565b60005b828110156127f4578489015182556001820191506020850194506020810190506127cf565b86831015612811578489015161280d601f89168261271a565b8355505b6001600288020188555050505b505050505050565b600081905092915050565b7f416363657373436f6e74726f6c3a206163636f756e7420000000000000000000600082015250565b6000612867601783612826565b915061287282612831565b601782019050919050565b600061288882611b5f565b6128928185612826565b93506128a2818560208601611b7b565b80840191505092915050565b7f206973206d697373696e6720726f6c6520000000000000000000000000000000600082015250565b60006128e4601183612826565b91506128ef826128ae565b601182019050919050565b60006129058261285a565b9150612911828561287d565b915061291c826128d7565b9150612928828461287d565b91508190509392505050565b6000602082019050818103600083015261294e81846122cc565b905092915050565b600061296182611bef565b915061296c83611bef565b925082820261297a81611bef565b91508282048414831517612991576129906124ce565b5b5092915050565b60006129a382611bef565b91506129ae83611bef565b92508282019050808211156129c6576129c56124ce565b5b92915050565b60006129d782611bef565b9150600082036129ea576129e96124ce565b5b600182039050919050565b7f537472696e67733a20686578206c656e67746820696e73756666696369656e74600082015250565b6000612a2b6020836122bb565b9150612a36826129f5565b602082019050919050565b60006020820190508181036000830152612a5a81612a1e565b905091905056fea2646970667358221220654be9756d99ac695dedf08ef716213c0112307e6a229658463cdad2d5aec91364736f6c63430008130033",
  "immutableReferences": {},
  "source": "// SPDX-License-Identifier: GPL-3.0\r\n\r\npragma solidity 0.8.19;\r\nimport \"@openzeppelin/contracts/access/AccessControl.sol\";\r\n\r\ncontract FarmerContract is AccessControl{\r\n    bytes32 public constant ADMIN_ROLE = keccak256(\"ADMIN_ROLE\");\r\n    bytes32 public constant FARMER_ROLE = keccak256(\"FARMER_ROLE\");\r\n    address owner;\r\n    // MyContract myContract = new MyContract();\r\n    constructor() payable {\r\n        _grantRole(DEFAULT_ADMIN_ROLE, msg.sender); // Set the contract deployer as the default admin\r\n        _grantRole(ADMIN_ROLE, msg.sender);\r\n        owner = msg.sender;\r\n    }\r\n\r\n    struct productDetails {\r\n        string name ;\r\n        uint256 quantity ;\r\n        string unit;\r\n        string image;\r\n        string district;\r\n        string state;\r\n        bool sold ;\r\n        string pincode ;\r\n    }\r\n    mapping(address => productDetails[]) public farmerProducts;\r\n    address[] public farmerAddresses; //All farmers\r\n    uint256 public farmerCount;\r\n    address[] public farmerRequests;\r\n    function addOfficial(address _adminacc) public onlyRole(ADMIN_ROLE){\r\n        grantRole(ADMIN_ROLE, _adminacc);\r\n    }\r\n    \r\n    function canAccessResource(address user) public view onlyRole(ADMIN_ROLE) returns (bool) {\r\n        return hasRole(ADMIN_ROLE, user);\r\n    }\r\n\r\n    function farmerRegistration(\r\n        address _addressvar\r\n    ) public {\r\n        farmerCount++;\r\n        farmerRequests.push(_addressvar);\r\n    }\r\n\r\n    function addProduct( string memory _name ,string memory _pincode , uint256 quantity , string memory _unit , string memory _img , string memory _district,string memory _state) public{\r\n        productDetails  memory newProduct = productDetails({\r\n            name : _name,\r\n            pincode : _pincode,\r\n            quantity : quantity,\r\n            unit : _unit ,\r\n            image : _img ,\r\n            district  : _district,\r\n            state : _state,\r\n            sold : false\r\n        });\r\n            farmerProducts[msg.sender].push(newProduct);    \r\n        }\r\n    function getFarmerProducts(address _addressvar) public view returns(productDetails[] memory){\r\n        return farmerProducts[_addressvar];\r\n    }\r\n    function grantRoleToFarmer(address _farmer) public onlyRole(ADMIN_ROLE) {\r\n\r\n    // Remove the address from the farmerRequests array.\r\n    for (uint256 i = 0; i < farmerRequests.length; i++) {\r\n        if (farmerRequests[i] == _farmer) {\r\n            farmerRequests[i] = farmerRequests[farmerRequests.length - 1]; //swap the one at the very end with the i'th\r\n            farmerRequests.pop();\r\n            break;\r\n        }\r\n    }\r\n\r\n    // Grant the FARMER_ROLE to the address.\r\n    grantRole(FARMER_ROLE, _farmer);\r\n\r\n    // Add the address to the farmerAddresses array.\r\n    farmerAddresses.push(_farmer);\r\n    }\r\n\r\n    function getFarmers() public view returns (address[] memory) {\r\n        return farmerAddresses;\r\n    }\r\n\r\n    function getFarmersRequests() public view returns (address[] memory) {\r\n        return farmerRequests;\r\n    }\r\n}",
  "sourcePath": "C:\\Users\\USER\\Documents\\vscode\\PDS_Security\\contracts\\FarmerContract.sol",
  "compiler": {
    "name": "solc",
    "version": "0.8.19+commit.7dd6d404.Emscripten.clang"
  },
  "schemaVersion": "3.4.13",
  "updatedAt": "2024-01-24T09:17:59.729Z",
  "networkType": "ethereum",
  "devdoc": {
    "events": {
      "RoleAdminChanged(bytes32,bytes32,bytes32)": {
        "details": "Emitted when `newAdminRole` is set as ``role``'s admin role, replacing `previousAdminRole` `DEFAULT_ADMIN_ROLE` is the starting admin for all roles, despite {RoleAdminChanged} not being emitted signaling this. _Available since v3.1._"
      },
      "RoleGranted(bytes32,address,address)": {
        "details": "Emitted when `account` is granted `role`. `sender` is the account that originated the contract call, an admin role bearer except when using {AccessControl-_setupRole}."
      },
      "RoleRevoked(bytes32,address,address)": {
        "details": "Emitted when `account` is revoked `role`. `sender` is the account that originated the contract call:   - if using `revokeRole`, it is the admin role bearer   - if using `renounceRole`, it is the role bearer (i.e. `account`)"
      }
    },
    "kind": "dev",
    "methods": {
      "getRoleAdmin(bytes32)": {
        "details": "Returns the admin role that controls `role`. See {grantRole} and {revokeRole}. To change a role's admin, use {_setRoleAdmin}."
      },
      "grantRole(bytes32,address)": {
        "details": "Grants `role` to `account`. If `account` had not been already granted `role`, emits a {RoleGranted} event. Requirements: - the caller must have ``role``'s admin role. May emit a {RoleGranted} event."
      },
      "hasRole(bytes32,address)": {
        "details": "Returns `true` if `account` has been granted `role`."
      },
      "renounceRole(bytes32,address)": {
        "details": "Revokes `role` from the calling account. Roles are often managed via {grantRole} and {revokeRole}: this function's purpose is to provide a mechanism for accounts to lose their privileges if they are compromised (such as when a trusted device is misplaced). If the calling account had been revoked `role`, emits a {RoleRevoked} event. Requirements: - the caller must be `account`. May emit a {RoleRevoked} event."
      },
      "revokeRole(bytes32,address)": {
        "details": "Revokes `role` from `account`. If `account` had been granted `role`, emits a {RoleRevoked} event. Requirements: - the caller must have ``role``'s admin role. May emit a {RoleRevoked} event."
      },
      "supportsInterface(bytes4)": {
        "details": "See {IERC165-supportsInterface}."
      }
    },
    "version": 1
  },
  "userdoc": {
    "kind": "user",
    "methods": {},
    "version": 1
  }
}