{
  "contractName": "FarmerContract",
  "abi": [
    {
      "inputs": [],
      "stateMutability": "payable",
      "type": "constructor",
      "payable": true
    },
    {
      "anonymous": false,
      "inputs": [
        {
          "indexed": true,
          "internalType": "bytes32",
          "name": "role",
          "type": "bytes32"
        },
        {
          "indexed": true,
          "internalType": "bytes32",
          "name": "previousAdminRole",
          "type": "bytes32"
        },
        {
          "indexed": true,
          "internalType": "bytes32",
          "name": "newAdminRole",
          "type": "bytes32"
        }
      ],
      "name": "RoleAdminChanged",
      "type": "event"
    },
    {
      "anonymous": false,
      "inputs": [
        {
          "indexed": true,
          "internalType": "bytes32",
          "name": "role",
          "type": "bytes32"
        },
        {
          "indexed": true,
          "internalType": "address",
          "name": "account",
          "type": "address"
        },
        {
          "indexed": true,
          "internalType": "address",
          "name": "sender",
          "type": "address"
        }
      ],
      "name": "RoleGranted",
      "type": "event"
    },
    {
      "anonymous": false,
      "inputs": [
        {
          "indexed": true,
          "internalType": "bytes32",
          "name": "role",
          "type": "bytes32"
        },
        {
          "indexed": true,
          "internalType": "address",
          "name": "account",
          "type": "address"
        },
        {
          "indexed": true,
          "internalType": "address",
          "name": "sender",
          "type": "address"
        }
      ],
      "name": "RoleRevoked",
      "type": "event"
    },
    {
      "inputs": [],
      "name": "ADMIN_ROLE",
      "outputs": [
        {
          "internalType": "bytes32",
          "name": "",
          "type": "bytes32"
        }
      ],
      "stateMutability": "view",
      "type": "function",
      "constant": true
    },
    {
      "inputs": [],
      "name": "DEFAULT_ADMIN_ROLE",
      "outputs": [
        {
          "internalType": "bytes32",
          "name": "",
          "type": "bytes32"
        }
      ],
      "stateMutability": "view",
      "type": "function",
      "constant": true
    },
    {
      "inputs": [],
      "name": "FARMER_ROLE",
      "outputs": [
        {
          "internalType": "bytes32",
          "name": "",
          "type": "bytes32"
        }
      ],
      "stateMutability": "view",
      "type": "function",
      "constant": true
    },
    {
      "inputs": [
        {
          "internalType": "uint256",
          "name": "",
          "type": "uint256"
        }
      ],
      "name": "farmerAddresses",
      "outputs": [
        {
          "internalType": "address",
          "name": "",
          "type": "address"
        }
      ],
      "stateMutability": "view",
      "type": "function",
      "constant": true
    },
    {
      "inputs": [],
      "name": "farmerCount",
      "outputs": [
        {
          "internalType": "uint256",
          "name": "",
          "type": "uint256"
        }
      ],
      "stateMutability": "view",
      "type": "function",
      "constant": true
    },
    {
      "inputs": [
        {
          "internalType": "uint256",
          "name": "",
          "type": "uint256"
        }
      ],
      "name": "farmerRequests",
      "outputs": [
        {
          "internalType": "address",
          "name": "",
          "type": "address"
        }
      ],
      "stateMutability": "view",
      "type": "function",
      "constant": true
    },
    {
      "inputs": [
        {
          "internalType": "bytes32",
          "name": "role",
          "type": "bytes32"
        }
      ],
      "name": "getRoleAdmin",
      "outputs": [
        {
          "internalType": "bytes32",
          "name": "",
          "type": "bytes32"
        }
      ],
      "stateMutability": "view",
      "type": "function",
      "constant": true
    },
    {
      "inputs": [
        {
          "internalType": "bytes32",
          "name": "role",
          "type": "bytes32"
        },
        {
          "internalType": "address",
          "name": "account",
          "type": "address"
        }
      ],
      "name": "grantRole",
      "outputs": [],
      "stateMutability": "nonpayable",
      "type": "function"
    },
    {
      "inputs": [
        {
          "internalType": "bytes32",
          "name": "role",
          "type": "bytes32"
        },
        {
          "internalType": "address",
          "name": "account",
          "type": "address"
        }
      ],
      "name": "hasRole",
      "outputs": [
        {
          "internalType": "bool",
          "name": "",
          "type": "bool"
        }
      ],
      "stateMutability": "view",
      "type": "function",
      "constant": true
    },
    {
      "inputs": [
        {
          "internalType": "bytes32",
          "name": "role",
          "type": "bytes32"
        },
        {
          "internalType": "address",
          "name": "account",
          "type": "address"
        }
      ],
      "name": "renounceRole",
      "outputs": [],
      "stateMutability": "nonpayable",
      "type": "function"
    },
    {
      "inputs": [
        {
          "internalType": "bytes32",
          "name": "role",
          "type": "bytes32"
        },
        {
          "internalType": "address",
          "name": "account",
          "type": "address"
        }
      ],
      "name": "revokeRole",
      "outputs": [],
      "stateMutability": "nonpayable",
      "type": "function"
    },
    {
      "inputs": [
        {
          "internalType": "bytes4",
          "name": "interfaceId",
          "type": "bytes4"
        }
      ],
      "name": "supportsInterface",
      "outputs": [
        {
          "internalType": "bool",
          "name": "",
          "type": "bool"
        }
      ],
      "stateMutability": "view",
      "type": "function",
      "constant": true
    },
    {
      "inputs": [
        {
          "internalType": "address",
          "name": "_adminacc",
          "type": "address"
        }
      ],
      "name": "addOfficial",
      "outputs": [],
      "stateMutability": "nonpayable",
      "type": "function"
    },
    {
      "inputs": [
        {
          "internalType": "address",
          "name": "user",
          "type": "address"
        }
      ],
      "name": "canAccessResource",
      "outputs": [
        {
          "internalType": "bool",
          "name": "",
          "type": "bool"
        }
      ],
      "stateMutability": "view",
      "type": "function",
      "constant": true
    },
    {
      "inputs": [
        {
          "internalType": "address",
          "name": "_address",
          "type": "address"
        }
      ],
      "name": "farmerRegistration",
      "outputs": [],
      "stateMutability": "nonpayable",
      "type": "function"
    },
    {
      "inputs": [
        {
          "internalType": "address",
          "name": "_farmer",
          "type": "address"
        }
      ],
      "name": "grantRoleToFarmer",
      "outputs": [],
      "stateMutability": "nonpayable",
      "type": "function"
    },
    {
      "inputs": [],
      "name": "getFarmers",
      "outputs": [
        {
          "internalType": "address[]",
          "name": "",
          "type": "address[]"
        }
      ],
      "stateMutability": "view",
      "type": "function",
      "constant": true
    },
    {
      "inputs": [],
      "name": "getFarmersRequests",
      "outputs": [
        {
          "internalType": "address[]",
          "name": "",
          "type": "address[]"
        }
      ],
      "stateMutability": "view",
      "type": "function",
      "constant": true
    }
  ],
  "bytecode": "0x6080604052620000196000801b336200009260201b60201c565b6200004b7fa49807205ce4d355092ef5a8a18f56e8913cf4a201fbe287825b095693c21775336200009260201b60201c565b33600160006101000a81548173ffffffffffffffffffffffffffffffffffffffff021916908373ffffffffffffffffffffffffffffffffffffffff160217905550620001f5565b620000a482826200018360201b60201c565b6200017f57600160008084815260200190815260200160002060000160008373ffffffffffffffffffffffffffffffffffffffff1673ffffffffffffffffffffffffffffffffffffffff16815260200190815260200160002060006101000a81548160ff02191690831515021790555062000124620001ed60201b60201c565b73ffffffffffffffffffffffffffffffffffffffff168173ffffffffffffffffffffffffffffffffffffffff16837f2f8788117e7eff1d82e926ec794901d17c78024a50270940304540a733656f0d60405160405180910390a45b5050565b600080600084815260200190815260200160002060000160008373ffffffffffffffffffffffffffffffffffffffff1673ffffffffffffffffffffffffffffffffffffffff16815260200190815260200160002060009054906101000a900460ff16905092915050565b600033905090565b61187980620002056000396000f3fe608060405234801561001057600080fd5b50600436106101165760003560e01c8063789f8d40116100a2578063b9cc161411610071578063b9cc1614146102f1578063bd45b39714610321578063d547741f1461033f578063d9a94c601461035b578063f39439701461037957610116565b8063789f8d401461026957806391d1485414610287578063a217fddf146102b7578063ac840db0146102d557610116565b806336ef11b0116100e957806336ef11b0146101b3578063456154f5146101e357806369a4d569146101ff5780636e91ef811461022f57806375b238fc1461024b57610116565b806301ffc9a71461011b578063248a9ca31461014b5780632f2ff15d1461017b57806336568abe14610197575b600080fd5b6101356004803603810190610130919061105c565b610397565b60405161014291906110a4565b60405180910390f35b610165600480360381019061016091906110f5565b610411565b6040516101729190611131565b60405180910390f35b610195600480360381019061019091906111aa565b610430565b005b6101b160048036038101906101ac91906111aa565b610451565b005b6101cd60048036038101906101c891906111ea565b6104d4565b6040516101da91906110a4565b60405180910390f35b6101fd60048036038101906101f891906111ea565b610532565b005b6102196004803603810190610214919061124d565b61077a565b6040516102269190611289565b60405180910390f35b610249600480360381019061024491906111ea565b6107b9565b005b610253610837565b6040516102609190611131565b60405180910390f35b61027161085b565b60405161027e9190611362565b60405180910390f35b6102a1600480360381019061029c91906111aa565b6108e9565b6040516102ae91906110a4565b60405180910390f35b6102bf610953565b6040516102cc9190611131565b60405180910390f35b6102ef60048036038101906102ea91906111ea565b61095a565b005b61030b6004803603810190610306919061124d565b6109b2565b6040516103189190611289565b60405180910390f35b6103296109f1565b6040516103369190611393565b60405180910390f35b610359600480360381019061035491906111aa565b6109f7565b005b610363610a18565b6040516103709190611362565b60405180910390f35b610381610aa6565b60405161038e9190611131565b60405180910390f35b60007f7965db0b000000000000000000000000000000000000000000000000000000007bffffffffffffffffffffffffffffffffffffffffffffffffffffffff1916827bffffffffffffffffffffffffffffffffffffffffffffffffffffffff1916148061040a575061040982610aca565b5b9050919050565b6000806000838152602001908152602001600020600101549050919050565b61043982610411565b61044281610b34565b61044c8383610b48565b505050565b610459610c28565b73ffffffffffffffffffffffffffffffffffffffff168173ffffffffffffffffffffffffffffffffffffffff16146104c6576040517f08c379a00000000000000000000000000000000000000000000000000000000081526004016104bd90611431565b60405180910390fd5b6104d08282610c30565b5050565b60007fa49807205ce4d355092ef5a8a18f56e8913cf4a201fbe287825b095693c2177561050081610b34565b61052a7fa49807205ce4d355092ef5a8a18f56e8913cf4a201fbe287825b095693c21775846108e9565b915050919050565b7fa49807205ce4d355092ef5a8a18f56e8913cf4a201fbe287825b095693c2177561055c81610b34565b60005b6004805490508110156106e8578273ffffffffffffffffffffffffffffffffffffffff166004828154811061059757610596611451565b5b9060005260206000200160009054906101000a900473ffffffffffffffffffffffffffffffffffffffff1673ffffffffffffffffffffffffffffffffffffffff16036106d557600460016004805490506105f191906114af565b8154811061060257610601611451565b5b9060005260206000200160009054906101000a900473ffffffffffffffffffffffffffffffffffffffff166004828154811061064157610640611451565b5b9060005260206000200160006101000a81548173ffffffffffffffffffffffffffffffffffffffff021916908373ffffffffffffffffffffffffffffffffffffffff160217905550600480548061069b5761069a6114e3565b5b6001900381819060005260206000200160006101000a81549073ffffffffffffffffffffffffffffffffffffffff021916905590556106e8565b80806106e090611512565b91505061055f565b506107137f7c6181838a71a779e445600d4c6ecbe16bacf2b3c5bda69c29fada66d1b645d183610430565b6002829080600181540180825580915050600190039060005260206000200160009091909190916101000a81548173ffffffffffffffffffffffffffffffffffffffff021916908373ffffffffffffffffffffffffffffffffffffffff1602179055505050565b6004818154811061078a57600080fd5b906000526020600020016000915054906101000a900473ffffffffffffffffffffffffffffffffffffffff1681565b600360008154809291906107cc90611512565b91905055506004819080600181540180825580915050600190039060005260206000200160009091909190916101000a81548173ffffffffffffffffffffffffffffffffffffffff021916908373ffffffffffffffffffffffffffffffffffffffff16021790555050565b7fa49807205ce4d355092ef5a8a18f56e8913cf4a201fbe287825b095693c2177581565b606060028054806020026020016040519081016040528092919081815260200182805480156108df57602002820191906000526020600020905b8160009054906101000a900473ffffffffffffffffffffffffffffffffffffffff1673ffffffffffffffffffffffffffffffffffffffff1681526020019060010190808311610895575b5050505050905090565b600080600084815260200190815260200160002060000160008373ffffffffffffffffffffffffffffffffffffffff1673ffffffffffffffffffffffffffffffffffffffff16815260200190815260200160002060009054906101000a900460ff16905092915050565b6000801b81565b7fa49807205ce4d355092ef5a8a18f56e8913cf4a201fbe287825b095693c2177561098481610b34565b6109ae7fa49807205ce4d355092ef5a8a18f56e8913cf4a201fbe287825b095693c2177583610430565b5050565b600281815481106109c257600080fd5b906000526020600020016000915054906101000a900473ffffffffffffffffffffffffffffffffffffffff1681565b60035481565b610a0082610411565b610a0981610b34565b610a138383610c30565b505050565b60606004805480602002602001604051908101604052809291908181526020018280548015610a9c57602002820191906000526020600020905b8160009054906101000a900473ffffffffffffffffffffffffffffffffffffffff1673ffffffffffffffffffffffffffffffffffffffff1681526020019060010190808311610a52575b5050505050905090565b7f7c6181838a71a779e445600d4c6ecbe16bacf2b3c5bda69c29fada66d1b645d181565b60007f01ffc9a7000000000000000000000000000000000000000000000000000000007bffffffffffffffffffffffffffffffffffffffffffffffffffffffff1916827bffffffffffffffffffffffffffffffffffffffffffffffffffffffff1916149050919050565b610b4581610b40610c28565b610d11565b50565b610b5282826108e9565b610c2457600160008084815260200190815260200160002060000160008373ffffffffffffffffffffffffffffffffffffffff1673ffffffffffffffffffffffffffffffffffffffff16815260200190815260200160002060006101000a81548160ff021916908315150217905550610bc9610c28565b73ffffffffffffffffffffffffffffffffffffffff168173ffffffffffffffffffffffffffffffffffffffff16837f2f8788117e7eff1d82e926ec794901d17c78024a50270940304540a733656f0d60405160405180910390a45b5050565b600033905090565b610c3a82826108e9565b15610d0d57600080600084815260200190815260200160002060000160008373ffffffffffffffffffffffffffffffffffffffff1673ffffffffffffffffffffffffffffffffffffffff16815260200190815260200160002060006101000a81548160ff021916908315150217905550610cb2610c28565b73ffffffffffffffffffffffffffffffffffffffff168173ffffffffffffffffffffffffffffffffffffffff16837ff6391f5c32d9c69d2a47ea670b442974b53935d1edc7fd64eb21e047a839171b60405160405180910390a45b5050565b610d1b82826108e9565b610d9257610d2881610d96565b610d368360001c6020610dc3565b604051602001610d47929190611663565b6040516020818303038152906040526040517f08c379a0000000000000000000000000000000000000000000000000000000008152600401610d8991906116e7565b60405180910390fd5b5050565b6060610dbc8273ffffffffffffffffffffffffffffffffffffffff16601460ff16610dc3565b9050919050565b606060006002836002610dd69190611709565b610de0919061174b565b67ffffffffffffffff811115610df957610df861177f565b5b6040519080825280601f01601f191660200182016040528015610e2b5781602001600182028036833780820191505090505b5090507f300000000000000000000000000000000000000000000000000000000000000081600081518110610e6357610e62611451565b5b60200101907effffffffffffffffffffffffffffffffffffffffffffffffffffffffffffff1916908160001a9053507f780000000000000000000000000000000000000000000000000000000000000081600181518110610ec757610ec6611451565b5b60200101907effffffffffffffffffffffffffffffffffffffffffffffffffffffffffffff1916908160001a90535060006001846002610f079190611709565b610f11919061174b565b90505b6001811115610fb1577f3031323334353637383961626364656600000000000000000000000000000000600f861660108110610f5357610f52611451565b5b1a60f81b828281518110610f6a57610f69611451565b5b60200101907effffffffffffffffffffffffffffffffffffffffffffffffffffffffffffff1916908160001a905350600485901c945080610faa906117ae565b9050610f14565b5060008414610ff5576040517f08c379a0000000000000000000000000000000000000000000000000000000008152600401610fec90611823565b60405180910390fd5b8091505092915050565b600080fd5b60007fffffffff0000000000000000000000000000000000000000000000000000000082169050919050565b61103981611004565b811461104457600080fd5b50565b60008135905061105681611030565b92915050565b60006020828403121561107257611071610fff565b5b600061108084828501611047565b91505092915050565b60008115159050919050565b61109e81611089565b82525050565b60006020820190506110b96000830184611095565b92915050565b6000819050919050565b6110d2816110bf565b81146110dd57600080fd5b50565b6000813590506110ef816110c9565b92915050565b60006020828403121561110b5761110a610fff565b5b6000611119848285016110e0565b91505092915050565b61112b816110bf565b82525050565b60006020820190506111466000830184611122565b92915050565b600073ffffffffffffffffffffffffffffffffffffffff82169050919050565b60006111778261114c565b9050919050565b6111878161116c565b811461119257600080fd5b50565b6000813590506111a48161117e565b92915050565b600080604083850312156111c1576111c0610fff565b5b60006111cf858286016110e0565b92505060206111e085828601611195565b9150509250929050565b600060208284031215611200576111ff610fff565b5b600061120e84828501611195565b91505092915050565b6000819050919050565b61122a81611217565b811461123557600080fd5b50565b60008135905061124781611221565b92915050565b60006020828403121561126357611262610fff565b5b600061127184828501611238565b91505092915050565b6112838161116c565b82525050565b600060208201905061129e600083018461127a565b92915050565b600081519050919050565b600082825260208201905092915050565b6000819050602082019050919050565b6112d98161116c565b82525050565b60006112eb83836112d0565b60208301905092915050565b6000602082019050919050565b600061130f826112a4565b61131981856112af565b9350611324836112c0565b8060005b8381101561135557815161133c88826112df565b9750611347836112f7565b925050600181019050611328565b5085935050505092915050565b6000602082019050818103600083015261137c8184611304565b905092915050565b61138d81611217565b82525050565b60006020820190506113a86000830184611384565b92915050565b600082825260208201905092915050565b7f416363657373436f6e74726f6c3a2063616e206f6e6c792072656e6f756e636560008201527f20726f6c657320666f722073656c660000000000000000000000000000000000602082015250565b600061141b602f836113ae565b9150611426826113bf565b604082019050919050565b6000602082019050818103600083015261144a8161140e565b9050919050565b7f4e487b7100000000000000000000000000000000000000000000000000000000600052603260045260246000fd5b7f4e487b7100000000000000000000000000000000000000000000000000000000600052601160045260246000fd5b60006114ba82611217565b91506114c583611217565b92508282039050818111156114dd576114dc611480565b5b92915050565b7f4e487b7100000000000000000000000000000000000000000000000000000000600052603160045260246000fd5b600061151d82611217565b91507fffffffffffffffffffffffffffffffffffffffffffffffffffffffffffffffff820361154f5761154e611480565b5b600182019050919050565b600081905092915050565b7f416363657373436f6e74726f6c3a206163636f756e7420000000000000000000600082015250565b600061159b60178361155a565b91506115a682611565565b601782019050919050565b600081519050919050565b60005b838110156115da5780820151818401526020810190506115bf565b60008484015250505050565b60006115f1826115b1565b6115fb818561155a565b935061160b8185602086016115bc565b80840191505092915050565b7f206973206d697373696e6720726f6c6520000000000000000000000000000000600082015250565b600061164d60118361155a565b915061165882611617565b601182019050919050565b600061166e8261158e565b915061167a82856115e6565b915061168582611640565b915061169182846115e6565b91508190509392505050565b6000601f19601f8301169050919050565b60006116b9826115b1565b6116c381856113ae565b93506116d38185602086016115bc565b6116dc8161169d565b840191505092915050565b6000602082019050818103600083015261170181846116ae565b905092915050565b600061171482611217565b915061171f83611217565b925082820261172d81611217565b9150828204841483151761174457611743611480565b5b5092915050565b600061175682611217565b915061176183611217565b925082820190508082111561177957611778611480565b5b92915050565b7f4e487b7100000000000000000000000000000000000000000000000000000000600052604160045260246000fd5b60006117b982611217565b9150600082036117cc576117cb611480565b5b600182039050919050565b7f537472696e67733a20686578206c656e67746820696e73756666696369656e74600082015250565b600061180d6020836113ae565b9150611818826117d7565b602082019050919050565b6000602082019050818103600083015261183c81611800565b905091905056fea26469706673582212203aa513e59c7e277781ef0c9e3112c0d7c38d9cacf27863295377313ab314997e64736f6c63430008130033",
  "immutableReferences": {},
  "source": "// SPDX-License-Identifier: GPL-3.0\r\n\r\npragma solidity 0.8.19;\r\nimport \"@openzeppelin/contracts/access/AccessControl.sol\";\r\n\r\ncontract FarmerContract is AccessControl{\r\n    bytes32 public constant ADMIN_ROLE = keccak256(\"ADMIN_ROLE\");\r\n    bytes32 public constant FARMER_ROLE = keccak256(\"FARMER_ROLE\");\r\n    address owner;\r\n    // MyContract myContract = new MyContract();\r\n    constructor() payable {\r\n        _grantRole(DEFAULT_ADMIN_ROLE, msg.sender); // Set the contract deployer as the default admin\r\n        _grantRole(ADMIN_ROLE, msg.sender);\r\n        owner = msg.sender;\r\n    }\r\n\r\n    address[] public farmerAddresses; //All farmers\r\n    uint256 public farmerCount;\r\n    address[] public farmerRequests;\r\n\r\n    function addOfficial(address _adminacc) public onlyRole(ADMIN_ROLE){\r\n        grantRole(ADMIN_ROLE, _adminacc);\r\n    }\r\n    \r\n    function canAccessResource(address user) public view onlyRole(ADMIN_ROLE) returns (bool) {\r\n        return hasRole(ADMIN_ROLE, user);\r\n    }\r\n\r\n    function farmerRegistration(\r\n        address _address\r\n    ) public {\r\n        farmerCount++;\r\n        farmerRequests.push(_address);\r\n    }\r\n\r\n    function grantRoleToFarmer(address _farmer) public onlyRole(ADMIN_ROLE) {\r\n\r\n    // Remove the address from the farmerRequests array.\r\n    for (uint256 i = 0; i < farmerRequests.length; i++) {\r\n        if (farmerRequests[i] == _farmer) {\r\n            farmerRequests[i] = farmerRequests[farmerRequests.length - 1]; //swap the one at the very end with the i'th\r\n            farmerRequests.pop();\r\n            break;\r\n        }\r\n    }\r\n\r\n    // Grant the FARMER_ROLE to the address.\r\n    grantRole(FARMER_ROLE, _farmer);\r\n\r\n    // Add the address to the farmerAddresses array.\r\n    farmerAddresses.push(_farmer);\r\n    }\r\n\r\n    function getFarmers() public view returns (address[] memory) {\r\n        return farmerAddresses;\r\n    }\r\n\r\n    function getFarmersRequests() public view returns (address[] memory) {\r\n        return farmerRequests;\r\n    }\r\n}",
  "sourcePath": "C:\\Users\\ACER\\Documents\\Personal\\SEM-7_EXPERIMENTS\\sem-8-mini-project\\PDS_Security\\contracts\\FarmerContract.sol",
  "compiler": {
    "name": "solc",
    "version": "0.8.19+commit.7dd6d404.Emscripten.clang"
  },
  "schemaVersion": "3.4.16",
  "updatedAt": "2024-01-11T09:34:02.625Z",
  "networkType": "ethereum",
  "devdoc": {
    "events": {
      "RoleAdminChanged(bytes32,bytes32,bytes32)": {
        "details": "Emitted when `newAdminRole` is set as ``role``'s admin role, replacing `previousAdminRole` `DEFAULT_ADMIN_ROLE` is the starting admin for all roles, despite {RoleAdminChanged} not being emitted signaling this. _Available since v3.1._"
      },
      "RoleGranted(bytes32,address,address)": {
        "details": "Emitted when `account` is granted `role`. `sender` is the account that originated the contract call, an admin role bearer except when using {AccessControl-_setupRole}."
      },
      "RoleRevoked(bytes32,address,address)": {
        "details": "Emitted when `account` is revoked `role`. `sender` is the account that originated the contract call:   - if using `revokeRole`, it is the admin role bearer   - if using `renounceRole`, it is the role bearer (i.e. `account`)"
      }
    },
    "kind": "dev",
    "methods": {
      "getRoleAdmin(bytes32)": {
        "details": "Returns the admin role that controls `role`. See {grantRole} and {revokeRole}. To change a role's admin, use {_setRoleAdmin}."
      },
      "grantRole(bytes32,address)": {
        "details": "Grants `role` to `account`. If `account` had not been already granted `role`, emits a {RoleGranted} event. Requirements: - the caller must have ``role``'s admin role. May emit a {RoleGranted} event."
      },
      "hasRole(bytes32,address)": {
        "details": "Returns `true` if `account` has been granted `role`."
      },
      "renounceRole(bytes32,address)": {
        "details": "Revokes `role` from the calling account. Roles are often managed via {grantRole} and {revokeRole}: this function's purpose is to provide a mechanism for accounts to lose their privileges if they are compromised (such as when a trusted device is misplaced). If the calling account had been revoked `role`, emits a {RoleRevoked} event. Requirements: - the caller must be `account`. May emit a {RoleRevoked} event."
      },
      "revokeRole(bytes32,address)": {
        "details": "Revokes `role` from `account`. If `account` had been granted `role`, emits a {RoleRevoked} event. Requirements: - the caller must have ``role``'s admin role. May emit a {RoleRevoked} event."
      },
      "supportsInterface(bytes4)": {
        "details": "See {IERC165-supportsInterface}."
      }
    },
    "version": 1
  },
  "userdoc": {
    "kind": "user",
    "methods": {},
    "version": 1
  }
}