{
  "contractName": "FarmerContract",
  "abi": [
    {
      "inputs": [],
      "stateMutability": "payable",
      "type": "constructor",
      "payable": true
    },
    {
      "anonymous": false,
      "inputs": [
        {
          "indexed": true,
          "internalType": "bytes32",
          "name": "role",
          "type": "bytes32"
        },
        {
          "indexed": true,
          "internalType": "bytes32",
          "name": "previousAdminRole",
          "type": "bytes32"
        },
        {
          "indexed": true,
          "internalType": "bytes32",
          "name": "newAdminRole",
          "type": "bytes32"
        }
      ],
      "name": "RoleAdminChanged",
      "type": "event"
    },
    {
      "anonymous": false,
      "inputs": [
        {
          "indexed": true,
          "internalType": "bytes32",
          "name": "role",
          "type": "bytes32"
        },
        {
          "indexed": true,
          "internalType": "address",
          "name": "account",
          "type": "address"
        },
        {
          "indexed": true,
          "internalType": "address",
          "name": "sender",
          "type": "address"
        }
      ],
      "name": "RoleGranted",
      "type": "event"
    },
    {
      "anonymous": false,
      "inputs": [
        {
          "indexed": true,
          "internalType": "bytes32",
          "name": "role",
          "type": "bytes32"
        },
        {
          "indexed": true,
          "internalType": "address",
          "name": "account",
          "type": "address"
        },
        {
          "indexed": true,
          "internalType": "address",
          "name": "sender",
          "type": "address"
        }
      ],
      "name": "RoleRevoked",
      "type": "event"
    },
    {
      "inputs": [],
      "name": "ADMIN_ROLE",
      "outputs": [
        {
          "internalType": "bytes32",
          "name": "",
          "type": "bytes32"
        }
      ],
      "stateMutability": "view",
      "type": "function",
      "constant": true
    },
    {
      "inputs": [],
      "name": "DEFAULT_ADMIN_ROLE",
      "outputs": [
        {
          "internalType": "bytes32",
          "name": "",
          "type": "bytes32"
        }
      ],
      "stateMutability": "view",
      "type": "function",
      "constant": true
    },
    {
      "inputs": [],
      "name": "FARMER_ROLE",
      "outputs": [
        {
          "internalType": "bytes32",
          "name": "",
          "type": "bytes32"
        }
      ],
      "stateMutability": "view",
      "type": "function",
      "constant": true
    },
    {
      "inputs": [
        {
          "internalType": "uint256",
          "name": "",
          "type": "uint256"
        }
      ],
      "name": "allProducts",
      "outputs": [
        {
          "internalType": "uint256",
          "name": "productId",
          "type": "uint256"
        },
        {
          "internalType": "string",
          "name": "commodityName",
          "type": "string"
        },
        {
          "internalType": "uint256",
          "name": "quantity",
          "type": "uint256"
        },
        {
          "internalType": "string",
          "name": "unit",
          "type": "string"
        },
        {
          "internalType": "string",
          "name": "image",
          "type": "string"
        },
        {
          "internalType": "string",
          "name": "tplicence",
          "type": "string"
        },
        {
          "internalType": "uint256",
          "name": "msp",
          "type": "uint256"
        },
        {
          "internalType": "uint256",
          "name": "apmcid",
          "type": "uint256"
        },
        {
          "internalType": "address",
          "name": "curowner",
          "type": "address"
        },
        {
          "internalType": "address",
          "name": "buyer",
          "type": "address"
        },
        {
          "internalType": "bool",
          "name": "sold",
          "type": "bool"
        },
        {
          "internalType": "bool",
          "name": "quality",
          "type": "bool"
        }
      ],
      "stateMutability": "view",
      "type": "function",
      "constant": true
    },
    {
      "inputs": [
        {
          "internalType": "uint256",
          "name": "",
          "type": "uint256"
        }
      ],
      "name": "apmcs",
      "outputs": [
        {
          "internalType": "uint256",
          "name": "apmcid",
          "type": "uint256"
        },
        {
          "internalType": "string",
          "name": "apmcname",
          "type": "string"
        },
        {
          "internalType": "string",
          "name": "addressloc",
          "type": "string"
        },
        {
          "internalType": "string",
          "name": "state",
          "type": "string"
        },
        {
          "internalType": "string",
          "name": "district",
          "type": "string"
        },
        {
          "internalType": "uint256",
          "name": "contact",
          "type": "uint256"
        }
      ],
      "stateMutability": "view",
      "type": "function",
      "constant": true
    },
    {
      "inputs": [
        {
          "internalType": "uint256",
          "name": "",
          "type": "uint256"
        }
      ],
      "name": "farmerAddresses",
      "outputs": [
        {
          "internalType": "address",
          "name": "",
          "type": "address"
        }
      ],
      "stateMutability": "view",
      "type": "function",
      "constant": true
    },
    {
      "inputs": [],
      "name": "farmerCount",
      "outputs": [
        {
          "internalType": "uint256",
          "name": "",
          "type": "uint256"
        }
      ],
      "stateMutability": "view",
      "type": "function",
      "constant": true
    },
    {
      "inputs": [
        {
          "internalType": "address",
          "name": "",
          "type": "address"
        },
        {
          "internalType": "uint256",
          "name": "",
          "type": "uint256"
        }
      ],
      "name": "farmerProducts",
      "outputs": [
        {
          "internalType": "uint256",
          "name": "productId",
          "type": "uint256"
        },
        {
          "internalType": "string",
          "name": "commodityName",
          "type": "string"
        },
        {
          "internalType": "uint256",
          "name": "quantity",
          "type": "uint256"
        },
        {
          "internalType": "string",
          "name": "unit",
          "type": "string"
        },
        {
          "internalType": "string",
          "name": "image",
          "type": "string"
        },
        {
          "internalType": "string",
          "name": "tplicence",
          "type": "string"
        },
        {
          "internalType": "uint256",
          "name": "msp",
          "type": "uint256"
        },
        {
          "internalType": "uint256",
          "name": "apmcid",
          "type": "uint256"
        },
        {
          "internalType": "address",
          "name": "curowner",
          "type": "address"
        },
        {
          "internalType": "address",
          "name": "buyer",
          "type": "address"
        },
        {
          "internalType": "bool",
          "name": "sold",
          "type": "bool"
        },
        {
          "internalType": "bool",
          "name": "quality",
          "type": "bool"
        }
      ],
      "stateMutability": "view",
      "type": "function",
      "constant": true
    },
    {
      "inputs": [
        {
          "internalType": "uint256",
          "name": "",
          "type": "uint256"
        }
      ],
      "name": "farmerRequests",
      "outputs": [
        {
          "internalType": "address",
          "name": "",
          "type": "address"
        }
      ],
      "stateMutability": "view",
      "type": "function",
      "constant": true
    },
    {
      "inputs": [
        {
          "internalType": "bytes32",
          "name": "role",
          "type": "bytes32"
        }
      ],
      "name": "getRoleAdmin",
      "outputs": [
        {
          "internalType": "bytes32",
          "name": "",
          "type": "bytes32"
        }
      ],
      "stateMutability": "view",
      "type": "function",
      "constant": true
    },
    {
      "inputs": [
        {
          "internalType": "bytes32",
          "name": "role",
          "type": "bytes32"
        },
        {
          "internalType": "address",
          "name": "account",
          "type": "address"
        }
      ],
      "name": "grantRole",
      "outputs": [],
      "stateMutability": "nonpayable",
      "type": "function"
    },
    {
      "inputs": [
        {
          "internalType": "bytes32",
          "name": "role",
          "type": "bytes32"
        },
        {
          "internalType": "address",
          "name": "account",
          "type": "address"
        }
      ],
      "name": "hasRole",
      "outputs": [
        {
          "internalType": "bool",
          "name": "",
          "type": "bool"
        }
      ],
      "stateMutability": "view",
      "type": "function",
      "constant": true
    },
    {
      "inputs": [
        {
          "internalType": "bytes32",
          "name": "role",
          "type": "bytes32"
        },
        {
          "internalType": "address",
          "name": "account",
          "type": "address"
        }
      ],
      "name": "renounceRole",
      "outputs": [],
      "stateMutability": "nonpayable",
      "type": "function"
    },
    {
      "inputs": [
        {
          "internalType": "bytes32",
          "name": "role",
          "type": "bytes32"
        },
        {
          "internalType": "address",
          "name": "account",
          "type": "address"
        }
      ],
      "name": "revokeRole",
      "outputs": [],
      "stateMutability": "nonpayable",
      "type": "function"
    },
    {
      "inputs": [
        {
          "internalType": "bytes4",
          "name": "interfaceId",
          "type": "bytes4"
        }
      ],
      "name": "supportsInterface",
      "outputs": [
        {
          "internalType": "bool",
          "name": "",
          "type": "bool"
        }
      ],
      "stateMutability": "view",
      "type": "function",
      "constant": true
    },
    {
      "inputs": [
        {
          "internalType": "address",
          "name": "_adminacc",
          "type": "address"
        }
      ],
      "name": "addOfficial",
      "outputs": [],
      "stateMutability": "nonpayable",
      "type": "function"
    },
    {
      "inputs": [
        {
          "internalType": "address",
          "name": "user",
          "type": "address"
        }
      ],
      "name": "canAccessResource",
      "outputs": [
        {
          "internalType": "bool",
          "name": "",
          "type": "bool"
        }
      ],
      "stateMutability": "view",
      "type": "function",
      "constant": true
    },
    {
      "inputs": [
        {
          "internalType": "address",
          "name": "_addressvar",
          "type": "address"
        }
      ],
      "name": "farmerRegistration",
      "outputs": [],
      "stateMutability": "nonpayable",
      "type": "function"
    },
    {
      "inputs": [
        {
          "internalType": "string",
          "name": "_apmcname",
          "type": "string"
        },
        {
          "internalType": "string",
          "name": "_addressloc",
          "type": "string"
        },
        {
          "internalType": "string",
          "name": "_state",
          "type": "string"
        },
        {
          "internalType": "string",
          "name": "_district",
          "type": "string"
        },
        {
          "internalType": "string[]",
          "name": "_commoditiestraded",
          "type": "string[]"
        },
        {
          "internalType": "uint256",
          "name": "_contact",
          "type": "uint256"
        }
      ],
      "name": "addAPMC",
      "outputs": [],
      "stateMutability": "nonpayable",
      "type": "function"
    },
    {
      "inputs": [
        {
          "internalType": "string",
          "name": "_name",
          "type": "string"
        },
        {
          "internalType": "uint256",
          "name": "quantity",
          "type": "uint256"
        },
        {
          "internalType": "string",
          "name": "_unit",
          "type": "string"
        },
        {
          "internalType": "string",
          "name": "_img",
          "type": "string"
        },
        {
          "internalType": "string",
          "name": "_tplic",
          "type": "string"
        },
        {
          "internalType": "uint256",
          "name": "apmcid",
          "type": "uint256"
        },
        {
          "internalType": "uint256",
          "name": "msp",
          "type": "uint256"
        }
      ],
      "name": "addProduct",
      "outputs": [],
      "stateMutability": "payable",
      "type": "function",
      "payable": true
    },
    {
      "inputs": [
        {
          "internalType": "address",
          "name": "_addressvar",
          "type": "address"
        }
      ],
      "name": "getFarmerProducts",
      "outputs": [
        {
          "components": [
            {
              "internalType": "uint256",
              "name": "productId",
              "type": "uint256"
            },
            {
              "internalType": "string",
              "name": "commodityName",
              "type": "string"
            },
            {
              "internalType": "uint256",
              "name": "quantity",
              "type": "uint256"
            },
            {
              "internalType": "string",
              "name": "unit",
              "type": "string"
            },
            {
              "internalType": "string",
              "name": "image",
              "type": "string"
            },
            {
              "internalType": "string",
              "name": "tplicence",
              "type": "string"
            },
            {
              "internalType": "uint256",
              "name": "msp",
              "type": "uint256"
            },
            {
              "internalType": "uint256",
              "name": "apmcid",
              "type": "uint256"
            },
            {
              "internalType": "address",
              "name": "curowner",
              "type": "address"
            },
            {
              "internalType": "address",
              "name": "buyer",
              "type": "address"
            },
            {
              "internalType": "bool",
              "name": "sold",
              "type": "bool"
            },
            {
              "internalType": "bool",
              "name": "quality",
              "type": "bool"
            }
          ],
          "internalType": "struct FarmerContract.productDetails[]",
          "name": "",
          "type": "tuple[]"
        }
      ],
      "stateMutability": "view",
      "type": "function",
      "constant": true
    },
    {
      "inputs": [
        {
          "internalType": "address",
          "name": "_farmer",
          "type": "address"
        }
      ],
      "name": "grantRoleToFarmer",
      "outputs": [],
      "stateMutability": "nonpayable",
      "type": "function"
    },
    {
      "inputs": [],
      "name": "getFarmers",
      "outputs": [
        {
          "internalType": "address[]",
          "name": "",
          "type": "address[]"
        }
      ],
      "stateMutability": "view",
      "type": "function",
      "constant": true
    },
    {
      "inputs": [],
      "name": "getFarmersRequests",
      "outputs": [
        {
          "internalType": "address[]",
          "name": "",
          "type": "address[]"
        }
      ],
      "stateMutability": "view",
      "type": "function",
      "constant": true
    },
    {
      "inputs": [],
      "name": "getAllFarmerProducts",
      "outputs": [
        {
          "components": [
            {
              "internalType": "uint256",
              "name": "productId",
              "type": "uint256"
            },
            {
              "internalType": "string",
              "name": "commodityName",
              "type": "string"
            },
            {
              "internalType": "uint256",
              "name": "quantity",
              "type": "uint256"
            },
            {
              "internalType": "string",
              "name": "unit",
              "type": "string"
            },
            {
              "internalType": "string",
              "name": "image",
              "type": "string"
            },
            {
              "internalType": "string",
              "name": "tplicence",
              "type": "string"
            },
            {
              "internalType": "uint256",
              "name": "msp",
              "type": "uint256"
            },
            {
              "internalType": "uint256",
              "name": "apmcid",
              "type": "uint256"
            },
            {
              "internalType": "address",
              "name": "curowner",
              "type": "address"
            },
            {
              "internalType": "address",
              "name": "buyer",
              "type": "address"
            },
            {
              "internalType": "bool",
              "name": "sold",
              "type": "bool"
            },
            {
              "internalType": "bool",
              "name": "quality",
              "type": "bool"
            }
          ],
          "internalType": "struct FarmerContract.productDetails[]",
          "name": "",
          "type": "tuple[]"
        }
      ],
      "stateMutability": "view",
      "type": "function",
      "constant": true
    },
    {
      "inputs": [],
      "name": "getAllAPMC",
      "outputs": [
        {
          "components": [
            {
              "internalType": "uint256",
              "name": "apmcid",
              "type": "uint256"
            },
            {
              "internalType": "string",
              "name": "apmcname",
              "type": "string"
            },
            {
              "internalType": "string",
              "name": "addressloc",
              "type": "string"
            },
            {
              "internalType": "string",
              "name": "state",
              "type": "string"
            },
            {
              "internalType": "string",
              "name": "district",
              "type": "string"
            },
            {
              "internalType": "string[]",
              "name": "commoditiestraded",
              "type": "string[]"
            },
            {
              "internalType": "uint256",
              "name": "contact",
              "type": "uint256"
            }
          ],
          "internalType": "struct FarmerContract.APMC[]",
          "name": "",
          "type": "tuple[]"
        }
      ],
      "stateMutability": "view",
      "type": "function",
      "constant": true
    },
    {
      "inputs": [
        {
          "internalType": "uint256",
          "name": "productId",
          "type": "uint256"
        }
      ],
      "name": "getAProduct",
      "outputs": [
        {
          "components": [
            {
              "internalType": "uint256",
              "name": "productId",
              "type": "uint256"
            },
            {
              "internalType": "string",
              "name": "commodityName",
              "type": "string"
            },
            {
              "internalType": "uint256",
              "name": "quantity",
              "type": "uint256"
            },
            {
              "internalType": "string",
              "name": "unit",
              "type": "string"
            },
            {
              "internalType": "string",
              "name": "image",
              "type": "string"
            },
            {
              "internalType": "string",
              "name": "tplicence",
              "type": "string"
            },
            {
              "internalType": "uint256",
              "name": "msp",
              "type": "uint256"
            },
            {
              "internalType": "uint256",
              "name": "apmcid",
              "type": "uint256"
            },
            {
              "internalType": "address",
              "name": "curowner",
              "type": "address"
            },
            {
              "internalType": "address",
              "name": "buyer",
              "type": "address"
            },
            {
              "internalType": "bool",
              "name": "sold",
              "type": "bool"
            },
            {
              "internalType": "bool",
              "name": "quality",
              "type": "bool"
            }
          ],
          "internalType": "struct FarmerContract.productDetails",
          "name": "",
          "type": "tuple"
        }
      ],
      "stateMutability": "view",
      "type": "function",
      "constant": true
    },
    {
      "inputs": [
        {
          "internalType": "uint256",
          "name": "apmcid",
          "type": "uint256"
        }
      ],
      "name": "getProductsinAPMC",
      "outputs": [
        {
          "components": [
            {
              "internalType": "uint256",
              "name": "productId",
              "type": "uint256"
            },
            {
              "internalType": "string",
              "name": "commodityName",
              "type": "string"
            },
            {
              "internalType": "uint256",
              "name": "quantity",
              "type": "uint256"
            },
            {
              "internalType": "string",
              "name": "unit",
              "type": "string"
            },
            {
              "internalType": "string",
              "name": "image",
              "type": "string"
            },
            {
              "internalType": "string",
              "name": "tplicence",
              "type": "string"
            },
            {
              "internalType": "uint256",
              "name": "msp",
              "type": "uint256"
            },
            {
              "internalType": "uint256",
              "name": "apmcid",
              "type": "uint256"
            },
            {
              "internalType": "address",
              "name": "curowner",
              "type": "address"
            },
            {
              "internalType": "address",
              "name": "buyer",
              "type": "address"
            },
            {
              "internalType": "bool",
              "name": "sold",
              "type": "bool"
            },
            {
              "internalType": "bool",
              "name": "quality",
              "type": "bool"
            }
          ],
          "internalType": "struct FarmerContract.productDetails[]",
          "name": "",
          "type": "tuple[]"
        }
      ],
      "stateMutability": "view",
      "type": "function",
      "constant": true
    },
    {
      "inputs": [
        {
          "internalType": "uint256",
          "name": "productId",
          "type": "uint256"
        }
      ],
      "name": "inspectFoodSafety",
      "outputs": [],
      "stateMutability": "payable",
      "type": "function",
      "payable": true
    },
    {
      "inputs": [
        {
          "internalType": "uint256",
          "name": "productId",
          "type": "uint256"
        }
      ],
      "name": "buyProduct",
      "outputs": [],
      "stateMutability": "payable",
      "type": "function",
      "payable": true
    },
    {
      "inputs": [
        {
          "internalType": "address",
          "name": "distri",
          "type": "address"
        },
        {
          "internalType": "uint256",
          "name": "productId",
          "type": "uint256"
        }
      ],
      "name": "sellFoodtoDistri",
      "outputs": [],
      "stateMutability": "payable",
      "type": "function",
      "payable": true
    }
  ],
  "bytecode": "0x6080604052620000196000801b33620000a260201b60201c565b6200004b7fa49807205ce4d355092ef5a8a18f56e8913cf4a201fbe287825b095693c2177533620000a260201b60201c565b33600360006101000a81548173ffffffffffffffffffffffffffffffffffffffff021916908373ffffffffffffffffffffffffffffffffffffffff1602179055506000600181905550600060028190555062000205565b620000b482826200019360201b60201c565b6200018f57600160008084815260200190815260200160002060000160008373ffffffffffffffffffffffffffffffffffffffff1673ffffffffffffffffffffffffffffffffffffffff16815260200190815260200160002060006101000a81548160ff02191690831515021790555062000134620001fd60201b60201c565b73ffffffffffffffffffffffffffffffffffffffff168173ffffffffffffffffffffffffffffffffffffffff16837f2f8788117e7eff1d82e926ec794901d17c78024a50270940304540a733656f0d60405160405180910390a45b5050565b600080600084815260200190815260200160002060000160008373ffffffffffffffffffffffffffffffffffffffff1673ffffffffffffffffffffffffffffffffffffffff16815260200190815260200160002060009054906101000a900460ff16905092915050565b600033905090565b6153df80620002156000396000f3fe6080604052600436106101d85760003560e01c8063789f8d4011610102578063bc0d1fb011610095578063d9a94c6011610064578063d9a94c60146106f4578063dc18bf641461071f578063f394397014610748578063fece877214610773576101d8565b8063bc0d1fb014610616578063bd45b39714610658578063cfaaef5614610683578063d547741f146106cb576101d8565b8063a217fddf116100d1578063a217fddf14610569578063aa12ede214610594578063ac840db0146105b0578063b9cc1614146105d9576101d8565b8063789f8d40146104c95780638642269e146104f457806391d148541461051057806397354dc91461054d576101d8565b80632f2ff15d1161017a5780634a689967116101495780634a689967146103fb57806369a4d569146104385780636e91ef811461047557806375b238fc1461049e576101d8565b80632f2ff15d1461034357806336568abe1461036c57806336ef11b014610395578063456154f5146103d2576101d8565b806312a50746116101b657806312a5074614610282578063207a1e56146102bf578063248a9ca3146102ea5780632cd3529414610327576101d8565b806301ffc9a7146101dd5780630a5cf0421461021a5780631240de2714610257575b600080fd5b3480156101e957600080fd5b5061020460048036038101906101ff9190613b8c565b6107bb565b6040516102119190613bd4565b60405180910390f35b34801561022657600080fd5b50610241600480360381019061023c9190613c4d565b610835565b60405161024e9190613f1c565b60405180910390f35b34801561026357600080fd5b5061026c610c26565b604051610279919061417a565b60405180910390f35b34801561028e57600080fd5b506102a960048036038101906102a491906141c8565b610fba565b6040516102b69190613f1c565b60405180910390f35b3480156102cb57600080fd5b506102d4611425565b6040516102e19190613f1c565b60405180910390f35b3480156102f657600080fd5b50610311600480360381019061030c919061422b565b6117d7565b60405161031e9190614267565b60405180910390f35b610341600480360381019061033c91906143b7565b6117f6565b005b34801561034f57600080fd5b5061036a600480360381019061036591906144c9565b611c50565b005b34801561037857600080fd5b50610393600480360381019061038e91906144c9565b611c71565b005b3480156103a157600080fd5b506103bc60048036038101906103b79190613c4d565b611cf4565b6040516103c99190613bd4565b60405180910390f35b3480156103de57600080fd5b506103f960048036038101906103f49190613c4d565b611d52565b005b34801561040757600080fd5b50610422600480360381019061041d91906141c8565b611f9a565b60405161042f9190614622565b60405180910390f35b34801561044457600080fd5b5061045f600480360381019061045a91906141c8565b612329565b60405161046c9190614653565b60405180910390f35b34801561048157600080fd5b5061049c60048036038101906104979190613c4d565b612368565b005b3480156104aa57600080fd5b506104b36123e6565b6040516104c09190614267565b60405180910390f35b3480156104d557600080fd5b506104de61240a565b6040516104eb919061471d565b60405180910390f35b61050e600480360381019061050991906141c8565b612498565b005b34801561051c57600080fd5b50610537600480360381019061053291906144c9565b6126f8565b6040516105449190613bd4565b60405180910390f35b6105676004803603810190610562919061473f565b612762565b005b34801561057557600080fd5b5061057e6128f7565b60405161058b9190614267565b60405180910390f35b6105ae60048036038101906105a991906141c8565b6128fe565b005b3480156105bc57600080fd5b506105d760048036038101906105d29190613c4d565b612987565b005b3480156105e557600080fd5b5061060060048036038101906105fb91906141c8565b6129df565b60405161060d9190614653565b60405180910390f35b34801561062257600080fd5b5061063d600480360381019061063891906141c8565b612a1e565b60405161064f969594939291906147d8565b60405180910390f35b34801561066457600080fd5b5061066d612c8a565b60405161067a9190614855565b60405180910390f35b34801561068f57600080fd5b506106aa60048036038101906106a591906141c8565b612c90565b6040516106c29c9b9a99989796959493929190614870565b60405180910390f35b3480156106d757600080fd5b506106f260048036038101906106ed91906144c9565b612f7a565b005b34801561070057600080fd5b50610709612f9b565b604051610716919061471d565b60405180910390f35b34801561072b57600080fd5b5061074660048036038101906107419190614a2c565b613029565b005b34801561075457600080fd5b5061075d613165565b60405161076a9190614267565b60405180910390f35b34801561077f57600080fd5b5061079a6004803603810190610795919061473f565b613189565b6040516107b29c9b9a99989796959493929190614870565b60405180910390f35b60007f7965db0b000000000000000000000000000000000000000000000000000000007bffffffffffffffffffffffffffffffffffffffffffffffffffffffff1916827bffffffffffffffffffffffffffffffffffffffffffffffffffffffff1916148061082e575061082d82613480565b5b9050919050565b6060600460008373ffffffffffffffffffffffffffffffffffffffff1673ffffffffffffffffffffffffffffffffffffffff168152602001908152602001600020805480602002602001604051908101604052809291908181526020016000905b82821015610c1b57838290600052602060002090600a020160405180610180016040529081600082015481526020016001820180546108d490614b74565b80601f016020809104026020016040519081016040528092919081815260200182805461090090614b74565b801561094d5780601f106109225761010080835404028352916020019161094d565b820191906000526020600020905b81548152906001019060200180831161093057829003601f168201915b505050505081526020016002820154815260200160038201805461097090614b74565b80601f016020809104026020016040519081016040528092919081815260200182805461099c90614b74565b80156109e95780601f106109be576101008083540402835291602001916109e9565b820191906000526020600020905b8154815290600101906020018083116109cc57829003601f168201915b50505050508152602001600482018054610a0290614b74565b80601f0160208091040260200160405190810160405280929190818152602001828054610a2e90614b74565b8015610a7b5780601f10610a5057610100808354040283529160200191610a7b565b820191906000526020600020905b815481529060010190602001808311610a5e57829003601f168201915b50505050508152602001600582018054610a9490614b74565b80601f0160208091040260200160405190810160405280929190818152602001828054610ac090614b74565b8015610b0d5780601f10610ae257610100808354040283529160200191610b0d565b820191906000526020600020905b815481529060010190602001808311610af057829003601f168201915b5050505050815260200160068201548152602001600782015481526020016008820160009054906101000a900473ffffffffffffffffffffffffffffffffffffffff1673ffffffffffffffffffffffffffffffffffffffff1673ffffffffffffffffffffffffffffffffffffffff1681526020016009820160009054906101000a900473ffffffffffffffffffffffffffffffffffffffff1673ffffffffffffffffffffffffffffffffffffffff1673ffffffffffffffffffffffffffffffffffffffff1681526020016009820160149054906101000a900460ff161515151581526020016009820160159054906101000a900460ff16151515158152505081526020019060010190610896565b505050509050919050565b60606008805480602002602001604051908101604052809291908181526020016000905b82821015610fb157838290600052602060002090600702016040518060e001604052908160008201548152602001600182018054610c8790614b74565b80601f0160208091040260200160405190810160405280929190818152602001828054610cb390614b74565b8015610d005780601f10610cd557610100808354040283529160200191610d00565b820191906000526020600020905b815481529060010190602001808311610ce357829003601f168201915b50505050508152602001600282018054610d1990614b74565b80601f0160208091040260200160405190810160405280929190818152602001828054610d4590614b74565b8015610d925780601f10610d6757610100808354040283529160200191610d92565b820191906000526020600020905b815481529060010190602001808311610d7557829003601f168201915b50505050508152602001600382018054610dab90614b74565b80601f0160208091040260200160405190810160405280929190818152602001828054610dd790614b74565b8015610e245780601f10610df957610100808354040283529160200191610e24565b820191906000526020600020905b815481529060010190602001808311610e0757829003601f168201915b50505050508152602001600482018054610e3d90614b74565b80601f0160208091040260200160405190810160405280929190818152602001828054610e6990614b74565b8015610eb65780601f10610e8b57610100808354040283529160200191610eb6565b820191906000526020600020905b815481529060010190602001808311610e9957829003601f168201915b5050505050815260200160058201805480602002602001604051908101604052809291908181526020016000905b82821015610f90578382906000526020600020018054610f0390614b74565b80601f0160208091040260200160405190810160405280929190818152602001828054610f2f90614b74565b8015610f7c5780601f10610f5157610100808354040283529160200191610f7c565b820191906000526020600020905b815481529060010190602001808311610f5f57829003601f168201915b505050505081526020019060010190610ee4565b50505050815260200160068201548152505081526020019060010190610c4a565b50505050905090565b60608060005b60098054905081101561141b578360098281548110610fe257610fe1614ba5565b5b90600052602060002090600a0201600701540361140857600182516110079190614c03565b67ffffffffffffffff8111156110205761101f61428c565b5b60405190808252806020026020018201604052801561105957816020015b6110466139b5565b81526020019060019003908161103e5790505b509150600981815481106110705761106f614ba5565b5b90600052602060002090600a020160405180610180016040529081600082015481526020016001820180546110a490614b74565b80601f01602080910402602001604051908101604052809291908181526020018280546110d090614b74565b801561111d5780601f106110f25761010080835404028352916020019161111d565b820191906000526020600020905b81548152906001019060200180831161110057829003601f168201915b505050505081526020016002820154815260200160038201805461114090614b74565b80601f016020809104026020016040519081016040528092919081815260200182805461116c90614b74565b80156111b95780601f1061118e576101008083540402835291602001916111b9565b820191906000526020600020905b81548152906001019060200180831161119c57829003601f168201915b505050505081526020016004820180546111d290614b74565b80601f01602080910402602001604051908101604052809291908181526020018280546111fe90614b74565b801561124b5780601f106112205761010080835404028352916020019161124b565b820191906000526020600020905b81548152906001019060200180831161122e57829003601f168201915b5050505050815260200160058201805461126490614b74565b80601f016020809104026020016040519081016040528092919081815260200182805461129090614b74565b80156112dd5780601f106112b2576101008083540402835291602001916112dd565b820191906000526020600020905b8154815290600101906020018083116112c057829003601f168201915b5050505050815260200160068201548152602001600782015481526020016008820160009054906101000a900473ffffffffffffffffffffffffffffffffffffffff1673ffffffffffffffffffffffffffffffffffffffff1673ffffffffffffffffffffffffffffffffffffffff1681526020016009820160009054906101000a900473ffffffffffffffffffffffffffffffffffffffff1673ffffffffffffffffffffffffffffffffffffffff1673ffffffffffffffffffffffffffffffffffffffff1681526020016009820160149054906101000a900460ff161515151581526020016009820160159054906101000a900460ff16151515158152505082600184516113eb9190614c37565b815181106113fc576113fb614ba5565b5b60200260200101819052505b808061141390614c6b565b915050610fc0565b5080915050919050565b60606009805480602002602001604051908101604052809291908181526020016000905b828210156117ce57838290600052602060002090600a0201604051806101800160405290816000820154815260200160018201805461148790614b74565b80601f01602080910402602001604051908101604052809291908181526020018280546114b390614b74565b80156115005780601f106114d557610100808354040283529160200191611500565b820191906000526020600020905b8154815290600101906020018083116114e357829003601f168201915b505050505081526020016002820154815260200160038201805461152390614b74565b80601f016020809104026020016040519081016040528092919081815260200182805461154f90614b74565b801561159c5780601f106115715761010080835404028352916020019161159c565b820191906000526020600020905b81548152906001019060200180831161157f57829003601f168201915b505050505081526020016004820180546115b590614b74565b80601f01602080910402602001604051908101604052809291908181526020018280546115e190614b74565b801561162e5780601f106116035761010080835404028352916020019161162e565b820191906000526020600020905b81548152906001019060200180831161161157829003601f168201915b5050505050815260200160058201805461164790614b74565b80601f016020809104026020016040519081016040528092919081815260200182805461167390614b74565b80156116c05780601f10611695576101008083540402835291602001916116c0565b820191906000526020600020905b8154815290600101906020018083116116a357829003601f168201915b5050505050815260200160068201548152602001600782015481526020016008820160009054906101000a900473ffffffffffffffffffffffffffffffffffffffff1673ffffffffffffffffffffffffffffffffffffffff1673ffffffffffffffffffffffffffffffffffffffff1681526020016009820160009054906101000a900473ffffffffffffffffffffffffffffffffffffffff1673ffffffffffffffffffffffffffffffffffffffff1673ffffffffffffffffffffffffffffffffffffffff1681526020016009820160149054906101000a900460ff161515151581526020016009820160159054906101000a900460ff16151515158152505081526020019060010190611449565b50505050905090565b6000806000838152602001908152602001600020600101549050919050565b7f7c6181838a71a779e445600d4c6ecbe16bacf2b3c5bda69c29fada66d1b645d1611820816134ea565b600154831115611865576040517f08c379a000000000000000000000000000000000000000000000000000000000815260040161185c90614cff565b60405180910390fd5b600060405180610180016040528060025481526020018a81526020018981526020018881526020018781526020018681526020018481526020018581526020013373ffffffffffffffffffffffffffffffffffffffff168152602001600073ffffffffffffffffffffffffffffffffffffffff168152602001600015158152602001600015158152509050600460003373ffffffffffffffffffffffffffffffffffffffff1673ffffffffffffffffffffffffffffffffffffffff1681526020019081526020016000208190806001815401808255809150506001900390600052602060002090600a02016000909190919091506000820151816000015560208201518160010190816119789190614ecb565b506040820151816002015560608201518160030190816119989190614ecb565b5060808201518160040190816119ae9190614ecb565b5060a08201518160050190816119c49190614ecb565b5060c0820151816006015560e082015181600701556101008201518160080160006101000a81548173ffffffffffffffffffffffffffffffffffffffff021916908373ffffffffffffffffffffffffffffffffffffffff1602179055506101208201518160090160006101000a81548173ffffffffffffffffffffffffffffffffffffffff021916908373ffffffffffffffffffffffffffffffffffffffff1602179055506101408201518160090160146101000a81548160ff0219169083151502179055506101608201518160090160156101000a81548160ff021916908315150217905550505060098190806001815401808255809150506001900390600052602060002090600a0201600090919091909150600082015181600001556020820151816001019081611af89190614ecb565b50604082015181600201556060820151816003019081611b189190614ecb565b506080820151816004019081611b2e9190614ecb565b5060a0820151816005019081611b449190614ecb565b5060c0820151816006015560e082015181600701556101008201518160080160006101000a81548173ffffffffffffffffffffffffffffffffffffffff021916908373ffffffffffffffffffffffffffffffffffffffff1602179055506101208201518160090160006101000a81548173ffffffffffffffffffffffffffffffffffffffff021916908373ffffffffffffffffffffffffffffffffffffffff1602179055506101408201518160090160146101000a81548160ff0219169083151502179055506101608201518160090160156101000a81548160ff021916908315150217905550505060026000815480929190611c4090614c6b565b9190505550505050505050505050565b611c59826117d7565b611c62816134ea565b611c6c83836134fe565b505050565b611c796135de565b73ffffffffffffffffffffffffffffffffffffffff168173ffffffffffffffffffffffffffffffffffffffff1614611ce6576040517f08c379a0000000000000000000000000000000000000000000000000000000008152600401611cdd9061500f565b60405180910390fd5b611cf082826135e6565b5050565b60007fa49807205ce4d355092ef5a8a18f56e8913cf4a201fbe287825b095693c21775611d20816134ea565b611d4a7fa49807205ce4d355092ef5a8a18f56e8913cf4a201fbe287825b095693c21775846126f8565b915050919050565b7fa49807205ce4d355092ef5a8a18f56e8913cf4a201fbe287825b095693c21775611d7c816134ea565b60005b600780549050811015611f08578273ffffffffffffffffffffffffffffffffffffffff1660078281548110611db757611db6614ba5565b5b9060005260206000200160009054906101000a900473ffffffffffffffffffffffffffffffffffffffff1673ffffffffffffffffffffffffffffffffffffffff1603611ef55760076001600780549050611e119190614c37565b81548110611e2257611e21614ba5565b5b9060005260206000200160009054906101000a900473ffffffffffffffffffffffffffffffffffffffff1660078281548110611e6157611e60614ba5565b5b9060005260206000200160006101000a81548173ffffffffffffffffffffffffffffffffffffffff021916908373ffffffffffffffffffffffffffffffffffffffff1602179055506007805480611ebb57611eba61502f565b5b6001900381819060005260206000200160006101000a81549073ffffffffffffffffffffffffffffffffffffffff02191690559055611f08565b8080611f0090614c6b565b915050611d7f565b50611f337f7c6181838a71a779e445600d4c6ecbe16bacf2b3c5bda69c29fada66d1b645d183611c50565b6005829080600181540180825580915050600190039060005260206000200160009091909190916101000a81548173ffffffffffffffffffffffffffffffffffffffff021916908373ffffffffffffffffffffffffffffffffffffffff1602179055505050565b611fa26139b5565b60098281548110611fb657611fb5614ba5565b5b90600052602060002090600a02016040518061018001604052908160008201548152602001600182018054611fea90614b74565b80601f016020809104026020016040519081016040528092919081815260200182805461201690614b74565b80156120635780601f1061203857610100808354040283529160200191612063565b820191906000526020600020905b81548152906001019060200180831161204657829003601f168201915b505050505081526020016002820154815260200160038201805461208690614b74565b80601f01602080910402602001604051908101604052809291908181526020018280546120b290614b74565b80156120ff5780601f106120d4576101008083540402835291602001916120ff565b820191906000526020600020905b8154815290600101906020018083116120e257829003601f168201915b5050505050815260200160048201805461211890614b74565b80601f016020809104026020016040519081016040528092919081815260200182805461214490614b74565b80156121915780601f1061216657610100808354040283529160200191612191565b820191906000526020600020905b81548152906001019060200180831161217457829003601f168201915b505050505081526020016005820180546121aa90614b74565b80601f01602080910402602001604051908101604052809291908181526020018280546121d690614b74565b80156122235780601f106121f857610100808354040283529160200191612223565b820191906000526020600020905b81548152906001019060200180831161220657829003601f168201915b5050505050815260200160068201548152602001600782015481526020016008820160009054906101000a900473ffffffffffffffffffffffffffffffffffffffff1673ffffffffffffffffffffffffffffffffffffffff1673ffffffffffffffffffffffffffffffffffffffff1681526020016009820160009054906101000a900473ffffffffffffffffffffffffffffffffffffffff1673ffffffffffffffffffffffffffffffffffffffff1673ffffffffffffffffffffffffffffffffffffffff1681526020016009820160149054906101000a900460ff161515151581526020016009820160159054906101000a900460ff1615151515815250509050919050565b6007818154811061233957600080fd5b906000526020600020016000915054906101000a900473ffffffffffffffffffffffffffffffffffffffff1681565b6006600081548092919061237b90614c6b565b91905055506007819080600181540180825580915050600190039060005260206000200160009091909190916101000a81548173ffffffffffffffffffffffffffffffffffffffff021916908373ffffffffffffffffffffffffffffffffffffffff16021790555050565b7fa49807205ce4d355092ef5a8a18f56e8913cf4a201fbe287825b095693c2177581565b6060600580548060200260200160405190810160405280929190818152602001828054801561248e57602002820191906000526020600020905b8160009054906101000a900473ffffffffffffffffffffffffffffffffffffffff1673ffffffffffffffffffffffffffffffffffffffff1681526020019060010190808311612444575b5050505050905090565b6009805490508111156124e0576040517f08c379a00000000000000000000000000000000000000000000000000000000081526004016124d7906150aa565b60405180910390fd5b60001515600982815481106124f8576124f7614ba5565b5b90600052602060002090600a020160090160149054906101000a900460ff16151514612559576040517f08c379a000000000000000000000000000000000000000000000000000000000815260040161255090615116565b60405180910390fd5b60006009828154811061256f5761256e614ba5565b5b90600052602060002090600a0201600601549050803410156125c6576040517f08c379a00000000000000000000000000000000000000000000000000000000081526004016125bd90615182565b60405180910390fd5b6001600983815481106125dc576125db614ba5565b5b90600052602060002090600a020160090160146101000a81548160ff021916908315150217905550336009838154811061261957612618614ba5565b5b90600052602060002090600a020160080160006101000a81548173ffffffffffffffffffffffffffffffffffffffff021916908373ffffffffffffffffffffffffffffffffffffffff1602179055506009828154811061267c5761267b614ba5565b5b90600052602060002090600a020160080160009054906101000a900473ffffffffffffffffffffffffffffffffffffffff1673ffffffffffffffffffffffffffffffffffffffff166108fc829081150290604051600060405180830381858888f193505050501580156126f3573d6000803e3d6000fd5b505050565b600080600084815260200190815260200160002060000160008373ffffffffffffffffffffffffffffffffffffffff1673ffffffffffffffffffffffffffffffffffffffff16815260200190815260200160002060009054906101000a900460ff16905092915050565b6009805490508111156127aa576040517f08c379a00000000000000000000000000000000000000000000000000000000081526004016127a1906150aa565b60405180910390fd5b6000600982815481106127c0576127bf614ba5565b5b90600052602060002090600a020160020154600983815481106127e6576127e5614ba5565b5b90600052602060002090600a02016006015461280291906151a2565b905080341015612847576040517f08c379a000000000000000000000000000000000000000000000000000000000815260040161283e90615182565b60405180910390fd5b826009838154811061285c5761285b614ba5565b5b90600052602060002090600a020160080160006101000a81548173ffffffffffffffffffffffffffffffffffffffff021916908373ffffffffffffffffffffffffffffffffffffffff1602179055503373ffffffffffffffffffffffffffffffffffffffff166108fc829081150290604051600060405180830381858888f193505050501580156128f1573d6000803e3d6000fd5b50505050565b6000801b81565b600980549050811115612946576040517f08c379a000000000000000000000000000000000000000000000000000000000815260040161293d906150aa565b60405180910390fd5b60016009828154811061295c5761295b614ba5565b5b90600052602060002090600a020160090160156101000a81548160ff02191690831515021790555050565b7fa49807205ce4d355092ef5a8a18f56e8913cf4a201fbe287825b095693c217756129b1816134ea565b6129db7fa49807205ce4d355092ef5a8a18f56e8913cf4a201fbe287825b095693c2177583611c50565b5050565b600581815481106129ef57600080fd5b906000526020600020016000915054906101000a900473ffffffffffffffffffffffffffffffffffffffff1681565b60088181548110612a2e57600080fd5b9060005260206000209060070201600091509050806000015490806001018054612a5790614b74565b80601f0160208091040260200160405190810160405280929190818152602001828054612a8390614b74565b8015612ad05780601f10612aa557610100808354040283529160200191612ad0565b820191906000526020600020905b815481529060010190602001808311612ab357829003601f168201915b505050505090806002018054612ae590614b74565b80601f0160208091040260200160405190810160405280929190818152602001828054612b1190614b74565b8015612b5e5780601f10612b3357610100808354040283529160200191612b5e565b820191906000526020600020905b815481529060010190602001808311612b4157829003601f168201915b505050505090806003018054612b7390614b74565b80601f0160208091040260200160405190810160405280929190818152602001828054612b9f90614b74565b8015612bec5780601f10612bc157610100808354040283529160200191612bec565b820191906000526020600020905b815481529060010190602001808311612bcf57829003601f168201915b505050505090806004018054612c0190614b74565b80601f0160208091040260200160405190810160405280929190818152602001828054612c2d90614b74565b8015612c7a5780601f10612c4f57610100808354040283529160200191612c7a565b820191906000526020600020905b815481529060010190602001808311612c5d57829003601f168201915b5050505050908060060154905086565b60065481565b60098181548110612ca057600080fd5b90600052602060002090600a0201600091509050806000015490806001018054612cc990614b74565b80601f0160208091040260200160405190810160405280929190818152602001828054612cf590614b74565b8015612d425780601f10612d1757610100808354040283529160200191612d42565b820191906000526020600020905b815481529060010190602001808311612d2557829003601f168201915b505050505090806002015490806003018054612d5d90614b74565b80601f0160208091040260200160405190810160405280929190818152602001828054612d8990614b74565b8015612dd65780601f10612dab57610100808354040283529160200191612dd6565b820191906000526020600020905b815481529060010190602001808311612db957829003601f168201915b505050505090806004018054612deb90614b74565b80601f0160208091040260200160405190810160405280929190818152602001828054612e1790614b74565b8015612e645780601f10612e3957610100808354040283529160200191612e64565b820191906000526020600020905b815481529060010190602001808311612e4757829003601f168201915b505050505090806005018054612e7990614b74565b80601f0160208091040260200160405190810160405280929190818152602001828054612ea590614b74565b8015612ef25780601f10612ec757610100808354040283529160200191612ef2565b820191906000526020600020905b815481529060010190602001808311612ed557829003601f168201915b5050505050908060060154908060070154908060080160009054906101000a900473ffffffffffffffffffffffffffffffffffffffff16908060090160009054906101000a900473ffffffffffffffffffffffffffffffffffffffff16908060090160149054906101000a900460ff16908060090160159054906101000a900460ff1690508c565b612f83826117d7565b612f8c816134ea565b612f9683836135e6565b505050565b6060600780548060200260200160405190810160405280929190818152602001828054801561301f57602002820191906000526020600020905b8160009054906101000a900473ffffffffffffffffffffffffffffffffffffffff1673ffffffffffffffffffffffffffffffffffffffff1681526020019060010190808311612fd5575b5050505050905090565b7fa49807205ce4d355092ef5a8a18f56e8913cf4a201fbe287825b095693c21775613053816134ea565b600060016000815461306490614c6b565b919050819055905060006040518060e001604052808381526020018a815260200189815260200188815260200187815260200186815260200185815250905060088190806001815401808255809150506001900390600052602060002090600702016000909190919091506000820151816000015560208201518160010190816130ee9190614ecb565b5060408201518160020190816131049190614ecb565b50606082015181600301908161311a9190614ecb565b5060808201518160040190816131309190614ecb565b5060a082015181600501908051906020019061314d929190613a46565b5060c082015181600601555050505050505050505050565b7f7c6181838a71a779e445600d4c6ecbe16bacf2b3c5bda69c29fada66d1b645d181565b600460205281600052604060002081815481106131a557600080fd5b90600052602060002090600a0201600091509150508060000154908060010180546131cf90614b74565b80601f01602080910402602001604051908101604052809291908181526020018280546131fb90614b74565b80156132485780601f1061321d57610100808354040283529160200191613248565b820191906000526020600020905b81548152906001019060200180831161322b57829003601f168201915b50505050509080600201549080600301805461326390614b74565b80601f016020809104026020016040519081016040528092919081815260200182805461328f90614b74565b80156132dc5780601f106132b1576101008083540402835291602001916132dc565b820191906000526020600020905b8154815290600101906020018083116132bf57829003601f168201915b5050505050908060040180546132f190614b74565b80601f016020809104026020016040519081016040528092919081815260200182805461331d90614b74565b801561336a5780601f1061333f5761010080835404028352916020019161336a565b820191906000526020600020905b81548152906001019060200180831161334d57829003601f168201915b50505050509080600501805461337f90614b74565b80601f01602080910402602001604051908101604052809291908181526020018280546133ab90614b74565b80156133f85780601f106133cd576101008083540402835291602001916133f8565b820191906000526020600020905b8154815290600101906020018083116133db57829003601f168201915b5050505050908060060154908060070154908060080160009054906101000a900473ffffffffffffffffffffffffffffffffffffffff16908060090160009054906101000a900473ffffffffffffffffffffffffffffffffffffffff16908060090160149054906101000a900460ff16908060090160159054906101000a900460ff1690508c565b60007f01ffc9a7000000000000000000000000000000000000000000000000000000007bffffffffffffffffffffffffffffffffffffffffffffffffffffffff1916827bffffffffffffffffffffffffffffffffffffffffffffffffffffffff1916149050919050565b6134fb816134f66135de565b6136c7565b50565b61350882826126f8565b6135da57600160008084815260200190815260200160002060000160008373ffffffffffffffffffffffffffffffffffffffff1673ffffffffffffffffffffffffffffffffffffffff16815260200190815260200160002060006101000a81548160ff02191690831515021790555061357f6135de565b73ffffffffffffffffffffffffffffffffffffffff168173ffffffffffffffffffffffffffffffffffffffff16837f2f8788117e7eff1d82e926ec794901d17c78024a50270940304540a733656f0d60405160405180910390a45b5050565b600033905090565b6135f082826126f8565b156136c357600080600084815260200190815260200160002060000160008373ffffffffffffffffffffffffffffffffffffffff1673ffffffffffffffffffffffffffffffffffffffff16815260200190815260200160002060006101000a81548160ff0219169083151502179055506136686135de565b73ffffffffffffffffffffffffffffffffffffffff168173ffffffffffffffffffffffffffffffffffffffff16837ff6391f5c32d9c69d2a47ea670b442974b53935d1edc7fd64eb21e047a839171b60405160405180910390a45b5050565b6136d182826126f8565b613748576136de8161374c565b6136ec8360001c6020613779565b6040516020016136fd9291906152b8565b6040516020818303038152906040526040517f08c379a000000000000000000000000000000000000000000000000000000000815260040161373f91906152f2565b60405180910390fd5b5050565b60606137728273ffffffffffffffffffffffffffffffffffffffff16601460ff16613779565b9050919050565b60606000600283600261378c91906151a2565b6137969190614c03565b67ffffffffffffffff8111156137af576137ae61428c565b5b6040519080825280601f01601f1916602001820160405280156137e15781602001600182028036833780820191505090505b5090507f30000000000000000000000000000000000000000000000000000000000000008160008151811061381957613818614ba5565b5b60200101907effffffffffffffffffffffffffffffffffffffffffffffffffffffffffffff1916908160001a9053507f78000000000000000000000000000000000000000000000000000000000000008160018151811061387d5761387c614ba5565b5b60200101907effffffffffffffffffffffffffffffffffffffffffffffffffffffffffffff1916908160001a905350600060018460026138bd91906151a2565b6138c79190614c03565b90505b6001811115613967577f3031323334353637383961626364656600000000000000000000000000000000600f86166010811061390957613908614ba5565b5b1a60f81b8282815181106139205761391f614ba5565b5b60200101907effffffffffffffffffffffffffffffffffffffffffffffffffffffffffffff1916908160001a905350600485901c94508061396090615314565b90506138ca565b50600084146139ab576040517f08c379a00000000000000000000000000000000000000000000000000000000081526004016139a290615389565b60405180910390fd5b8091505092915050565b6040518061018001604052806000815260200160608152602001600081526020016060815260200160608152602001606081526020016000815260200160008152602001600073ffffffffffffffffffffffffffffffffffffffff168152602001600073ffffffffffffffffffffffffffffffffffffffff1681526020016000151581526020016000151581525090565b828054828255906000526020600020908101928215613a8e579160200282015b82811115613a8d578251829081613a7d9190614ecb565b5091602001919060010190613a66565b5b509050613a9b9190613a9f565b5090565b5b80821115613abf5760008181613ab69190613ac3565b50600101613aa0565b5090565b508054613acf90614b74565b6000825580601f10613ae15750613b00565b601f016020900490600052602060002090810190613aff9190613b03565b5b50565b5b80821115613b1c576000816000905550600101613b04565b5090565b6000604051905090565b600080fd5b600080fd5b60007fffffffff0000000000000000000000000000000000000000000000000000000082169050919050565b613b6981613b34565b8114613b7457600080fd5b50565b600081359050613b8681613b60565b92915050565b600060208284031215613ba257613ba1613b2a565b5b6000613bb084828501613b77565b91505092915050565b60008115159050919050565b613bce81613bb9565b82525050565b6000602082019050613be96000830184613bc5565b92915050565b600073ffffffffffffffffffffffffffffffffffffffff82169050919050565b6000613c1a82613bef565b9050919050565b613c2a81613c0f565b8114613c3557600080fd5b50565b600081359050613c4781613c21565b92915050565b600060208284031215613c6357613c62613b2a565b5b6000613c7184828501613c38565b91505092915050565b600081519050919050565b600082825260208201905092915050565b6000819050602082019050919050565b6000819050919050565b613cb981613ca6565b82525050565b600081519050919050565b600082825260208201905092915050565b60005b83811015613cf9578082015181840152602081019050613cde565b60008484015250505050565b6000601f19601f8301169050919050565b6000613d2182613cbf565b613d2b8185613cca565b9350613d3b818560208601613cdb565b613d4481613d05565b840191505092915050565b613d5881613c0f565b82525050565b613d6781613bb9565b82525050565b600061018083016000830151613d866000860182613cb0565b5060208301518482036020860152613d9e8282613d16565b9150506040830151613db36040860182613cb0565b5060608301518482036060860152613dcb8282613d16565b91505060808301518482036080860152613de58282613d16565b91505060a083015184820360a0860152613dff8282613d16565b91505060c0830151613e1460c0860182613cb0565b5060e0830151613e2760e0860182613cb0565b50610100830151613e3c610100860182613d4f565b50610120830151613e51610120860182613d4f565b50610140830151613e66610140860182613d5e565b50610160830151613e7b610160860182613d5e565b508091505092915050565b6000613e928383613d6d565b905092915050565b6000602082019050919050565b6000613eb282613c7a565b613ebc8185613c85565b935083602082028501613ece85613c96565b8060005b85811015613f0a5784840389528151613eeb8582613e86565b9450613ef683613e9a565b925060208a01995050600181019050613ed2565b50829750879550505050505092915050565b60006020820190508181036000830152613f368184613ea7565b905092915050565b600081519050919050565b600082825260208201905092915050565b6000819050602082019050919050565b600081519050919050565b600082825260208201905092915050565b6000819050602082019050919050565b6000613fa28383613d16565b905092915050565b6000602082019050919050565b6000613fc282613f6a565b613fcc8185613f75565b935083602082028501613fde85613f86565b8060005b8581101561401a5784840389528151613ffb8582613f96565b945061400683613faa565b925060208a01995050600181019050613fe2565b50829750879550505050505092915050565b600060e0830160008301516140446000860182613cb0565b506020830151848203602086015261405c8282613d16565b915050604083015184820360408601526140768282613d16565b915050606083015184820360608601526140908282613d16565b915050608083015184820360808601526140aa8282613d16565b91505060a083015184820360a08601526140c48282613fb7565b91505060c08301516140d960c0860182613cb0565b508091505092915050565b60006140f0838361402c565b905092915050565b6000602082019050919050565b600061411082613f3e565b61411a8185613f49565b93508360208202850161412c85613f5a565b8060005b85811015614168578484038952815161414985826140e4565b9450614154836140f8565b925060208a01995050600181019050614130565b50829750879550505050505092915050565b600060208201905081810360008301526141948184614105565b905092915050565b6141a581613ca6565b81146141b057600080fd5b50565b6000813590506141c28161419c565b92915050565b6000602082840312156141de576141dd613b2a565b5b60006141ec848285016141b3565b91505092915050565b6000819050919050565b614208816141f5565b811461421357600080fd5b50565b600081359050614225816141ff565b92915050565b60006020828403121561424157614240613b2a565b5b600061424f84828501614216565b91505092915050565b614261816141f5565b82525050565b600060208201905061427c6000830184614258565b92915050565b600080fd5b600080fd5b7f4e487b7100000000000000000000000000000000000000000000000000000000600052604160045260246000fd5b6142c482613d05565b810181811067ffffffffffffffff821117156142e3576142e261428c565b5b80604052505050565b60006142f6613b20565b905061430282826142bb565b919050565b600067ffffffffffffffff8211156143225761432161428c565b5b61432b82613d05565b9050602081019050919050565b82818337600083830152505050565b600061435a61435584614307565b6142ec565b90508281526020810184848401111561437657614375614287565b5b614381848285614338565b509392505050565b600082601f83011261439e5761439d614282565b5b81356143ae848260208601614347565b91505092915050565b600080600080600080600060e0888a0312156143d6576143d5613b2a565b5b600088013567ffffffffffffffff8111156143f4576143f3613b2f565b5b6144008a828b01614389565b97505060206144118a828b016141b3565b965050604088013567ffffffffffffffff81111561443257614431613b2f565b5b61443e8a828b01614389565b955050606088013567ffffffffffffffff81111561445f5761445e613b2f565b5b61446b8a828b01614389565b945050608088013567ffffffffffffffff81111561448c5761448b613b2f565b5b6144988a828b01614389565b93505060a06144a98a828b016141b3565b92505060c06144ba8a828b016141b3565b91505092959891949750929550565b600080604083850312156144e0576144df613b2a565b5b60006144ee85828601614216565b92505060206144ff85828601613c38565b9150509250929050565b6000610180830160008301516145226000860182613cb0565b506020830151848203602086015261453a8282613d16565b915050604083015161454f6040860182613cb0565b50606083015184820360608601526145678282613d16565b915050608083015184820360808601526145818282613d16565b91505060a083015184820360a086015261459b8282613d16565b91505060c08301516145b060c0860182613cb0565b5060e08301516145c360e0860182613cb0565b506101008301516145d8610100860182613d4f565b506101208301516145ed610120860182613d4f565b50610140830151614602610140860182613d5e565b50610160830151614617610160860182613d5e565b508091505092915050565b6000602082019050818103600083015261463c8184614509565b905092915050565b61464d81613c0f565b82525050565b60006020820190506146686000830184614644565b92915050565b600081519050919050565b600082825260208201905092915050565b6000819050602082019050919050565b60006146a68383613d4f565b60208301905092915050565b6000602082019050919050565b60006146ca8261466e565b6146d48185614679565b93506146df8361468a565b8060005b838110156147105781516146f7888261469a565b9750614702836146b2565b9250506001810190506146e3565b5085935050505092915050565b6000602082019050818103600083015261473781846146bf565b905092915050565b6000806040838503121561475657614755613b2a565b5b600061476485828601613c38565b9250506020614775858286016141b3565b9150509250929050565b61478881613ca6565b82525050565b600082825260208201905092915050565b60006147aa82613cbf565b6147b4818561478e565b93506147c4818560208601613cdb565b6147cd81613d05565b840191505092915050565b600060c0820190506147ed600083018961477f565b81810360208301526147ff818861479f565b90508181036040830152614813818761479f565b90508181036060830152614827818661479f565b9050818103608083015261483b818561479f565b905061484a60a083018461477f565b979650505050505050565b600060208201905061486a600083018461477f565b92915050565b600061018082019050614886600083018f61477f565b8181036020830152614898818e61479f565b90506148a7604083018d61477f565b81810360608301526148b9818c61479f565b905081810360808301526148cd818b61479f565b905081810360a08301526148e1818a61479f565b90506148f060c083018961477f565b6148fd60e083018861477f565b61490b610100830187614644565b614919610120830186614644565b614927610140830185613bc5565b614935610160830184613bc5565b9d9c50505050505050505050505050565b600067ffffffffffffffff8211156149615761496061428c565b5b602082029050602081019050919050565b600080fd5b600061498a61498584614946565b6142ec565b905080838252602082019050602084028301858111156149ad576149ac614972565b5b835b818110156149f457803567ffffffffffffffff8111156149d2576149d1614282565b5b8086016149df8982614389565b855260208501945050506020810190506149af565b5050509392505050565b600082601f830112614a1357614a12614282565b5b8135614a23848260208601614977565b91505092915050565b60008060008060008060c08789031215614a4957614a48613b2a565b5b600087013567ffffffffffffffff811115614a6757614a66613b2f565b5b614a7389828a01614389565b965050602087013567ffffffffffffffff811115614a9457614a93613b2f565b5b614aa089828a01614389565b955050604087013567ffffffffffffffff811115614ac157614ac0613b2f565b5b614acd89828a01614389565b945050606087013567ffffffffffffffff811115614aee57614aed613b2f565b5b614afa89828a01614389565b935050608087013567ffffffffffffffff811115614b1b57614b1a613b2f565b5b614b2789828a016149fe565b92505060a0614b3889828a016141b3565b9150509295509295509295565b7f4e487b7100000000000000000000000000000000000000000000000000000000600052602260045260246000fd5b60006002820490506001821680614b8c57607f821691505b602082108103614b9f57614b9e614b45565b5b50919050565b7f4e487b7100000000000000000000000000000000000000000000000000000000600052603260045260246000fd5b7f4e487b7100000000000000000000000000000000000000000000000000000000600052601160045260246000fd5b6000614c0e82613ca6565b9150614c1983613ca6565b9250828201905080821115614c3157614c30614bd4565b5b92915050565b6000614c4282613ca6565b9150614c4d83613ca6565b9250828203905081811115614c6557614c64614bd4565b5b92915050565b6000614c7682613ca6565b91507fffffffffffffffffffffffffffffffffffffffffffffffffffffffffffffffff8203614ca857614ca7614bd4565b5b600182019050919050565b7f41504d4320446f65736e74206578697374000000000000000000000000000000600082015250565b6000614ce960118361478e565b9150614cf482614cb3565b602082019050919050565b60006020820190508181036000830152614d1881614cdc565b9050919050565b60008190508160005260206000209050919050565b60006020601f8301049050919050565b600082821b905092915050565b600060088302614d817fffffffffffffffffffffffffffffffffffffffffffffffffffffffffffffffff82614d44565b614d8b8683614d44565b95508019841693508086168417925050509392505050565b6000819050919050565b6000614dc8614dc3614dbe84613ca6565b614da3565b613ca6565b9050919050565b6000819050919050565b614de283614dad565b614df6614dee82614dcf565b848454614d51565b825550505050565b600090565b614e0b614dfe565b614e16818484614dd9565b505050565b5b81811015614e3a57614e2f600082614e03565b600181019050614e1c565b5050565b601f821115614e7f57614e5081614d1f565b614e5984614d34565b81016020851015614e68578190505b614e7c614e7485614d34565b830182614e1b565b50505b505050565b600082821c905092915050565b6000614ea260001984600802614e84565b1980831691505092915050565b6000614ebb8383614e91565b9150826002028217905092915050565b614ed482613cbf565b67ffffffffffffffff811115614eed57614eec61428c565b5b614ef78254614b74565b614f02828285614e3e565b600060209050601f831160018114614f355760008415614f23578287015190505b614f2d8582614eaf565b865550614f95565b601f198416614f4386614d1f565b60005b82811015614f6b57848901518255600182019150602085019450602081019050614f46565b86831015614f885784890151614f84601f891682614e91565b8355505b6001600288020188555050505b505050505050565b7f416363657373436f6e74726f6c3a2063616e206f6e6c792072656e6f756e636560008201527f20726f6c657320666f722073656c660000000000000000000000000000000000602082015250565b6000614ff9602f8361478e565b915061500482614f9d565b604082019050919050565b6000602082019050818103600083015261502881614fec565b9050919050565b7f4e487b7100000000000000000000000000000000000000000000000000000000600052603160045260246000fd5b7f496e76616c69642070726f647563742049440000000000000000000000000000600082015250565b600061509460128361478e565b915061509f8261505e565b602082019050919050565b600060208201905081810360008301526150c381615087565b9050919050565b7f50726f6475637420697320616c726561647920736f6c64000000000000000000600082015250565b600061510060178361478e565b915061510b826150ca565b602082019050919050565b6000602082019050818103600083015261512f816150f3565b9050919050565b7f496e73756666696369656e742066756e64730000000000000000000000000000600082015250565b600061516c60128361478e565b915061517782615136565b602082019050919050565b6000602082019050818103600083015261519b8161515f565b9050919050565b60006151ad82613ca6565b91506151b883613ca6565b92508282026151c681613ca6565b915082820484148315176151dd576151dc614bd4565b5b5092915050565b600081905092915050565b7f416363657373436f6e74726f6c3a206163636f756e7420000000000000000000600082015250565b60006152256017836151e4565b9150615230826151ef565b601782019050919050565b600061524682613cbf565b61525081856151e4565b9350615260818560208601613cdb565b80840191505092915050565b7f206973206d697373696e6720726f6c6520000000000000000000000000000000600082015250565b60006152a26011836151e4565b91506152ad8261526c565b601182019050919050565b60006152c382615218565b91506152cf828561523b565b91506152da82615295565b91506152e6828461523b565b91508190509392505050565b6000602082019050818103600083015261530c818461479f565b905092915050565b600061531f82613ca6565b91506000820361533257615331614bd4565b5b600182039050919050565b7f537472696e67733a20686578206c656e67746820696e73756666696369656e74600082015250565b600061537360208361478e565b915061537e8261533d565b602082019050919050565b600060208201905081810360008301526153a281615366565b905091905056fea2646970667358221220b2e7e990f1fef976ec4d8b29ff1b0d808a900d89dc0c7dc35992f077598847c564736f6c63430008130033",
  "immutableReferences": {},
  "source": "// SPDX-License-Identifier: GPL-3.0\r\n\r\npragma solidity 0.8.19;\r\nimport \"@openzeppelin/contracts/access/AccessControl.sol\";\r\n\r\ncontract FarmerContract is AccessControl{\r\n    bytes32 public constant ADMIN_ROLE = keccak256(\"ADMIN_ROLE\");\r\n    bytes32 public constant FARMER_ROLE = keccak256(\"FARMER_ROLE\");\r\n    uint apmcscount;\r\n    uint productscount;\r\n    address owner;\r\n    // MyContract myContract = new MyContract();\r\n    constructor() payable {\r\n        _grantRole(DEFAULT_ADMIN_ROLE, msg.sender); // Set the contract deployer as the default admin\r\n        _grantRole(ADMIN_ROLE, msg.sender);\r\n        owner = msg.sender;\r\n        apmcscount = 0;\r\n        productscount = 0;\r\n    }\r\n\r\n    //Unique commodities fixed in Frontend\r\n\r\n    struct APMC{\r\n       uint apmcid;\r\n       string apmcname;\r\n       string addressloc;\r\n       string state;\r\n       string district;\r\n       string[] commoditiestraded;\r\n       uint contact;\r\n    }\r\n\r\n    struct productDetails {\r\n        uint productId;\r\n        string commodityName ;\r\n        uint256 quantity ;\r\n        string unit;\r\n        string image;\r\n        string tplicence;\r\n        uint256 msp;\r\n        uint apmcid;\r\n        address curowner;\r\n        address buyer;\r\n        bool sold ;\r\n        bool quality;\r\n    }\r\n    mapping(address => productDetails[]) public farmerProducts;\r\n    address[] public farmerAddresses; //All farmers\r\n    uint256 public farmerCount;\r\n    address[] public farmerRequests;\r\n    APMC[] public apmcs;\r\n    productDetails[] public allProducts;\r\n    function addOfficial(address _adminacc) public onlyRole(ADMIN_ROLE){\r\n        grantRole(ADMIN_ROLE, _adminacc);\r\n    }\r\n    \r\n    function canAccessResource(address user) public view onlyRole(ADMIN_ROLE) returns (bool) {\r\n        return hasRole(ADMIN_ROLE, user);\r\n    }\r\n\r\n    function farmerRegistration(\r\n        address _addressvar\r\n    ) public {\r\n        farmerCount++;\r\n        farmerRequests.push(_addressvar);\r\n    }\r\n\r\n    function addAPMC(\r\n        string memory _apmcname,\r\n        string memory _addressloc,\r\n        string memory _state,\r\n        string memory _district,\r\n        string[] memory _commoditiestraded,\r\n        uint _contact\r\n    ) public onlyRole(ADMIN_ROLE){\r\n        uint apmcid = ++apmcscount;\r\n        APMC memory newAPMC = APMC(apmcid,_apmcname,_addressloc,_state, _district, _commoditiestraded, _contact);\r\n        apmcs.push(newAPMC);\r\n    }\r\n\r\n    function addProduct( string memory _name , uint256 quantity , string memory _unit , string memory _img ,string memory _tplic,uint apmcid, uint256 msp) public payable onlyRole(FARMER_ROLE){\r\n        require(apmcid <= apmcscount,\"APMC Doesnt exist\");\r\n        \r\n        productDetails  memory newProduct = productDetails({\r\n            productId: productscount,\r\n            commodityName : _name,\r\n            quantity : quantity,\r\n            unit : _unit ,\r\n            image : _img ,\r\n            tplicence: _tplic,\r\n            msp: msp, //From frontend fixed\r\n            apmcid: apmcid,\r\n            sold : false,\r\n            curowner: msg.sender,\r\n            buyer: address(0),\r\n            quality: false\r\n        });\r\n            farmerProducts[msg.sender].push(newProduct);\r\n            allProducts.push(newProduct);\r\n            productscount++;    \r\n        }\r\n\r\n\r\n    function getFarmerProducts(address _addressvar) public view returns(productDetails[] memory){\r\n        return farmerProducts[_addressvar];\r\n    }\r\n    function grantRoleToFarmer(address _farmer) public onlyRole(ADMIN_ROLE) {\r\n\r\n    // Remove the address from the farmerRequests array.\r\n    for (uint256 i = 0; i < farmerRequests.length; i++) {\r\n        if (farmerRequests[i] == _farmer) {\r\n            farmerRequests[i] = farmerRequests[farmerRequests.length - 1]; //swap the one at the very end with the i'th\r\n            farmerRequests.pop();\r\n            break;\r\n        }\r\n    }\r\n\r\n    // Grant the FARMER_ROLE to the address.\r\n    grantRole(FARMER_ROLE, _farmer);\r\n\r\n    // Add the address to the farmerAddresses array.\r\n    farmerAddresses.push(_farmer);\r\n    }\r\n\r\n    function getFarmers() public view returns (address[] memory) {\r\n        return farmerAddresses;\r\n    }\r\n\r\n    function getFarmersRequests() public view returns (address[] memory) {\r\n        return farmerRequests;\r\n    }\r\n\r\n    function getAllFarmerProducts() public view returns(productDetails[] memory){\r\n        return allProducts;\r\n    }\r\n\r\n    function getAllAPMC() public view returns(APMC[] memory){\r\n        return apmcs;\r\n    }\r\n\r\n    function getAProduct(uint productId) public view returns(productDetails memory){\r\n        return allProducts[productId];\r\n    }\r\n\r\n    function getProductsinAPMC(uint apmcid) public view returns(productDetails[] memory){\r\n         productDetails[] memory result;\r\n\r\n    // Iterate through all products\r\n    for (uint i = 0; i < allProducts.length; i++) {\r\n        // Check if the product belongs to the specified APMC ID\r\n        if (allProducts[i].apmcid == apmcid) {\r\n            // Increase the size of the result array by 1 and add the product\r\n            result = new productDetails[](result.length + 1);\r\n            result[result.length - 1] = allProducts[i];\r\n        }\r\n    }\r\n\r\n    return result;\r\n    }\r\n\r\n    function inspectFoodSafety(uint productId) public payable{\r\n        require(productId <= allProducts.length, \"Invalid product ID\");\r\n        allProducts[productId].quality = true;\r\n    }\r\n\r\n    function buyProduct(uint productId) public payable {\r\n    require(productId <= allProducts.length, \"Invalid product ID\");\r\n    require(allProducts[productId].sold == false, \"Product is already sold\");\r\n\r\n    // Calculate the total price to be paid\r\n    uint totalPrice = allProducts[productId].msp;\r\n    require(msg.value >= totalPrice, \"Insufficient funds\");\r\n\r\n    // Mark the product as sold\r\n    allProducts[productId].sold = true;\r\n    allProducts[productId].curowner = msg.sender;\r\n\r\n    // Transfer the amount to the farmer\r\n    payable(allProducts[productId].curowner).transfer(totalPrice);\r\n}\r\n\r\n    function sellFoodtoDistri(address distri,uint productId) public payable{\r\n        require(productId <= allProducts.length, \"Invalid product ID\");\r\n        uint totalPrice = allProducts[productId].msp * allProducts[productId].quantity;\r\n        require(msg.value >= totalPrice, \"Insufficient funds\");\r\n        \r\n        allProducts[productId].curowner = distri;\r\n        payable(msg.sender).transfer(totalPrice);\r\n    }\r\n\r\n}",
  "sourcePath": "C:\\Users\\USER\\Documents\\vscode\\PDS_Security\\contracts\\FarmerContract.sol",
  "compiler": {
    "name": "solc",
    "version": "0.8.19+commit.7dd6d404.Emscripten.clang"
  },
  "schemaVersion": "3.4.13",
  "updatedAt": "2024-04-15T17:15:29.237Z",
  "networkType": "ethereum",
  "devdoc": {
    "events": {
      "RoleAdminChanged(bytes32,bytes32,bytes32)": {
        "details": "Emitted when `newAdminRole` is set as ``role``'s admin role, replacing `previousAdminRole` `DEFAULT_ADMIN_ROLE` is the starting admin for all roles, despite {RoleAdminChanged} not being emitted signaling this. _Available since v3.1._"
      },
      "RoleGranted(bytes32,address,address)": {
        "details": "Emitted when `account` is granted `role`. `sender` is the account that originated the contract call, an admin role bearer except when using {AccessControl-_setupRole}."
      },
      "RoleRevoked(bytes32,address,address)": {
        "details": "Emitted when `account` is revoked `role`. `sender` is the account that originated the contract call:   - if using `revokeRole`, it is the admin role bearer   - if using `renounceRole`, it is the role bearer (i.e. `account`)"
      }
    },
    "kind": "dev",
    "methods": {
      "getRoleAdmin(bytes32)": {
        "details": "Returns the admin role that controls `role`. See {grantRole} and {revokeRole}. To change a role's admin, use {_setRoleAdmin}."
      },
      "grantRole(bytes32,address)": {
        "details": "Grants `role` to `account`. If `account` had not been already granted `role`, emits a {RoleGranted} event. Requirements: - the caller must have ``role``'s admin role. May emit a {RoleGranted} event."
      },
      "hasRole(bytes32,address)": {
        "details": "Returns `true` if `account` has been granted `role`."
      },
      "renounceRole(bytes32,address)": {
        "details": "Revokes `role` from the calling account. Roles are often managed via {grantRole} and {revokeRole}: this function's purpose is to provide a mechanism for accounts to lose their privileges if they are compromised (such as when a trusted device is misplaced). If the calling account had been revoked `role`, emits a {RoleRevoked} event. Requirements: - the caller must be `account`. May emit a {RoleRevoked} event."
      },
      "revokeRole(bytes32,address)": {
        "details": "Revokes `role` from `account`. If `account` had been granted `role`, emits a {RoleRevoked} event. Requirements: - the caller must have ``role``'s admin role. May emit a {RoleRevoked} event."
      },
      "supportsInterface(bytes4)": {
        "details": "See {IERC165-supportsInterface}."
      }
    },
    "version": 1
  },
  "userdoc": {
    "kind": "user",
    "methods": {},
    "version": 1
  }
}