{
  "contractName": "FarmerContract",
  "abi": [
    {
      "inputs": [],
      "stateMutability": "payable",
      "type": "constructor"
    },
    {
      "inputs": [],
      "name": "AccessControlBadConfirmation",
      "type": "error"
    },
    {
      "inputs": [
        {
          "internalType": "address",
          "name": "account",
          "type": "address"
        },
        {
          "internalType": "bytes32",
          "name": "neededRole",
          "type": "bytes32"
        }
      ],
      "name": "AccessControlUnauthorizedAccount",
      "type": "error"
    },
    {
      "anonymous": false,
      "inputs": [
        {
          "indexed": true,
          "internalType": "bytes32",
          "name": "role",
          "type": "bytes32"
        },
        {
          "indexed": true,
          "internalType": "bytes32",
          "name": "previousAdminRole",
          "type": "bytes32"
        },
        {
          "indexed": true,
          "internalType": "bytes32",
          "name": "newAdminRole",
          "type": "bytes32"
        }
      ],
      "name": "RoleAdminChanged",
      "type": "event"
    },
    {
      "anonymous": false,
      "inputs": [
        {
          "indexed": true,
          "internalType": "bytes32",
          "name": "role",
          "type": "bytes32"
        },
        {
          "indexed": true,
          "internalType": "address",
          "name": "account",
          "type": "address"
        },
        {
          "indexed": true,
          "internalType": "address",
          "name": "sender",
          "type": "address"
        }
      ],
      "name": "RoleGranted",
      "type": "event"
    },
    {
      "anonymous": false,
      "inputs": [
        {
          "indexed": true,
          "internalType": "bytes32",
          "name": "role",
          "type": "bytes32"
        },
        {
          "indexed": true,
          "internalType": "address",
          "name": "account",
          "type": "address"
        },
        {
          "indexed": true,
          "internalType": "address",
          "name": "sender",
          "type": "address"
        }
      ],
      "name": "RoleRevoked",
      "type": "event"
    },
    {
      "inputs": [],
      "name": "ADMIN_ROLE",
      "outputs": [
        {
          "internalType": "bytes32",
          "name": "",
          "type": "bytes32"
        }
      ],
      "stateMutability": "view",
      "type": "function"
    },
    {
      "inputs": [],
      "name": "DEFAULT_ADMIN_ROLE",
      "outputs": [
        {
          "internalType": "bytes32",
          "name": "",
          "type": "bytes32"
        }
      ],
      "stateMutability": "view",
      "type": "function"
    },
    {
      "inputs": [],
      "name": "FARMER_ROLE",
      "outputs": [
        {
          "internalType": "bytes32",
          "name": "",
          "type": "bytes32"
        }
      ],
      "stateMutability": "view",
      "type": "function"
    },
    {
      "inputs": [
        {
          "internalType": "uint256",
          "name": "",
          "type": "uint256"
        }
      ],
      "name": "farmerAddresses",
      "outputs": [
        {
          "internalType": "address",
          "name": "",
          "type": "address"
        }
      ],
      "stateMutability": "view",
      "type": "function"
    },
    {
      "inputs": [],
      "name": "farmerCount",
      "outputs": [
        {
          "internalType": "uint256",
          "name": "",
          "type": "uint256"
        }
      ],
      "stateMutability": "view",
      "type": "function"
    },
    {
      "inputs": [
        {
          "internalType": "uint256",
          "name": "",
          "type": "uint256"
        }
      ],
      "name": "farmerRequests",
      "outputs": [
        {
          "internalType": "address",
          "name": "",
          "type": "address"
        }
      ],
      "stateMutability": "view",
      "type": "function"
    },
    {
      "inputs": [
        {
          "internalType": "bytes32",
          "name": "role",
          "type": "bytes32"
        }
      ],
      "name": "getRoleAdmin",
      "outputs": [
        {
          "internalType": "bytes32",
          "name": "",
          "type": "bytes32"
        }
      ],
      "stateMutability": "view",
      "type": "function"
    },
    {
      "inputs": [
        {
          "internalType": "bytes32",
          "name": "role",
          "type": "bytes32"
        },
        {
          "internalType": "address",
          "name": "account",
          "type": "address"
        }
      ],
      "name": "grantRole",
      "outputs": [],
      "stateMutability": "nonpayable",
      "type": "function"
    },
    {
      "inputs": [
        {
          "internalType": "bytes32",
          "name": "role",
          "type": "bytes32"
        },
        {
          "internalType": "address",
          "name": "account",
          "type": "address"
        }
      ],
      "name": "hasRole",
      "outputs": [
        {
          "internalType": "bool",
          "name": "",
          "type": "bool"
        }
      ],
      "stateMutability": "view",
      "type": "function"
    },
    {
      "inputs": [
        {
          "internalType": "bytes32",
          "name": "role",
          "type": "bytes32"
        },
        {
          "internalType": "address",
          "name": "callerConfirmation",
          "type": "address"
        }
      ],
      "name": "renounceRole",
      "outputs": [],
      "stateMutability": "nonpayable",
      "type": "function"
    },
    {
      "inputs": [
        {
          "internalType": "bytes32",
          "name": "role",
          "type": "bytes32"
        },
        {
          "internalType": "address",
          "name": "account",
          "type": "address"
        }
      ],
      "name": "revokeRole",
      "outputs": [],
      "stateMutability": "nonpayable",
      "type": "function"
    },
    {
      "inputs": [
        {
          "internalType": "bytes4",
          "name": "interfaceId",
          "type": "bytes4"
        }
      ],
      "name": "supportsInterface",
      "outputs": [
        {
          "internalType": "bool",
          "name": "",
          "type": "bool"
        }
      ],
      "stateMutability": "view",
      "type": "function"
    },
    {
      "inputs": [
        {
          "internalType": "address",
          "name": "_adminacc",
          "type": "address"
        }
      ],
      "name": "addOfficial",
      "outputs": [],
      "stateMutability": "nonpayable",
      "type": "function"
    },
    {
      "inputs": [
        {
          "internalType": "address",
          "name": "user",
          "type": "address"
        }
      ],
      "name": "canAccessResource",
      "outputs": [
        {
          "internalType": "bool",
          "name": "",
          "type": "bool"
        }
      ],
      "stateMutability": "view",
      "type": "function"
    },
    {
      "inputs": [
        {
          "internalType": "address",
          "name": "_address",
          "type": "address"
        }
      ],
      "name": "farmerRegistration",
      "outputs": [],
      "stateMutability": "nonpayable",
      "type": "function"
    },
    {
      "inputs": [
        {
          "internalType": "address",
          "name": "_farmer",
          "type": "address"
        }
      ],
      "name": "grantRoleToFarmer",
      "outputs": [],
      "stateMutability": "nonpayable",
      "type": "function"
    },
    {
      "inputs": [],
      "name": "getFarmers",
      "outputs": [
        {
          "internalType": "address[]",
          "name": "",
          "type": "address[]"
        }
      ],
      "stateMutability": "view",
      "type": "function"
    },
    {
      "inputs": [],
      "name": "getFarmersRequests",
      "outputs": [
        {
          "internalType": "address[]",
          "name": "",
          "type": "address[]"
        }
      ],
      "stateMutability": "view",
      "type": "function"
    }
  ],
  "bytecode": "0x60806040526100165f801b3361008d60201b60201c565b506100477fa49807205ce4d355092ef5a8a18f56e8913cf4a201fbe287825b095693c217753361008d60201b60201c565b503360015f6101000a81548173ffffffffffffffffffffffffffffffffffffffff021916908373ffffffffffffffffffffffffffffffffffffffff1602179055506101ec565b5f61009e838361018260201b60201c565b6101785760015f808581526020019081526020015f205f015f8473ffffffffffffffffffffffffffffffffffffffff1673ffffffffffffffffffffffffffffffffffffffff1681526020019081526020015f205f6101000a81548160ff0219169083151502179055506101156101e560201b60201c565b73ffffffffffffffffffffffffffffffffffffffff168273ffffffffffffffffffffffffffffffffffffffff16847f2f8788117e7eff1d82e926ec794901d17c78024a50270940304540a733656f0d60405160405180910390a46001905061017c565b5f90505b92915050565b5f805f8481526020019081526020015f205f015f8373ffffffffffffffffffffffffffffffffffffffff1673ffffffffffffffffffffffffffffffffffffffff1681526020019081526020015f205f9054906101000a900460ff16905092915050565b5f33905090565b611216806101f95f395ff3fe608060405234801561000f575f80fd5b5060043610610114575f3560e01c8063789f8d40116100a0578063b9cc16141161006f578063b9cc1614146102ee578063bd45b3971461031e578063d547741f1461033c578063d9a94c6014610358578063f39439701461037657610114565b8063789f8d401461026657806391d1485414610284578063a217fddf146102b4578063ac840db0146102d257610114565b806336ef11b0116100e757806336ef11b0146101b0578063456154f5146101e057806369a4d569146101fc5780636e91ef811461022c57806375b238fc1461024857610114565b806301ffc9a714610118578063248a9ca3146101485780632f2ff15d1461017857806336568abe14610194575b5f80fd5b610132600480360381019061012d9190610d8c565b610394565b60405161013f9190610dd1565b60405180910390f35b610162600480360381019061015d9190610e1d565b61040d565b60405161016f9190610e57565b60405180910390f35b610192600480360381019061018d9190610eca565b610429565b005b6101ae60048036038101906101a99190610eca565b61044b565b005b6101ca60048036038101906101c59190610f08565b6104c6565b6040516101d79190610dd1565b60405180910390f35b6101fa60048036038101906101f59190610f08565b610523565b005b61021660048036038101906102119190610f66565b610755565b6040516102239190610fa0565b60405180910390f35b61024660048036038101906102419190610f08565b610790565b005b61025061080a565b60405161025d9190610e57565b60405180910390f35b61026e61082e565b60405161027b9190611070565b60405180910390f35b61029e60048036038101906102999190610eca565b6108b9565b6040516102ab9190610dd1565b60405180910390f35b6102bc61091c565b6040516102c99190610e57565b60405180910390f35b6102ec60048036038101906102e79190610f08565b610922565b005b61030860048036038101906103039190610f66565b61097a565b6040516103159190610fa0565b60405180910390f35b6103266109b5565b604051610333919061109f565b60405180910390f35b61035660048036038101906103519190610eca565b6109bb565b005b6103606109dd565b60405161036d9190611070565b60405180910390f35b61037e610a68565b60405161038b9190610e57565b60405180910390f35b5f7f7965db0b000000000000000000000000000000000000000000000000000000007bffffffffffffffffffffffffffffffffffffffffffffffffffffffff1916827bffffffffffffffffffffffffffffffffffffffffffffffffffffffff19161480610406575061040582610a8c565b5b9050919050565b5f805f8381526020019081526020015f20600101549050919050565b6104328261040d565b61043b81610af5565b6104458383610b09565b50505050565b610453610bf2565b73ffffffffffffffffffffffffffffffffffffffff168173ffffffffffffffffffffffffffffffffffffffff16146104b7576040517f6697b23200000000000000000000000000000000000000000000000000000000815260040160405180910390fd5b6104c18282610bf9565b505050565b5f7fa49807205ce4d355092ef5a8a18f56e8913cf4a201fbe287825b095693c217756104f181610af5565b61051b7fa49807205ce4d355092ef5a8a18f56e8913cf4a201fbe287825b095693c21775846108b9565b915050919050565b7fa49807205ce4d355092ef5a8a18f56e8913cf4a201fbe287825b095693c2177561054d81610af5565b5f5b6004805490508110156106c6578273ffffffffffffffffffffffffffffffffffffffff1660048281548110610587576105866110b8565b5b905f5260205f20015f9054906101000a900473ffffffffffffffffffffffffffffffffffffffff1673ffffffffffffffffffffffffffffffffffffffff16036106b957600460016004805490506105de9190611112565b815481106105ef576105ee6110b8565b5b905f5260205f20015f9054906101000a900473ffffffffffffffffffffffffffffffffffffffff166004828154811061062b5761062a6110b8565b5b905f5260205f20015f6101000a81548173ffffffffffffffffffffffffffffffffffffffff021916908373ffffffffffffffffffffffffffffffffffffffff160217905550600480548061068257610681611145565b5b600190038181905f5260205f20015f6101000a81549073ffffffffffffffffffffffffffffffffffffffff021916905590556106c6565b808060010191505061054f565b506106f17f7c6181838a71a779e445600d4c6ecbe16bacf2b3c5bda69c29fada66d1b645d183610429565b600282908060018154018082558091505060019003905f5260205f20015f9091909190916101000a81548173ffffffffffffffffffffffffffffffffffffffff021916908373ffffffffffffffffffffffffffffffffffffffff1602179055505050565b60048181548110610764575f80fd5b905f5260205f20015f915054906101000a900473ffffffffffffffffffffffffffffffffffffffff1681565b60035f8154809291906107a290611172565b9190505550600481908060018154018082558091505060019003905f5260205f20015f9091909190916101000a81548173ffffffffffffffffffffffffffffffffffffffff021916908373ffffffffffffffffffffffffffffffffffffffff16021790555050565b7fa49807205ce4d355092ef5a8a18f56e8913cf4a201fbe287825b095693c2177581565b606060028054806020026020016040519081016040528092919081815260200182805480156108af57602002820191905f5260205f20905b815f9054906101000a900473ffffffffffffffffffffffffffffffffffffffff1673ffffffffffffffffffffffffffffffffffffffff1681526020019060010190808311610866575b5050505050905090565b5f805f8481526020019081526020015f205f015f8373ffffffffffffffffffffffffffffffffffffffff1673ffffffffffffffffffffffffffffffffffffffff1681526020019081526020015f205f9054906101000a900460ff16905092915050565b5f801b81565b7fa49807205ce4d355092ef5a8a18f56e8913cf4a201fbe287825b095693c2177561094c81610af5565b6109767fa49807205ce4d355092ef5a8a18f56e8913cf4a201fbe287825b095693c2177583610429565b5050565b60028181548110610989575f80fd5b905f5260205f20015f915054906101000a900473ffffffffffffffffffffffffffffffffffffffff1681565b60035481565b6109c48261040d565b6109cd81610af5565b6109d78383610bf9565b50505050565b60606004805480602002602001604051908101604052809291908181526020018280548015610a5e57602002820191905f5260205f20905b815f9054906101000a900473ffffffffffffffffffffffffffffffffffffffff1673ffffffffffffffffffffffffffffffffffffffff1681526020019060010190808311610a15575b5050505050905090565b7f7c6181838a71a779e445600d4c6ecbe16bacf2b3c5bda69c29fada66d1b645d181565b5f7f01ffc9a7000000000000000000000000000000000000000000000000000000007bffffffffffffffffffffffffffffffffffffffffffffffffffffffff1916827bffffffffffffffffffffffffffffffffffffffffffffffffffffffff1916149050919050565b610b0681610b01610bf2565b610ce2565b50565b5f610b1483836108b9565b610be85760015f808581526020019081526020015f205f015f8473ffffffffffffffffffffffffffffffffffffffff1673ffffffffffffffffffffffffffffffffffffffff1681526020019081526020015f205f6101000a81548160ff021916908315150217905550610b85610bf2565b73ffffffffffffffffffffffffffffffffffffffff168273ffffffffffffffffffffffffffffffffffffffff16847f2f8788117e7eff1d82e926ec794901d17c78024a50270940304540a733656f0d60405160405180910390a460019050610bec565b5f90505b92915050565b5f33905090565b5f610c0483836108b9565b15610cd8575f805f8581526020019081526020015f205f015f8473ffffffffffffffffffffffffffffffffffffffff1673ffffffffffffffffffffffffffffffffffffffff1681526020019081526020015f205f6101000a81548160ff021916908315150217905550610c75610bf2565b73ffffffffffffffffffffffffffffffffffffffff168273ffffffffffffffffffffffffffffffffffffffff16847ff6391f5c32d9c69d2a47ea670b442974b53935d1edc7fd64eb21e047a839171b60405160405180910390a460019050610cdc565b5f90505b92915050565b610cec82826108b9565b610d2f5780826040517fe2517d3f000000000000000000000000000000000000000000000000000000008152600401610d269291906111b9565b60405180910390fd5b5050565b5f80fd5b5f7fffffffff0000000000000000000000000000000000000000000000000000000082169050919050565b610d6b81610d37565b8114610d75575f80fd5b50565b5f81359050610d8681610d62565b92915050565b5f60208284031215610da157610da0610d33565b5b5f610dae84828501610d78565b91505092915050565b5f8115159050919050565b610dcb81610db7565b82525050565b5f602082019050610de45f830184610dc2565b92915050565b5f819050919050565b610dfc81610dea565b8114610e06575f80fd5b50565b5f81359050610e1781610df3565b92915050565b5f60208284031215610e3257610e31610d33565b5b5f610e3f84828501610e09565b91505092915050565b610e5181610dea565b82525050565b5f602082019050610e6a5f830184610e48565b92915050565b5f73ffffffffffffffffffffffffffffffffffffffff82169050919050565b5f610e9982610e70565b9050919050565b610ea981610e8f565b8114610eb3575f80fd5b50565b5f81359050610ec481610ea0565b92915050565b5f8060408385031215610ee057610edf610d33565b5b5f610eed85828601610e09565b9250506020610efe85828601610eb6565b9150509250929050565b5f60208284031215610f1d57610f1c610d33565b5b5f610f2a84828501610eb6565b91505092915050565b5f819050919050565b610f4581610f33565b8114610f4f575f80fd5b50565b5f81359050610f6081610f3c565b92915050565b5f60208284031215610f7b57610f7a610d33565b5b5f610f8884828501610f52565b91505092915050565b610f9a81610e8f565b82525050565b5f602082019050610fb35f830184610f91565b92915050565b5f81519050919050565b5f82825260208201905092915050565b5f819050602082019050919050565b610feb81610e8f565b82525050565b5f610ffc8383610fe2565b60208301905092915050565b5f602082019050919050565b5f61101e82610fb9565b6110288185610fc3565b935061103383610fd3565b805f5b8381101561106357815161104a8882610ff1565b975061105583611008565b925050600181019050611036565b5085935050505092915050565b5f6020820190508181035f8301526110888184611014565b905092915050565b61109981610f33565b82525050565b5f6020820190506110b25f830184611090565b92915050565b7f4e487b71000000000000000000000000000000000000000000000000000000005f52603260045260245ffd5b7f4e487b71000000000000000000000000000000000000000000000000000000005f52601160045260245ffd5b5f61111c82610f33565b915061112783610f33565b925082820390508181111561113f5761113e6110e5565b5b92915050565b7f4e487b71000000000000000000000000000000000000000000000000000000005f52603160045260245ffd5b5f61117c82610f33565b91507fffffffffffffffffffffffffffffffffffffffffffffffffffffffffffffffff82036111ae576111ad6110e5565b5b600182019050919050565b5f6040820190506111cc5f830185610f91565b6111d96020830184610e48565b939250505056fea2646970667358221220e3039599849727bec07b1793608930f8674a115a7cce0a2b9eaad5f5edf9f9a564736f6c63430008170033",
  "immutableReferences": {},
  "source": "// SPDX-License-Identifier: GPL-3.0\r\n\r\npragma solidity ^0.8.19;\r\nimport \"@openzeppelin/contracts/access/AccessControl.sol\";\r\n\r\ncontract FarmerContract is AccessControl{\r\n    bytes32 public constant ADMIN_ROLE = keccak256(\"ADMIN_ROLE\");\r\n    bytes32 public constant FARMER_ROLE = keccak256(\"FARMER_ROLE\");\r\n    address owner;\r\n    // MyContract myContract = new MyContract();\r\n    constructor() payable {\r\n        _grantRole(DEFAULT_ADMIN_ROLE, msg.sender); // Set the contract deployer as the default admin\r\n        _grantRole(ADMIN_ROLE, msg.sender);\r\n        owner = msg.sender;\r\n    }\r\n\r\n    address[] public farmerAddresses; //All farmers\r\n    uint256 public farmerCount;\r\n    address[] public farmerRequests;\r\n\r\n    function addOfficial(address _adminacc) public onlyRole(ADMIN_ROLE){\r\n        grantRole(ADMIN_ROLE, _adminacc);\r\n    }\r\n    \r\n    function canAccessResource(address user) public view onlyRole(ADMIN_ROLE) returns (bool) {\r\n        return hasRole(ADMIN_ROLE, user);\r\n    }\r\n\r\n    function farmerRegistration(\r\n        address _address\r\n    ) public {\r\n        farmerCount++;\r\n        farmerRequests.push(_address);\r\n    }\r\n\r\n    function grantRoleToFarmer(address _farmer) public onlyRole(ADMIN_ROLE) {\r\n\r\n    // Remove the address from the farmerRequests array.\r\n    for (uint256 i = 0; i < farmerRequests.length; i++) {\r\n        if (farmerRequests[i] == _farmer) {\r\n            farmerRequests[i] = farmerRequests[farmerRequests.length - 1]; //swap the one at the very end with the i'th\r\n            farmerRequests.pop();\r\n            break;\r\n        }\r\n    }\r\n\r\n    // Grant the FARMER_ROLE to the address.\r\n    grantRole(FARMER_ROLE, _farmer);\r\n\r\n    // Add the address to the farmerAddresses array.\r\n    farmerAddresses.push(_farmer);\r\n    }\r\n\r\n    function getFarmers() public view returns (address[] memory) {\r\n        return farmerAddresses;\r\n    }\r\n\r\n    function getFarmersRequests() public view returns (address[] memory) {\r\n        return farmerRequests;\r\n    }\r\n}",
  "sourcePath": "C:\\Users\\ACER\\Documents\\Personal\\SEM-7_EXPERIMENTS\\sem-8-mini-project\\PDS_Security\\contracts\\Farmer.sol",
  "compiler": {
    "name": "solc",
    "version": "0.8.23+commit.f704f362.Emscripten.clang"
  },
  "schemaVersion": "3.4.16",
  "updatedAt": "2024-01-10T15:04:40.300Z",
  "devdoc": {
    "errors": {
      "AccessControlBadConfirmation()": [
        {
          "details": "The caller of a function is not the expected one. NOTE: Don't confuse with {AccessControlUnauthorizedAccount}."
        }
      ],
      "AccessControlUnauthorizedAccount(address,bytes32)": [
        {
          "details": "The `account` is missing a role."
        }
      ]
    },
    "events": {
      "RoleAdminChanged(bytes32,bytes32,bytes32)": {
        "details": "Emitted when `newAdminRole` is set as ``role``'s admin role, replacing `previousAdminRole` `DEFAULT_ADMIN_ROLE` is the starting admin for all roles, despite {RoleAdminChanged} not being emitted signaling this."
      },
      "RoleGranted(bytes32,address,address)": {
        "details": "Emitted when `account` is granted `role`. `sender` is the account that originated the contract call, an admin role bearer except when using {AccessControl-_setupRole}."
      },
      "RoleRevoked(bytes32,address,address)": {
        "details": "Emitted when `account` is revoked `role`. `sender` is the account that originated the contract call:   - if using `revokeRole`, it is the admin role bearer   - if using `renounceRole`, it is the role bearer (i.e. `account`)"
      }
    },
    "kind": "dev",
    "methods": {
      "getRoleAdmin(bytes32)": {
        "details": "Returns the admin role that controls `role`. See {grantRole} and {revokeRole}. To change a role's admin, use {_setRoleAdmin}."
      },
      "grantRole(bytes32,address)": {
        "details": "Grants `role` to `account`. If `account` had not been already granted `role`, emits a {RoleGranted} event. Requirements: - the caller must have ``role``'s admin role. May emit a {RoleGranted} event."
      },
      "hasRole(bytes32,address)": {
        "details": "Returns `true` if `account` has been granted `role`."
      },
      "renounceRole(bytes32,address)": {
        "details": "Revokes `role` from the calling account. Roles are often managed via {grantRole} and {revokeRole}: this function's purpose is to provide a mechanism for accounts to lose their privileges if they are compromised (such as when a trusted device is misplaced). If the calling account had been revoked `role`, emits a {RoleRevoked} event. Requirements: - the caller must be `callerConfirmation`. May emit a {RoleRevoked} event."
      },
      "revokeRole(bytes32,address)": {
        "details": "Revokes `role` from `account`. If `account` had been granted `role`, emits a {RoleRevoked} event. Requirements: - the caller must have ``role``'s admin role. May emit a {RoleRevoked} event."
      },
      "supportsInterface(bytes4)": {
        "details": "See {IERC165-supportsInterface}."
      }
    },
    "version": 1
  },
  "userdoc": {
    "kind": "user",
    "methods": {},
    "version": 1
  }
}