{
  "contractName": "FarmerContract",
  "abi": [
    {
      "inputs": [],
      "stateMutability": "payable",
      "type": "constructor",
      "payable": true
    },
    {
      "anonymous": false,
      "inputs": [
        {
          "indexed": true,
          "internalType": "bytes32",
          "name": "role",
          "type": "bytes32"
        },
        {
          "indexed": true,
          "internalType": "bytes32",
          "name": "previousAdminRole",
          "type": "bytes32"
        },
        {
          "indexed": true,
          "internalType": "bytes32",
          "name": "newAdminRole",
          "type": "bytes32"
        }
      ],
      "name": "RoleAdminChanged",
      "type": "event"
    },
    {
      "anonymous": false,
      "inputs": [
        {
          "indexed": true,
          "internalType": "bytes32",
          "name": "role",
          "type": "bytes32"
        },
        {
          "indexed": true,
          "internalType": "address",
          "name": "account",
          "type": "address"
        },
        {
          "indexed": true,
          "internalType": "address",
          "name": "sender",
          "type": "address"
        }
      ],
      "name": "RoleGranted",
      "type": "event"
    },
    {
      "anonymous": false,
      "inputs": [
        {
          "indexed": true,
          "internalType": "bytes32",
          "name": "role",
          "type": "bytes32"
        },
        {
          "indexed": true,
          "internalType": "address",
          "name": "account",
          "type": "address"
        },
        {
          "indexed": true,
          "internalType": "address",
          "name": "sender",
          "type": "address"
        }
      ],
      "name": "RoleRevoked",
      "type": "event"
    },
    {
      "inputs": [],
      "name": "ADMIN_ROLE",
      "outputs": [
        {
          "internalType": "bytes32",
          "name": "",
          "type": "bytes32"
        }
      ],
      "stateMutability": "view",
      "type": "function",
      "constant": true
    },
    {
      "inputs": [],
      "name": "DEFAULT_ADMIN_ROLE",
      "outputs": [
        {
          "internalType": "bytes32",
          "name": "",
          "type": "bytes32"
        }
      ],
      "stateMutability": "view",
      "type": "function",
      "constant": true
    },
    {
      "inputs": [],
      "name": "FARMER_ROLE",
      "outputs": [
        {
          "internalType": "bytes32",
          "name": "",
          "type": "bytes32"
        }
      ],
      "stateMutability": "view",
      "type": "function",
      "constant": true
    },
    {
      "inputs": [
        {
          "internalType": "uint256",
          "name": "",
          "type": "uint256"
        }
      ],
      "name": "allBids",
      "outputs": [
        {
          "internalType": "uint256",
          "name": "productId",
          "type": "uint256"
        },
        {
          "internalType": "uint256",
          "name": "time",
          "type": "uint256"
        },
        {
          "internalType": "uint256",
          "name": "bid",
          "type": "uint256"
        },
        {
          "internalType": "address",
          "name": "bidderAddress",
          "type": "address"
        }
      ],
      "stateMutability": "view",
      "type": "function",
      "constant": true
    },
    {
      "inputs": [
        {
          "internalType": "uint256",
          "name": "",
          "type": "uint256"
        }
      ],
      "name": "allProducts",
      "outputs": [
        {
          "internalType": "uint256",
          "name": "productId",
          "type": "uint256"
        },
        {
          "internalType": "string",
          "name": "commodityName",
          "type": "string"
        },
        {
          "internalType": "uint256",
          "name": "quantity",
          "type": "uint256"
        },
        {
          "internalType": "string",
          "name": "unit",
          "type": "string"
        },
        {
          "internalType": "string",
          "name": "image",
          "type": "string"
        },
        {
          "internalType": "string",
          "name": "tplic",
          "type": "string"
        },
        {
          "internalType": "uint256",
          "name": "apmcid",
          "type": "uint256"
        },
        {
          "internalType": "address",
          "name": "curowner",
          "type": "address"
        },
        {
          "internalType": "uint256",
          "name": "highestBid",
          "type": "uint256"
        },
        {
          "internalType": "address",
          "name": "highestBidder",
          "type": "address"
        },
        {
          "internalType": "uint256",
          "name": "auctionEndTime",
          "type": "uint256"
        },
        {
          "internalType": "bool",
          "name": "quality",
          "type": "bool"
        }
      ],
      "stateMutability": "view",
      "type": "function",
      "constant": true
    },
    {
      "inputs": [
        {
          "internalType": "uint256",
          "name": "",
          "type": "uint256"
        }
      ],
      "name": "apmcs",
      "outputs": [
        {
          "internalType": "uint256",
          "name": "apmcid",
          "type": "uint256"
        },
        {
          "internalType": "string",
          "name": "apmcname",
          "type": "string"
        },
        {
          "internalType": "string",
          "name": "addressloc",
          "type": "string"
        },
        {
          "internalType": "string",
          "name": "state",
          "type": "string"
        },
        {
          "internalType": "string",
          "name": "district",
          "type": "string"
        },
        {
          "internalType": "uint256",
          "name": "contact",
          "type": "uint256"
        }
      ],
      "stateMutability": "view",
      "type": "function",
      "constant": true
    },
    {
      "inputs": [
        {
          "internalType": "uint256",
          "name": "",
          "type": "uint256"
        }
      ],
      "name": "bidsDone",
      "outputs": [
        {
          "internalType": "bool",
          "name": "",
          "type": "bool"
        }
      ],
      "stateMutability": "view",
      "type": "function",
      "constant": true
    },
    {
      "inputs": [
        {
          "internalType": "uint256",
          "name": "",
          "type": "uint256"
        }
      ],
      "name": "farmerAddresses",
      "outputs": [
        {
          "internalType": "address",
          "name": "",
          "type": "address"
        }
      ],
      "stateMutability": "view",
      "type": "function",
      "constant": true
    },
    {
      "inputs": [],
      "name": "farmerCount",
      "outputs": [
        {
          "internalType": "uint256",
          "name": "",
          "type": "uint256"
        }
      ],
      "stateMutability": "view",
      "type": "function",
      "constant": true
    },
    {
      "inputs": [
        {
          "internalType": "uint256",
          "name": "",
          "type": "uint256"
        }
      ],
      "name": "farmerRequests",
      "outputs": [
        {
          "internalType": "address",
          "name": "",
          "type": "address"
        }
      ],
      "stateMutability": "view",
      "type": "function",
      "constant": true
    },
    {
      "inputs": [
        {
          "internalType": "bytes32",
          "name": "role",
          "type": "bytes32"
        }
      ],
      "name": "getRoleAdmin",
      "outputs": [
        {
          "internalType": "bytes32",
          "name": "",
          "type": "bytes32"
        }
      ],
      "stateMutability": "view",
      "type": "function",
      "constant": true
    },
    {
      "inputs": [
        {
          "internalType": "bytes32",
          "name": "role",
          "type": "bytes32"
        },
        {
          "internalType": "address",
          "name": "account",
          "type": "address"
        }
      ],
      "name": "grantRole",
      "outputs": [],
      "stateMutability": "nonpayable",
      "type": "function"
    },
    {
      "inputs": [
        {
          "internalType": "bytes32",
          "name": "role",
          "type": "bytes32"
        },
        {
          "internalType": "address",
          "name": "account",
          "type": "address"
        }
      ],
      "name": "hasRole",
      "outputs": [
        {
          "internalType": "bool",
          "name": "",
          "type": "bool"
        }
      ],
      "stateMutability": "view",
      "type": "function",
      "constant": true
    },
    {
      "inputs": [
        {
          "internalType": "bytes32",
          "name": "role",
          "type": "bytes32"
        },
        {
          "internalType": "address",
          "name": "account",
          "type": "address"
        }
      ],
      "name": "renounceRole",
      "outputs": [],
      "stateMutability": "nonpayable",
      "type": "function"
    },
    {
      "inputs": [
        {
          "internalType": "bytes32",
          "name": "role",
          "type": "bytes32"
        },
        {
          "internalType": "address",
          "name": "account",
          "type": "address"
        }
      ],
      "name": "revokeRole",
      "outputs": [],
      "stateMutability": "nonpayable",
      "type": "function"
    },
    {
      "inputs": [
        {
          "internalType": "bytes4",
          "name": "interfaceId",
          "type": "bytes4"
        }
      ],
      "name": "supportsInterface",
      "outputs": [
        {
          "internalType": "bool",
          "name": "",
          "type": "bool"
        }
      ],
      "stateMutability": "view",
      "type": "function",
      "constant": true
    },
    {
      "inputs": [
        {
          "internalType": "address",
          "name": "_adminacc",
          "type": "address"
        }
      ],
      "name": "addOfficial",
      "outputs": [],
      "stateMutability": "nonpayable",
      "type": "function"
    },
    {
      "inputs": [
        {
          "internalType": "address",
          "name": "_addressvar",
          "type": "address"
        }
      ],
      "name": "farmerRegistration",
      "outputs": [],
      "stateMutability": "nonpayable",
      "type": "function"
    },
    {
      "inputs": [
        {
          "internalType": "string",
          "name": "_apmcname",
          "type": "string"
        },
        {
          "internalType": "string",
          "name": "_addressloc",
          "type": "string"
        },
        {
          "internalType": "string",
          "name": "_state",
          "type": "string"
        },
        {
          "internalType": "string",
          "name": "_district",
          "type": "string"
        },
        {
          "internalType": "string[]",
          "name": "_commoditiestraded",
          "type": "string[]"
        },
        {
          "internalType": "uint256",
          "name": "_contact",
          "type": "uint256"
        }
      ],
      "name": "addAPMC",
      "outputs": [],
      "stateMutability": "nonpayable",
      "type": "function"
    },
    {
      "inputs": [
        {
          "internalType": "string",
          "name": "_name",
          "type": "string"
        },
        {
          "internalType": "uint256",
          "name": "_quantity",
          "type": "uint256"
        },
        {
          "internalType": "string",
          "name": "_unit",
          "type": "string"
        },
        {
          "internalType": "string",
          "name": "_img",
          "type": "string"
        },
        {
          "internalType": "string",
          "name": "_tplic",
          "type": "string"
        },
        {
          "internalType": "uint256",
          "name": "_apmcid",
          "type": "uint256"
        }
      ],
      "name": "addProduct",
      "outputs": [],
      "stateMutability": "payable",
      "type": "function",
      "payable": true
    },
    {
      "inputs": [
        {
          "internalType": "uint256",
          "name": "_auctionEndTime",
          "type": "uint256"
        },
        {
          "internalType": "uint256",
          "name": "productId",
          "type": "uint256"
        }
      ],
      "name": "startAuction",
      "outputs": [],
      "stateMutability": "nonpayable",
      "type": "function"
    },
    {
      "inputs": [
        {
          "internalType": "address",
          "name": "_farmer",
          "type": "address"
        }
      ],
      "name": "grantRoleToFarmer",
      "outputs": [],
      "stateMutability": "nonpayable",
      "type": "function"
    },
    {
      "inputs": [],
      "name": "getFarmers",
      "outputs": [
        {
          "internalType": "address[]",
          "name": "",
          "type": "address[]"
        }
      ],
      "stateMutability": "view",
      "type": "function",
      "constant": true
    },
    {
      "inputs": [],
      "name": "getFarmersRequests",
      "outputs": [
        {
          "internalType": "address[]",
          "name": "",
          "type": "address[]"
        }
      ],
      "stateMutability": "view",
      "type": "function",
      "constant": true
    },
    {
      "inputs": [],
      "name": "getAllFarmerProducts",
      "outputs": [
        {
          "components": [
            {
              "internalType": "uint256",
              "name": "productId",
              "type": "uint256"
            },
            {
              "internalType": "string",
              "name": "commodityName",
              "type": "string"
            },
            {
              "internalType": "uint256",
              "name": "quantity",
              "type": "uint256"
            },
            {
              "internalType": "string",
              "name": "unit",
              "type": "string"
            },
            {
              "internalType": "string",
              "name": "image",
              "type": "string"
            },
            {
              "internalType": "string",
              "name": "tplic",
              "type": "string"
            },
            {
              "internalType": "uint256",
              "name": "apmcid",
              "type": "uint256"
            },
            {
              "internalType": "address",
              "name": "curowner",
              "type": "address"
            },
            {
              "internalType": "uint256",
              "name": "highestBid",
              "type": "uint256"
            },
            {
              "internalType": "address",
              "name": "highestBidder",
              "type": "address"
            },
            {
              "internalType": "uint256",
              "name": "auctionEndTime",
              "type": "uint256"
            },
            {
              "internalType": "bool",
              "name": "quality",
              "type": "bool"
            }
          ],
          "internalType": "struct FarmerContract.productDetails[]",
          "name": "",
          "type": "tuple[]"
        }
      ],
      "stateMutability": "view",
      "type": "function",
      "constant": true
    },
    {
      "inputs": [],
      "name": "getAllAPMC",
      "outputs": [
        {
          "components": [
            {
              "internalType": "uint256",
              "name": "apmcid",
              "type": "uint256"
            },
            {
              "internalType": "string",
              "name": "apmcname",
              "type": "string"
            },
            {
              "internalType": "string",
              "name": "addressloc",
              "type": "string"
            },
            {
              "internalType": "string",
              "name": "state",
              "type": "string"
            },
            {
              "internalType": "string",
              "name": "district",
              "type": "string"
            },
            {
              "internalType": "string[]",
              "name": "commoditiestraded",
              "type": "string[]"
            },
            {
              "internalType": "uint256",
              "name": "contact",
              "type": "uint256"
            }
          ],
          "internalType": "struct FarmerContract.APMC[]",
          "name": "",
          "type": "tuple[]"
        }
      ],
      "stateMutability": "view",
      "type": "function",
      "constant": true
    },
    {
      "inputs": [
        {
          "internalType": "uint256",
          "name": "productId",
          "type": "uint256"
        }
      ],
      "name": "getAProduct",
      "outputs": [
        {
          "components": [
            {
              "internalType": "uint256",
              "name": "productId",
              "type": "uint256"
            },
            {
              "internalType": "string",
              "name": "commodityName",
              "type": "string"
            },
            {
              "internalType": "uint256",
              "name": "quantity",
              "type": "uint256"
            },
            {
              "internalType": "string",
              "name": "unit",
              "type": "string"
            },
            {
              "internalType": "string",
              "name": "image",
              "type": "string"
            },
            {
              "internalType": "string",
              "name": "tplic",
              "type": "string"
            },
            {
              "internalType": "uint256",
              "name": "apmcid",
              "type": "uint256"
            },
            {
              "internalType": "address",
              "name": "curowner",
              "type": "address"
            },
            {
              "internalType": "uint256",
              "name": "highestBid",
              "type": "uint256"
            },
            {
              "internalType": "address",
              "name": "highestBidder",
              "type": "address"
            },
            {
              "internalType": "uint256",
              "name": "auctionEndTime",
              "type": "uint256"
            },
            {
              "internalType": "bool",
              "name": "quality",
              "type": "bool"
            }
          ],
          "internalType": "struct FarmerContract.productDetails",
          "name": "",
          "type": "tuple"
        }
      ],
      "stateMutability": "view",
      "type": "function",
      "constant": true
    },
    {
      "inputs": [
        {
          "internalType": "uint256",
          "name": "apmcid",
          "type": "uint256"
        }
      ],
      "name": "getProductsinAPMC",
      "outputs": [
        {
          "components": [
            {
              "internalType": "uint256",
              "name": "productId",
              "type": "uint256"
            },
            {
              "internalType": "string",
              "name": "commodityName",
              "type": "string"
            },
            {
              "internalType": "uint256",
              "name": "quantity",
              "type": "uint256"
            },
            {
              "internalType": "string",
              "name": "unit",
              "type": "string"
            },
            {
              "internalType": "string",
              "name": "image",
              "type": "string"
            },
            {
              "internalType": "string",
              "name": "tplic",
              "type": "string"
            },
            {
              "internalType": "uint256",
              "name": "apmcid",
              "type": "uint256"
            },
            {
              "internalType": "address",
              "name": "curowner",
              "type": "address"
            },
            {
              "internalType": "uint256",
              "name": "highestBid",
              "type": "uint256"
            },
            {
              "internalType": "address",
              "name": "highestBidder",
              "type": "address"
            },
            {
              "internalType": "uint256",
              "name": "auctionEndTime",
              "type": "uint256"
            },
            {
              "internalType": "bool",
              "name": "quality",
              "type": "bool"
            }
          ],
          "internalType": "struct FarmerContract.productDetails[]",
          "name": "",
          "type": "tuple[]"
        }
      ],
      "stateMutability": "view",
      "type": "function",
      "constant": true
    },
    {
      "inputs": [],
      "name": "getAllBids",
      "outputs": [
        {
          "components": [
            {
              "internalType": "uint256",
              "name": "productId",
              "type": "uint256"
            },
            {
              "internalType": "uint256",
              "name": "time",
              "type": "uint256"
            },
            {
              "internalType": "uint256",
              "name": "bid",
              "type": "uint256"
            },
            {
              "internalType": "address",
              "name": "bidderAddress",
              "type": "address"
            }
          ],
          "internalType": "struct FarmerContract.bidDetails[]",
          "name": "",
          "type": "tuple[]"
        }
      ],
      "stateMutability": "view",
      "type": "function",
      "constant": true
    },
    {
      "inputs": [
        {
          "internalType": "uint256",
          "name": "productId",
          "type": "uint256"
        }
      ],
      "name": "inspectFoodSafety",
      "outputs": [],
      "stateMutability": "payable",
      "type": "function",
      "payable": true
    },
    {
      "inputs": [
        {
          "internalType": "uint256",
          "name": "productId",
          "type": "uint256"
        }
      ],
      "name": "placeBid",
      "outputs": [],
      "stateMutability": "payable",
      "type": "function",
      "payable": true
    },
    {
      "inputs": [
        {
          "internalType": "uint256",
          "name": "productId",
          "type": "uint256"
        }
      ],
      "name": "endAuction",
      "outputs": [],
      "stateMutability": "nonpayable",
      "type": "function"
    },
    {
      "inputs": [
        {
          "internalType": "uint256",
          "name": "productId",
          "type": "uint256"
        }
      ],
      "name": "buyAtMSP",
      "outputs": [],
      "stateMutability": "payable",
      "type": "function",
      "payable": true
    }
  ],
  "bytecode": "0x6080604052620000196000801b33620000a260201b60201c565b6200004b7fa49807205ce4d355092ef5a8a18f56e8913cf4a201fbe287825b095693c2177533620000a260201b60201c565b33600360006101000a81548173ffffffffffffffffffffffffffffffffffffffff021916908373ffffffffffffffffffffffffffffffffffffffff1602179055506000600181905550600060028190555062000205565b620000b482826200019360201b60201c565b6200018f57600160008084815260200190815260200160002060000160008373ffffffffffffffffffffffffffffffffffffffff1673ffffffffffffffffffffffffffffffffffffffff16815260200190815260200160002060006101000a81548160ff02191690831515021790555062000134620001fd60201b60201c565b73ffffffffffffffffffffffffffffffffffffffff168173ffffffffffffffffffffffffffffffffffffffff16837f2f8788117e7eff1d82e926ec794901d17c78024a50270940304540a733656f0d60405160405180910390a45b5050565b600080600084815260200190815260200160002060000160008373ffffffffffffffffffffffffffffffffffffffff1673ffffffffffffffffffffffffffffffffffffffff16815260200190815260200160002060009054906101000a900460ff16905092915050565b600033905090565b61554780620002156000396000f3fe6080604052600436106101ee5760003560e01c8063789f8d401161010d578063b9cc1614116100a0578063d547741f1161006f578063d547741f14610745578063d9a94c601461076e578063dc18bf6414610799578063f3943970146107c2578063fca4a2ef146107ed576101ee565b8063b9cc161414610653578063bc0d1fb014610690578063bd45b397146106d2578063cfaaef56146106fd576101ee565b8063a217fddf116100dc578063a217fddf146105ba578063aa12ede2146105e5578063ac840db014610601578063b9a2de3a1461062a576101ee565b8063789f8d401461050b5780638d0f6da31461053657806391d14854146105615780639979ef451461059e576101ee565b80632fb5eac2116101855780634fee13fc116101545780634fee13fc1461045157806369a4d5691461047a5780636e91ef81146104b757806375b238fc146104e0576101ee565b80632fb5eac21461038257806336568abe146103c2578063456154f5146103eb5780634a68996714610414576101ee565b80631f7dbc1d116101c15780631f7dbc1d146102b4578063207a1e56146102f1578063248a9ca31461031c5780632f2ff15d14610359576101ee565b80630173e780146101f357806301ffc9a71461020f5780631240de271461024c57806312a5074614610277575b600080fd5b61020d60048036038101906102089190613b12565b610809565b005b34801561021b57600080fd5b5061023660048036038101906102319190613c67565b610a8e565b6040516102439190613caf565b60405180910390f35b34801561025857600080fd5b50610261610b08565b60405161026e9190613f94565b60405180910390f35b34801561028357600080fd5b5061029e60048036038101906102999190613fb6565b610e9c565b6040516102ab919061420e565b60405180910390f35b3480156102c057600080fd5b506102db60048036038101906102d69190613fb6565b6112f6565b6040516102e89190613caf565b60405180910390f35b3480156102fd57600080fd5b50610306611316565b604051610313919061420e565b60405180910390f35b34801561032857600080fd5b50610343600480360381019061033e9190614266565b6116b7565b60405161035091906142a2565b60405180910390f35b34801561036557600080fd5b50610380600480360381019061037b91906142e9565b6116d6565b005b34801561038e57600080fd5b506103a960048036038101906103a49190613fb6565b6116f7565b6040516103b99493929190614347565b60405180910390f35b3480156103ce57600080fd5b506103e960048036038101906103e491906142e9565b611757565b005b3480156103f757600080fd5b50610412600480360381019061040d919061438c565b6117da565b005b34801561042057600080fd5b5061043b60048036038101906104369190613fb6565b611a22565b60405161044891906144d2565b60405180910390f35b34801561045d57600080fd5b50610478600480360381019061047391906144f4565b611da0565b005b34801561048657600080fd5b506104a1600480360381019061049c9190613fb6565b611f26565b6040516104ae9190614534565b60405180910390f35b3480156104c357600080fd5b506104de60048036038101906104d9919061438c565b611f65565b005b3480156104ec57600080fd5b506104f5611fe3565b60405161050291906142a2565b60405180910390f35b34801561051757600080fd5b50610520612007565b60405161052d91906145fe565b60405180910390f35b34801561054257600080fd5b5061054b612095565b6040516105589190614724565b60405180910390f35b34801561056d57600080fd5b50610588600480360381019061058391906142e9565b612168565b6040516105959190613caf565b60405180910390f35b6105b860048036038101906105b39190613fb6565b6121d2565b005b3480156105c657600080fd5b506105cf612573565b6040516105dc91906142a2565b60405180910390f35b6105ff60048036038101906105fa9190613fb6565b61257a565b005b34801561060d57600080fd5b506106286004803603810190610623919061438c565b612603565b005b34801561063657600080fd5b50610651600480360381019061064c9190613fb6565b61265b565b005b34801561065f57600080fd5b5061067a60048036038101906106759190613fb6565b612917565b6040516106879190614534565b60405180910390f35b34801561069c57600080fd5b506106b760048036038101906106b29190613fb6565b612956565b6040516106c996959493929190614790565b60405180910390f35b3480156106de57600080fd5b506106e7612bc2565b6040516106f4919061480d565b60405180910390f35b34801561070957600080fd5b50610724600480360381019061071f9190613fb6565b612bc8565b60405161073c9c9b9a99989796959493929190614828565b60405180910390f35b34801561075157600080fd5b5061076c600480360381019061076791906142e9565b612ea5565b005b34801561077a57600080fd5b50610783612ec6565b60405161079091906145fe565b60405180910390f35b3480156107a557600080fd5b506107c060048036038101906107bb91906149e4565b612f54565b005b3480156107ce57600080fd5b506107d7613090565b6040516107e491906142a2565b60405180910390f35b61080760048036038101906108029190613fb6565b6130b4565b005b7f7c6181838a71a779e445600d4c6ecbe16bacf2b3c5bda69c29fada66d1b645d1610833816132e4565b600154821115610878576040517f08c379a000000000000000000000000000000000000000000000000000000000815260040161086f90614b49565b60405180910390fd5b600060405180610180016040528060025481526020018981526020018881526020018781526020018681526020018581526020018481526020013373ffffffffffffffffffffffffffffffffffffffff16815260200160008152602001600073ffffffffffffffffffffffffffffffffffffffff1681526020016000815260200160001515815250905060088190806001815401808255809150506001900390600052602060002090600c020160009091909190915060008201518160000155602082015181600101908161094d9190614d75565b5060408201518160020155606082015181600301908161096d9190614d75565b5060808201518160040190816109839190614d75565b5060a08201518160050190816109999190614d75565b5060c0820151816006015560e08201518160070160006101000a81548173ffffffffffffffffffffffffffffffffffffffff021916908373ffffffffffffffffffffffffffffffffffffffff16021790555061010082015181600801556101208201518160090160006101000a81548173ffffffffffffffffffffffffffffffffffffffff021916908373ffffffffffffffffffffffffffffffffffffffff16021790555061014082015181600a015561016082015181600b0160006101000a81548160ff021916908315150217905550505060026000815480929190610a7f90614e76565b91905055505050505050505050565b60007f7965db0b000000000000000000000000000000000000000000000000000000007bffffffffffffffffffffffffffffffffffffffffffffffffffffffff1916827bffffffffffffffffffffffffffffffffffffffffffffffffffffffff19161480610b015750610b00826132f8565b5b9050919050565b60606007805480602002602001604051908101604052809291908181526020016000905b82821015610e9357838290600052602060002090600702016040518060e001604052908160008201548152602001600182018054610b6990614b98565b80601f0160208091040260200160405190810160405280929190818152602001828054610b9590614b98565b8015610be25780601f10610bb757610100808354040283529160200191610be2565b820191906000526020600020905b815481529060010190602001808311610bc557829003601f168201915b50505050508152602001600282018054610bfb90614b98565b80601f0160208091040260200160405190810160405280929190818152602001828054610c2790614b98565b8015610c745780601f10610c4957610100808354040283529160200191610c74565b820191906000526020600020905b815481529060010190602001808311610c5757829003601f168201915b50505050508152602001600382018054610c8d90614b98565b80601f0160208091040260200160405190810160405280929190818152602001828054610cb990614b98565b8015610d065780601f10610cdb57610100808354040283529160200191610d06565b820191906000526020600020905b815481529060010190602001808311610ce957829003601f168201915b50505050508152602001600482018054610d1f90614b98565b80601f0160208091040260200160405190810160405280929190818152602001828054610d4b90614b98565b8015610d985780601f10610d6d57610100808354040283529160200191610d98565b820191906000526020600020905b815481529060010190602001808311610d7b57829003601f168201915b5050505050815260200160058201805480602002602001604051908101604052809291908181526020016000905b82821015610e72578382906000526020600020018054610de590614b98565b80601f0160208091040260200160405190810160405280929190818152602001828054610e1190614b98565b8015610e5e5780601f10610e3357610100808354040283529160200191610e5e565b820191906000526020600020905b815481529060010190602001808311610e4157829003601f168201915b505050505081526020019060010190610dc6565b50505050815260200160068201548152505081526020019060010190610b2c565b50505050905090565b60608060005b6008805490508110156112ec578360088281548110610ec457610ec3614ebe565b5b90600052602060002090600c020160060154036112d95760018251610ee99190614eed565b67ffffffffffffffff811115610f0257610f016139b1565b5b604051908082528060200260200182016040528015610f3b57816020015b610f28613819565b815260200190600190039081610f205790505b50915060088181548110610f5257610f51614ebe565b5b90600052602060002090600c02016040518061018001604052908160008201548152602001600182018054610f8690614b98565b80601f0160208091040260200160405190810160405280929190818152602001828054610fb290614b98565b8015610fff5780601f10610fd457610100808354040283529160200191610fff565b820191906000526020600020905b815481529060010190602001808311610fe257829003601f168201915b505050505081526020016002820154815260200160038201805461102290614b98565b80601f016020809104026020016040519081016040528092919081815260200182805461104e90614b98565b801561109b5780601f106110705761010080835404028352916020019161109b565b820191906000526020600020905b81548152906001019060200180831161107e57829003601f168201915b505050505081526020016004820180546110b490614b98565b80601f01602080910402602001604051908101604052809291908181526020018280546110e090614b98565b801561112d5780601f106111025761010080835404028352916020019161112d565b820191906000526020600020905b81548152906001019060200180831161111057829003601f168201915b5050505050815260200160058201805461114690614b98565b80601f016020809104026020016040519081016040528092919081815260200182805461117290614b98565b80156111bf5780601f10611194576101008083540402835291602001916111bf565b820191906000526020600020905b8154815290600101906020018083116111a257829003601f168201915b50505050508152602001600682015481526020016007820160009054906101000a900473ffffffffffffffffffffffffffffffffffffffff1673ffffffffffffffffffffffffffffffffffffffff1673ffffffffffffffffffffffffffffffffffffffff168152602001600882015481526020016009820160009054906101000a900473ffffffffffffffffffffffffffffffffffffffff1673ffffffffffffffffffffffffffffffffffffffff1673ffffffffffffffffffffffffffffffffffffffff168152602001600a8201548152602001600b820160009054906101000a900460ff16151515158152505082600184516112bc9190614f21565b815181106112cd576112cc614ebe565b5b60200260200101819052505b80806112e490614e76565b915050610ea2565b5080915050919050565b600a6020528060005260406000206000915054906101000a900460ff1681565b60606008805480602002602001604051908101604052809291908181526020016000905b828210156116ae57838290600052602060002090600c0201604051806101800160405290816000820154815260200160018201805461137890614b98565b80601f01602080910402602001604051908101604052809291908181526020018280546113a490614b98565b80156113f15780601f106113c6576101008083540402835291602001916113f1565b820191906000526020600020905b8154815290600101906020018083116113d457829003601f168201915b505050505081526020016002820154815260200160038201805461141490614b98565b80601f016020809104026020016040519081016040528092919081815260200182805461144090614b98565b801561148d5780601f106114625761010080835404028352916020019161148d565b820191906000526020600020905b81548152906001019060200180831161147057829003601f168201915b505050505081526020016004820180546114a690614b98565b80601f01602080910402602001604051908101604052809291908181526020018280546114d290614b98565b801561151f5780601f106114f45761010080835404028352916020019161151f565b820191906000526020600020905b81548152906001019060200180831161150257829003601f168201915b5050505050815260200160058201805461153890614b98565b80601f016020809104026020016040519081016040528092919081815260200182805461156490614b98565b80156115b15780601f10611586576101008083540402835291602001916115b1565b820191906000526020600020905b81548152906001019060200180831161159457829003601f168201915b50505050508152602001600682015481526020016007820160009054906101000a900473ffffffffffffffffffffffffffffffffffffffff1673ffffffffffffffffffffffffffffffffffffffff1673ffffffffffffffffffffffffffffffffffffffff168152602001600882015481526020016009820160009054906101000a900473ffffffffffffffffffffffffffffffffffffffff1673ffffffffffffffffffffffffffffffffffffffff1673ffffffffffffffffffffffffffffffffffffffff168152602001600a8201548152602001600b820160009054906101000a900460ff1615151515815250508152602001906001019061133a565b50505050905090565b6000806000838152602001908152602001600020600101549050919050565b6116df826116b7565b6116e8816132e4565b6116f28383613362565b505050565b6009818154811061170757600080fd5b90600052602060002090600402016000915090508060000154908060010154908060020154908060030160009054906101000a900473ffffffffffffffffffffffffffffffffffffffff16905084565b61175f613442565b73ffffffffffffffffffffffffffffffffffffffff168173ffffffffffffffffffffffffffffffffffffffff16146117cc576040517f08c379a00000000000000000000000000000000000000000000000000000000081526004016117c390614fc7565b60405180910390fd5b6117d6828261344a565b5050565b7fa49807205ce4d355092ef5a8a18f56e8913cf4a201fbe287825b095693c21775611804816132e4565b60005b600680549050811015611990578273ffffffffffffffffffffffffffffffffffffffff166006828154811061183f5761183e614ebe565b5b9060005260206000200160009054906101000a900473ffffffffffffffffffffffffffffffffffffffff1673ffffffffffffffffffffffffffffffffffffffff160361197d57600660016006805490506118999190614f21565b815481106118aa576118a9614ebe565b5b9060005260206000200160009054906101000a900473ffffffffffffffffffffffffffffffffffffffff16600682815481106118e9576118e8614ebe565b5b9060005260206000200160006101000a81548173ffffffffffffffffffffffffffffffffffffffff021916908373ffffffffffffffffffffffffffffffffffffffff160217905550600680548061194357611942614fe7565b5b6001900381819060005260206000200160006101000a81549073ffffffffffffffffffffffffffffffffffffffff02191690559055611990565b808061198890614e76565b915050611807565b506119bb7f7c6181838a71a779e445600d4c6ecbe16bacf2b3c5bda69c29fada66d1b645d1836116d6565b6004829080600181540180825580915050600190039060005260206000200160009091909190916101000a81548173ffffffffffffffffffffffffffffffffffffffff021916908373ffffffffffffffffffffffffffffffffffffffff1602179055505050565b611a2a613819565b60088281548110611a3e57611a3d614ebe565b5b90600052602060002090600c02016040518061018001604052908160008201548152602001600182018054611a7290614b98565b80601f0160208091040260200160405190810160405280929190818152602001828054611a9e90614b98565b8015611aeb5780601f10611ac057610100808354040283529160200191611aeb565b820191906000526020600020905b815481529060010190602001808311611ace57829003601f168201915b5050505050815260200160028201548152602001600382018054611b0e90614b98565b80601f0160208091040260200160405190810160405280929190818152602001828054611b3a90614b98565b8015611b875780601f10611b5c57610100808354040283529160200191611b87565b820191906000526020600020905b815481529060010190602001808311611b6a57829003601f168201915b50505050508152602001600482018054611ba090614b98565b80601f0160208091040260200160405190810160405280929190818152602001828054611bcc90614b98565b8015611c195780601f10611bee57610100808354040283529160200191611c19565b820191906000526020600020905b815481529060010190602001808311611bfc57829003601f168201915b50505050508152602001600582018054611c3290614b98565b80601f0160208091040260200160405190810160405280929190818152602001828054611c5e90614b98565b8015611cab5780601f10611c8057610100808354040283529160200191611cab565b820191906000526020600020905b815481529060010190602001808311611c8e57829003601f168201915b50505050508152602001600682015481526020016007820160009054906101000a900473ffffffffffffffffffffffffffffffffffffffff1673ffffffffffffffffffffffffffffffffffffffff1673ffffffffffffffffffffffffffffffffffffffff168152602001600882015481526020016009820160009054906101000a900473ffffffffffffffffffffffffffffffffffffffff1673ffffffffffffffffffffffffffffffffffffffff1673ffffffffffffffffffffffffffffffffffffffff168152602001600a8201548152602001600b820160009054906101000a900460ff1615151515815250509050919050565b3373ffffffffffffffffffffffffffffffffffffffff1660088281548110611dcb57611dca614ebe565b5b90600052602060002090600c020160070160009054906101000a900473ffffffffffffffffffffffffffffffffffffffff1673ffffffffffffffffffffffffffffffffffffffff1614611e53576040517f08c379a0000000000000000000000000000000000000000000000000000000008152600401611e4a90615062565b60405180910390fd5b6001151560088281548110611e6b57611e6a614ebe565b5b90600052602060002090600c0201600b0160009054906101000a900460ff16151514611ecc576040517f08c379a0000000000000000000000000000000000000000000000000000000008152600401611ec3906150ce565b60405180910390fd5b6000600a600083815260200190815260200160002060006101000a81548160ff0219169083151502179055508160088281548110611f0d57611f0c614ebe565b5b90600052602060002090600c0201600a01819055505050565b60068181548110611f3657600080fd5b906000526020600020016000915054906101000a900473ffffffffffffffffffffffffffffffffffffffff1681565b60056000815480929190611f7890614e76565b91905055506006819080600181540180825580915050600190039060005260206000200160009091909190916101000a81548173ffffffffffffffffffffffffffffffffffffffff021916908373ffffffffffffffffffffffffffffffffffffffff16021790555050565b7fa49807205ce4d355092ef5a8a18f56e8913cf4a201fbe287825b095693c2177581565b6060600480548060200260200160405190810160405280929190818152602001828054801561208b57602002820191906000526020600020905b8160009054906101000a900473ffffffffffffffffffffffffffffffffffffffff1673ffffffffffffffffffffffffffffffffffffffff1681526020019060010190808311612041575b5050505050905090565b60606009805480602002602001604051908101604052809291908181526020016000905b8282101561215f57838290600052602060002090600402016040518060800160405290816000820154815260200160018201548152602001600282015481526020016003820160009054906101000a900473ffffffffffffffffffffffffffffffffffffffff1673ffffffffffffffffffffffffffffffffffffffff1673ffffffffffffffffffffffffffffffffffffffff1681525050815260200190600101906120b9565b50505050905090565b600080600084815260200190815260200160002060000160008373ffffffffffffffffffffffffffffffffffffffff1673ffffffffffffffffffffffffffffffffffffffff16815260200190815260200160002060009054906101000a900460ff16905092915050565b60088054905081111561221a576040517f08c379a00000000000000000000000000000000000000000000000000000000081526004016122119061513a565b60405180910390fd5b6008818154811061222e5761222d614ebe565b5b90600052602060002090600c0201600a01544210612281576040517f08c379a0000000000000000000000000000000000000000000000000000000008152600401612278906151a6565b60405180910390fd5b6008818154811061229557612294614ebe565b5b90600052602060002090600c02016008015434116122e8576040517f08c379a00000000000000000000000000000000000000000000000000000000081526004016122df90615212565b60405180910390fd5b600073ffffffffffffffffffffffffffffffffffffffff166008828154811061231457612313614ebe565b5b90600052602060002090600c020160090160009054906101000a900473ffffffffffffffffffffffffffffffffffffffff1673ffffffffffffffffffffffffffffffffffffffff1614612413576008818154811061237557612374614ebe565b5b90600052602060002090600c020160090160009054906101000a900473ffffffffffffffffffffffffffffffffffffffff1673ffffffffffffffffffffffffffffffffffffffff166108fc600883815481106123d4576123d3614ebe565b5b90600052602060002090600c0201600801549081150290604051600060405180830381858888f19350505050158015612411573d6000803e3d6000fd5b505b336008828154811061242857612427614ebe565b5b90600052602060002090600c020160090160006101000a81548173ffffffffffffffffffffffffffffffffffffffff021916908373ffffffffffffffffffffffffffffffffffffffff160217905550346008828154811061248c5761248b614ebe565b5b90600052602060002090600c020160080181905550600060405180608001604052808381526020014281526020013481526020013373ffffffffffffffffffffffffffffffffffffffff168152509050600981908060018154018082558091505060019003906000526020600020906004020160009091909190915060008201518160000155602082015181600101556040820151816002015560608201518160030160006101000a81548173ffffffffffffffffffffffffffffffffffffffff021916908373ffffffffffffffffffffffffffffffffffffffff16021790555050505050565b6000801b81565b6008805490508111156125c2576040517f08c379a00000000000000000000000000000000000000000000000000000000081526004016125b99061513a565b60405180910390fd5b6001600882815481106125d8576125d7614ebe565b5b90600052602060002090600c0201600b0160006101000a81548160ff02191690831515021790555050565b7fa49807205ce4d355092ef5a8a18f56e8913cf4a201fbe287825b095693c2177561262d816132e4565b6126577fa49807205ce4d355092ef5a8a18f56e8913cf4a201fbe287825b095693c21775836116d6565b5050565b3373ffffffffffffffffffffffffffffffffffffffff166008828154811061268657612685614ebe565b5b90600052602060002090600c020160070160009054906101000a900473ffffffffffffffffffffffffffffffffffffffff1673ffffffffffffffffffffffffffffffffffffffff161461270e576040517f08c379a000000000000000000000000000000000000000000000000000000000815260040161270590615062565b60405180910390fd5b600115156008828154811061272657612725614ebe565b5b90600052602060002090600c0201600b0160009054906101000a900460ff16151514612787576040517f08c379a000000000000000000000000000000000000000000000000000000000815260040161277e906150ce565b60405180910390fd5b6008818154811061279b5761279a614ebe565b5b90600052602060002090600c0201600a01544210156127ef576040517f08c379a00000000000000000000000000000000000000000000000000000000081526004016127e69061527e565b60405180910390fd5b600880549050811115612837576040517f08c379a000000000000000000000000000000000000000000000000000000000815260040161282e9061513a565b60405180910390fd5b6001600a600083815260200190815260200160002060006101000a81548160ff0219169083151502179055506008818154811061287757612876614ebe565b5b90600052602060002090600c020160070160009054906101000a900473ffffffffffffffffffffffffffffffffffffffff1673ffffffffffffffffffffffffffffffffffffffff166108fc600883815481106128d6576128d5614ebe565b5b90600052602060002090600c0201600801549081150290604051600060405180830381858888f19350505050158015612913573d6000803e3d6000fd5b5050565b6004818154811061292757600080fd5b906000526020600020016000915054906101000a900473ffffffffffffffffffffffffffffffffffffffff1681565b6007818154811061296657600080fd5b906000526020600020906007020160009150905080600001549080600101805461298f90614b98565b80601f01602080910402602001604051908101604052809291908181526020018280546129bb90614b98565b8015612a085780601f106129dd57610100808354040283529160200191612a08565b820191906000526020600020905b8154815290600101906020018083116129eb57829003601f168201915b505050505090806002018054612a1d90614b98565b80601f0160208091040260200160405190810160405280929190818152602001828054612a4990614b98565b8015612a965780601f10612a6b57610100808354040283529160200191612a96565b820191906000526020600020905b815481529060010190602001808311612a7957829003601f168201915b505050505090806003018054612aab90614b98565b80601f0160208091040260200160405190810160405280929190818152602001828054612ad790614b98565b8015612b245780601f10612af957610100808354040283529160200191612b24565b820191906000526020600020905b815481529060010190602001808311612b0757829003601f168201915b505050505090806004018054612b3990614b98565b80601f0160208091040260200160405190810160405280929190818152602001828054612b6590614b98565b8015612bb25780601f10612b8757610100808354040283529160200191612bb2565b820191906000526020600020905b815481529060010190602001808311612b9557829003601f168201915b5050505050908060060154905086565b60055481565b60088181548110612bd857600080fd5b90600052602060002090600c0201600091509050806000015490806001018054612c0190614b98565b80601f0160208091040260200160405190810160405280929190818152602001828054612c2d90614b98565b8015612c7a5780601f10612c4f57610100808354040283529160200191612c7a565b820191906000526020600020905b815481529060010190602001808311612c5d57829003601f168201915b505050505090806002015490806003018054612c9590614b98565b80601f0160208091040260200160405190810160405280929190818152602001828054612cc190614b98565b8015612d0e5780601f10612ce357610100808354040283529160200191612d0e565b820191906000526020600020905b815481529060010190602001808311612cf157829003601f168201915b505050505090806004018054612d2390614b98565b80601f0160208091040260200160405190810160405280929190818152602001828054612d4f90614b98565b8015612d9c5780601f10612d7157610100808354040283529160200191612d9c565b820191906000526020600020905b815481529060010190602001808311612d7f57829003601f168201915b505050505090806005018054612db190614b98565b80601f0160208091040260200160405190810160405280929190818152602001828054612ddd90614b98565b8015612e2a5780601f10612dff57610100808354040283529160200191612e2a565b820191906000526020600020905b815481529060010190602001808311612e0d57829003601f168201915b5050505050908060060154908060070160009054906101000a900473ffffffffffffffffffffffffffffffffffffffff16908060080154908060090160009054906101000a900473ffffffffffffffffffffffffffffffffffffffff169080600a01549080600b0160009054906101000a900460ff1690508c565b612eae826116b7565b612eb7816132e4565b612ec1838361344a565b505050565b60606006805480602002602001604051908101604052809291908181526020018280548015612f4a57602002820191906000526020600020905b8160009054906101000a900473ffffffffffffffffffffffffffffffffffffffff1673ffffffffffffffffffffffffffffffffffffffff1681526020019060010190808311612f00575b5050505050905090565b7fa49807205ce4d355092ef5a8a18f56e8913cf4a201fbe287825b095693c21775612f7e816132e4565b6000600160008154612f8f90614e76565b919050819055905060006040518060e001604052808381526020018a815260200189815260200188815260200187815260200186815260200185815250905060078190806001815401808255809150506001900390600052602060002090600702016000909190919091506000820151816000015560208201518160010190816130199190614d75565b50604082015181600201908161302f9190614d75565b5060608201518160030190816130459190614d75565b50608082015181600401908161305b9190614d75565b5060a08201518160050190805190602001906130789291906138a8565b5060c082015181600601555050505050505050505050565b7f7c6181838a71a779e445600d4c6ecbe16bacf2b3c5bda69c29fada66d1b645d181565b600881815481106130c8576130c7614ebe565b5b90600052602060002090600c0201600a015442101561311c576040517f08c379a00000000000000000000000000000000000000000000000000000000081526004016131139061527e565b60405180910390fd5b60006008828154811061313257613131614ebe565b5b90600052602060002090600c02016008015414613184576040517f08c379a000000000000000000000000000000000000000000000000000000000815260040161317b906152ea565b60405180910390fd5b336008828154811061319957613198614ebe565b5b90600052602060002090600c020160090160006101000a81548173ffffffffffffffffffffffffffffffffffffffff021916908373ffffffffffffffffffffffffffffffffffffffff16021790555034600882815481106131fd576131fc614ebe565b5b90600052602060002090600c020160080181905550600060405180608001604052808381526020014281526020013481526020013373ffffffffffffffffffffffffffffffffffffffff168152509050600981908060018154018082558091505060019003906000526020600020906004020160009091909190915060008201518160000155602082015181600101556040820151816002015560608201518160030160006101000a81548173ffffffffffffffffffffffffffffffffffffffff021916908373ffffffffffffffffffffffffffffffffffffffff16021790555050505050565b6132f5816132f0613442565b61352b565b50565b60007f01ffc9a7000000000000000000000000000000000000000000000000000000007bffffffffffffffffffffffffffffffffffffffffffffffffffffffff1916827bffffffffffffffffffffffffffffffffffffffffffffffffffffffff1916149050919050565b61336c8282612168565b61343e57600160008084815260200190815260200160002060000160008373ffffffffffffffffffffffffffffffffffffffff1673ffffffffffffffffffffffffffffffffffffffff16815260200190815260200160002060006101000a81548160ff0219169083151502179055506133e3613442565b73ffffffffffffffffffffffffffffffffffffffff168173ffffffffffffffffffffffffffffffffffffffff16837f2f8788117e7eff1d82e926ec794901d17c78024a50270940304540a733656f0d60405160405180910390a45b5050565b600033905090565b6134548282612168565b1561352757600080600084815260200190815260200160002060000160008373ffffffffffffffffffffffffffffffffffffffff1673ffffffffffffffffffffffffffffffffffffffff16815260200190815260200160002060006101000a81548160ff0219169083151502179055506134cc613442565b73ffffffffffffffffffffffffffffffffffffffff168173ffffffffffffffffffffffffffffffffffffffff16837ff6391f5c32d9c69d2a47ea670b442974b53935d1edc7fd64eb21e047a839171b60405160405180910390a45b5050565b6135358282612168565b6135ac57613542816135b0565b6135508360001c60206135dd565b6040516020016135619291906153de565b6040516020818303038152906040526040517f08c379a00000000000000000000000000000000000000000000000000000000081526004016135a39190615418565b60405180910390fd5b5050565b60606135d68273ffffffffffffffffffffffffffffffffffffffff16601460ff166135dd565b9050919050565b6060600060028360026135f0919061543a565b6135fa9190614eed565b67ffffffffffffffff811115613613576136126139b1565b5b6040519080825280601f01601f1916602001820160405280156136455781602001600182028036833780820191505090505b5090507f30000000000000000000000000000000000000000000000000000000000000008160008151811061367d5761367c614ebe565b5b60200101907effffffffffffffffffffffffffffffffffffffffffffffffffffffffffffff1916908160001a9053507f7800000000000000000000000000000000000000000000000000000000000000816001815181106136e1576136e0614ebe565b5b60200101907effffffffffffffffffffffffffffffffffffffffffffffffffffffffffffff1916908160001a90535060006001846002613721919061543a565b61372b9190614eed565b90505b60018111156137cb577f3031323334353637383961626364656600000000000000000000000000000000600f86166010811061376d5761376c614ebe565b5b1a60f81b82828151811061378457613783614ebe565b5b60200101907effffffffffffffffffffffffffffffffffffffffffffffffffffffffffffff1916908160001a905350600485901c9450806137c49061547c565b905061372e565b506000841461380f576040517f08c379a0000000000000000000000000000000000000000000000000000000008152600401613806906154f1565b60405180910390fd5b8091505092915050565b60405180610180016040528060008152602001606081526020016000815260200160608152602001606081526020016060815260200160008152602001600073ffffffffffffffffffffffffffffffffffffffff16815260200160008152602001600073ffffffffffffffffffffffffffffffffffffffff168152602001600081526020016000151581525090565b8280548282559060005260206000209081019282156138f0579160200282015b828111156138ef5782518290816138df9190614d75565b50916020019190600101906138c8565b5b5090506138fd9190613901565b5090565b5b8082111561392157600081816139189190613925565b50600101613902565b5090565b50805461393190614b98565b6000825580601f106139435750613962565b601f0160209004906000526020600020908101906139619190613965565b5b50565b5b8082111561397e576000816000905550600101613966565b5090565b6000604051905090565b600080fd5b600080fd5b600080fd5b600080fd5b6000601f19601f8301169050919050565b7f4e487b7100000000000000000000000000000000000000000000000000000000600052604160045260246000fd5b6139e9826139a0565b810181811067ffffffffffffffff82111715613a0857613a076139b1565b5b80604052505050565b6000613a1b613982565b9050613a2782826139e0565b919050565b600067ffffffffffffffff821115613a4757613a466139b1565b5b613a50826139a0565b9050602081019050919050565b82818337600083830152505050565b6000613a7f613a7a84613a2c565b613a11565b905082815260208101848484011115613a9b57613a9a61399b565b5b613aa6848285613a5d565b509392505050565b600082601f830112613ac357613ac2613996565b5b8135613ad3848260208601613a6c565b91505092915050565b6000819050919050565b613aef81613adc565b8114613afa57600080fd5b50565b600081359050613b0c81613ae6565b92915050565b60008060008060008060c08789031215613b2f57613b2e61398c565b5b600087013567ffffffffffffffff811115613b4d57613b4c613991565b5b613b5989828a01613aae565b9650506020613b6a89828a01613afd565b955050604087013567ffffffffffffffff811115613b8b57613b8a613991565b5b613b9789828a01613aae565b945050606087013567ffffffffffffffff811115613bb857613bb7613991565b5b613bc489828a01613aae565b935050608087013567ffffffffffffffff811115613be557613be4613991565b5b613bf189828a01613aae565b92505060a0613c0289828a01613afd565b9150509295509295509295565b60007fffffffff0000000000000000000000000000000000000000000000000000000082169050919050565b613c4481613c0f565b8114613c4f57600080fd5b50565b600081359050613c6181613c3b565b92915050565b600060208284031215613c7d57613c7c61398c565b5b6000613c8b84828501613c52565b91505092915050565b60008115159050919050565b613ca981613c94565b82525050565b6000602082019050613cc46000830184613ca0565b92915050565b600081519050919050565b600082825260208201905092915050565b6000819050602082019050919050565b613cff81613adc565b82525050565b600081519050919050565b600082825260208201905092915050565b60005b83811015613d3f578082015181840152602081019050613d24565b60008484015250505050565b6000613d5682613d05565b613d608185613d10565b9350613d70818560208601613d21565b613d79816139a0565b840191505092915050565b600081519050919050565b600082825260208201905092915050565b6000819050602082019050919050565b6000613dbc8383613d4b565b905092915050565b6000602082019050919050565b6000613ddc82613d84565b613de68185613d8f565b935083602082028501613df885613da0565b8060005b85811015613e345784840389528151613e158582613db0565b9450613e2083613dc4565b925060208a01995050600181019050613dfc565b50829750879550505050505092915050565b600060e083016000830151613e5e6000860182613cf6565b5060208301518482036020860152613e768282613d4b565b91505060408301518482036040860152613e908282613d4b565b91505060608301518482036060860152613eaa8282613d4b565b91505060808301518482036080860152613ec48282613d4b565b91505060a083015184820360a0860152613ede8282613dd1565b91505060c0830151613ef360c0860182613cf6565b508091505092915050565b6000613f0a8383613e46565b905092915050565b6000602082019050919050565b6000613f2a82613cca565b613f348185613cd5565b935083602082028501613f4685613ce6565b8060005b85811015613f825784840389528151613f638582613efe565b9450613f6e83613f12565b925060208a01995050600181019050613f4a565b50829750879550505050505092915050565b60006020820190508181036000830152613fae8184613f1f565b905092915050565b600060208284031215613fcc57613fcb61398c565b5b6000613fda84828501613afd565b91505092915050565b600081519050919050565b600082825260208201905092915050565b6000819050602082019050919050565b600073ffffffffffffffffffffffffffffffffffffffff82169050919050565b600061403a8261400f565b9050919050565b61404a8161402f565b82525050565b61405981613c94565b82525050565b6000610180830160008301516140786000860182613cf6565b50602083015184820360208601526140908282613d4b565b91505060408301516140a56040860182613cf6565b50606083015184820360608601526140bd8282613d4b565b915050608083015184820360808601526140d78282613d4b565b91505060a083015184820360a08601526140f18282613d4b565b91505060c083015161410660c0860182613cf6565b5060e083015161411960e0860182614041565b5061010083015161412e610100860182613cf6565b50610120830151614143610120860182614041565b50610140830151614158610140860182613cf6565b5061016083015161416d610160860182614050565b508091505092915050565b6000614184838361405f565b905092915050565b6000602082019050919050565b60006141a482613fe3565b6141ae8185613fee565b9350836020820285016141c085613fff565b8060005b858110156141fc57848403895281516141dd8582614178565b94506141e88361418c565b925060208a019950506001810190506141c4565b50829750879550505050505092915050565b600060208201905081810360008301526142288184614199565b905092915050565b6000819050919050565b61424381614230565b811461424e57600080fd5b50565b6000813590506142608161423a565b92915050565b60006020828403121561427c5761427b61398c565b5b600061428a84828501614251565b91505092915050565b61429c81614230565b82525050565b60006020820190506142b76000830184614293565b92915050565b6142c68161402f565b81146142d157600080fd5b50565b6000813590506142e3816142bd565b92915050565b60008060408385031215614300576142ff61398c565b5b600061430e85828601614251565b925050602061431f858286016142d4565b9150509250929050565b61433281613adc565b82525050565b6143418161402f565b82525050565b600060808201905061435c6000830187614329565b6143696020830186614329565b6143766040830185614329565b6143836060830184614338565b95945050505050565b6000602082840312156143a2576143a161398c565b5b60006143b0848285016142d4565b91505092915050565b6000610180830160008301516143d26000860182613cf6565b50602083015184820360208601526143ea8282613d4b565b91505060408301516143ff6040860182613cf6565b50606083015184820360608601526144178282613d4b565b915050608083015184820360808601526144318282613d4b565b91505060a083015184820360a086015261444b8282613d4b565b91505060c083015161446060c0860182613cf6565b5060e083015161447360e0860182614041565b50610100830151614488610100860182613cf6565b5061012083015161449d610120860182614041565b506101408301516144b2610140860182613cf6565b506101608301516144c7610160860182614050565b508091505092915050565b600060208201905081810360008301526144ec81846143b9565b905092915050565b6000806040838503121561450b5761450a61398c565b5b600061451985828601613afd565b925050602061452a85828601613afd565b9150509250929050565b60006020820190506145496000830184614338565b92915050565b600081519050919050565b600082825260208201905092915050565b6000819050602082019050919050565b60006145878383614041565b60208301905092915050565b6000602082019050919050565b60006145ab8261454f565b6145b5818561455a565b93506145c08361456b565b8060005b838110156145f15781516145d8888261457b565b97506145e383614593565b9250506001810190506145c4565b5085935050505092915050565b6000602082019050818103600083015261461881846145a0565b905092915050565b600081519050919050565b600082825260208201905092915050565b6000819050602082019050919050565b6080820160008201516146626000850182613cf6565b5060208201516146756020850182613cf6565b5060408201516146886040850182613cf6565b50606082015161469b6060850182614041565b50505050565b60006146ad838361464c565b60808301905092915050565b6000602082019050919050565b60006146d182614620565b6146db818561462b565b93506146e68361463c565b8060005b838110156147175781516146fe88826146a1565b9750614709836146b9565b9250506001810190506146ea565b5085935050505092915050565b6000602082019050818103600083015261473e81846146c6565b905092915050565b600082825260208201905092915050565b600061476282613d05565b61476c8185614746565b935061477c818560208601613d21565b614785816139a0565b840191505092915050565b600060c0820190506147a56000830189614329565b81810360208301526147b78188614757565b905081810360408301526147cb8187614757565b905081810360608301526147df8186614757565b905081810360808301526147f38185614757565b905061480260a0830184614329565b979650505050505050565b60006020820190506148226000830184614329565b92915050565b60006101808201905061483e600083018f614329565b8181036020830152614850818e614757565b905061485f604083018d614329565b8181036060830152614871818c614757565b90508181036080830152614885818b614757565b905081810360a0830152614899818a614757565b90506148a860c0830189614329565b6148b560e0830188614338565b6148c3610100830187614329565b6148d1610120830186614338565b6148df610140830185614329565b6148ed610160830184613ca0565b9d9c50505050505050505050505050565b600067ffffffffffffffff821115614919576149186139b1565b5b602082029050602081019050919050565b600080fd5b600061494261493d846148fe565b613a11565b905080838252602082019050602084028301858111156149655761496461492a565b5b835b818110156149ac57803567ffffffffffffffff81111561498a57614989613996565b5b8086016149978982613aae565b85526020850194505050602081019050614967565b5050509392505050565b600082601f8301126149cb576149ca613996565b5b81356149db84826020860161492f565b91505092915050565b60008060008060008060c08789031215614a0157614a0061398c565b5b600087013567ffffffffffffffff811115614a1f57614a1e613991565b5b614a2b89828a01613aae565b965050602087013567ffffffffffffffff811115614a4c57614a4b613991565b5b614a5889828a01613aae565b955050604087013567ffffffffffffffff811115614a7957614a78613991565b5b614a8589828a01613aae565b945050606087013567ffffffffffffffff811115614aa657614aa5613991565b5b614ab289828a01613aae565b935050608087013567ffffffffffffffff811115614ad357614ad2613991565b5b614adf89828a016149b6565b92505060a0614af089828a01613afd565b9150509295509295509295565b7f41504d4320646f65736e27742065786973740000000000000000000000000000600082015250565b6000614b33601283614746565b9150614b3e82614afd565b602082019050919050565b60006020820190508181036000830152614b6281614b26565b9050919050565b7f4e487b7100000000000000000000000000000000000000000000000000000000600052602260045260246000fd5b60006002820490506001821680614bb057607f821691505b602082108103614bc357614bc2614b69565b5b50919050565b60008190508160005260206000209050919050565b60006020601f8301049050919050565b600082821b905092915050565b600060088302614c2b7fffffffffffffffffffffffffffffffffffffffffffffffffffffffffffffffff82614bee565b614c358683614bee565b95508019841693508086168417925050509392505050565b6000819050919050565b6000614c72614c6d614c6884613adc565b614c4d565b613adc565b9050919050565b6000819050919050565b614c8c83614c57565b614ca0614c9882614c79565b848454614bfb565b825550505050565b600090565b614cb5614ca8565b614cc0818484614c83565b505050565b5b81811015614ce457614cd9600082614cad565b600181019050614cc6565b5050565b601f821115614d2957614cfa81614bc9565b614d0384614bde565b81016020851015614d12578190505b614d26614d1e85614bde565b830182614cc5565b50505b505050565b600082821c905092915050565b6000614d4c60001984600802614d2e565b1980831691505092915050565b6000614d658383614d3b565b9150826002028217905092915050565b614d7e82613d05565b67ffffffffffffffff811115614d9757614d966139b1565b5b614da18254614b98565b614dac828285614ce8565b600060209050601f831160018114614ddf5760008415614dcd578287015190505b614dd78582614d59565b865550614e3f565b601f198416614ded86614bc9565b60005b82811015614e1557848901518255600182019150602085019450602081019050614df0565b86831015614e325784890151614e2e601f891682614d3b565b8355505b6001600288020188555050505b505050505050565b7f4e487b7100000000000000000000000000000000000000000000000000000000600052601160045260246000fd5b6000614e8182613adc565b91507fffffffffffffffffffffffffffffffffffffffffffffffffffffffffffffffff8203614eb357614eb2614e47565b5b600182019050919050565b7f4e487b7100000000000000000000000000000000000000000000000000000000600052603260045260246000fd5b6000614ef882613adc565b9150614f0383613adc565b9250828201905080821115614f1b57614f1a614e47565b5b92915050565b6000614f2c82613adc565b9150614f3783613adc565b9250828203905081811115614f4f57614f4e614e47565b5b92915050565b7f416363657373436f6e74726f6c3a2063616e206f6e6c792072656e6f756e636560008201527f20726f6c657320666f722073656c660000000000000000000000000000000000602082015250565b6000614fb1602f83614746565b9150614fbc82614f55565b604082019050919050565b60006020820190508181036000830152614fe081614fa4565b9050919050565b7f4e487b7100000000000000000000000000000000000000000000000000000000600052603160045260246000fd5b7f596f75277265206e6f7420746865206f776e6572000000000000000000000000600082015250565b600061504c601483614746565b915061505782615016565b602082019050919050565b6000602082019050818103600083015261507b8161503f565b9050919050565b7f5175616c697479204e6f74205665726966696564000000000000000000000000600082015250565b60006150b8601483614746565b91506150c382615082565b602082019050919050565b600060208201905081810360008301526150e7816150ab565b9050919050565b7f496e76616c69642070726f647563742049440000000000000000000000000000600082015250565b6000615124601283614746565b915061512f826150ee565b602082019050919050565b6000602082019050818103600083015261515381615117565b9050919050565b7f41756374696f6e2068617320656e646564000000000000000000000000000000600082015250565b6000615190601183614746565b915061519b8261515a565b602082019050919050565b600060208201905081810360008301526151bf81615183565b9050919050565b7f56616c7565206973206c6f776572207468616e20686967686573742062696400600082015250565b60006151fc601f83614746565b9150615207826151c6565b602082019050919050565b6000602082019050818103600083015261522b816151ef565b9050919050565b7f41756374696f6e20686173206e6f7420656e6465642079657400000000000000600082015250565b6000615268601983614746565b915061527382615232565b602082019050919050565b600060208201905081810360008301526152978161525b565b9050919050565b7f43616e6e6f7420627579206174204d5350000000000000000000000000000000600082015250565b60006152d4601183614746565b91506152df8261529e565b602082019050919050565b60006020820190508181036000830152615303816152c7565b9050919050565b600081905092915050565b7f416363657373436f6e74726f6c3a206163636f756e7420000000000000000000600082015250565b600061534b60178361530a565b915061535682615315565b601782019050919050565b600061536c82613d05565b615376818561530a565b9350615386818560208601613d21565b80840191505092915050565b7f206973206d697373696e6720726f6c6520000000000000000000000000000000600082015250565b60006153c860118361530a565b91506153d382615392565b601182019050919050565b60006153e98261533e565b91506153f58285615361565b9150615400826153bb565b915061540c8284615361565b91508190509392505050565b600060208201905081810360008301526154328184614757565b905092915050565b600061544582613adc565b915061545083613adc565b925082820261545e81613adc565b9150828204841483151761547557615474614e47565b5b5092915050565b600061548782613adc565b91506000820361549a57615499614e47565b5b600182039050919050565b7f537472696e67733a20686578206c656e67746820696e73756666696369656e74600082015250565b60006154db602083614746565b91506154e6826154a5565b602082019050919050565b6000602082019050818103600083015261550a816154ce565b905091905056fea2646970667358221220541a2b927899031bd4a7d01d1c1395b15903c946b34819fe6adef5fe2109bf0d64736f6c63430008130033",
  "immutableReferences": {},
  "source": "// SPDX-License-Identifier: GPL-3.0\r\n\r\npragma solidity 0.8.19;\r\nimport \"@openzeppelin/contracts/access/AccessControl.sol\";\r\n\r\ncontract FarmerContract is AccessControl{\r\n    bytes32 public constant ADMIN_ROLE = keccak256(\"ADMIN_ROLE\");\r\n    bytes32 public constant FARMER_ROLE = keccak256(\"FARMER_ROLE\");\r\n    uint apmcscount;\r\n    uint productscount;\r\n    address owner;\r\n    constructor() payable {\r\n        _grantRole(DEFAULT_ADMIN_ROLE, msg.sender); \r\n        _grantRole(ADMIN_ROLE, msg.sender);\r\n        owner = msg.sender;\r\n        apmcscount = 0;\r\n        productscount = 0;\r\n    }\r\n\r\n\r\n    struct APMC{\r\n       uint apmcid;\r\n       string apmcname;\r\n       string addressloc;\r\n       string state;\r\n       string district;\r\n       string[] commoditiestraded;\r\n       uint contact;\r\n    }\r\n\r\n    struct productDetails {\r\n        uint productId;\r\n        string commodityName ;\r\n        uint256 quantity ;\r\n        string unit;\r\n        string image;\r\n        string tplic;\r\n        uint apmcid;\r\n        address curowner;\r\n        uint highestBid;\r\n        address highestBidder;\r\n        uint auctionEndTime;\r\n        bool quality;\r\n        \r\n    }\r\n\r\n    struct bidDetails{\r\n        uint productId;\r\n        uint time;\r\n        uint bid;\r\n        address bidderAddress;\r\n    }\r\n\r\n\r\n    // mapping(address => productDetails[]) public farmerProducts;\r\n    address[] public farmerAddresses; //All farmers\r\n    uint256 public farmerCount;\r\n    address[] public farmerRequests;\r\n    APMC[] public apmcs;\r\n    productDetails[] public allProducts;\r\n    bidDetails[] public allBids;\r\n    mapping(uint => bool) public bidsDone;\r\n\r\n    function addOfficial(address _adminacc) public onlyRole(ADMIN_ROLE){\r\n        grantRole(ADMIN_ROLE, _adminacc);\r\n    }\r\n    \r\n    function farmerRegistration(\r\n        address _addressvar\r\n    ) public {\r\n        farmerCount++;\r\n        farmerRequests.push(_addressvar);\r\n    }\r\n\r\n    function addAPMC(\r\n        string memory _apmcname,\r\n        string memory _addressloc,\r\n        string memory _state,\r\n        string memory _district,\r\n        string[] memory _commoditiestraded,\r\n        uint _contact\r\n    ) public onlyRole(ADMIN_ROLE){\r\n        uint apmcid = ++apmcscount;\r\n        APMC memory newAPMC = APMC(apmcid,_apmcname,_addressloc,_state, _district, _commoditiestraded, _contact);\r\n        apmcs.push(newAPMC);\r\n    }\r\n\r\n    function addProduct(\r\n    string memory _name,\r\n    uint256 _quantity,\r\n    string memory _unit,\r\n    string memory _img,\r\n    string memory _tplic,\r\n    uint256 _apmcid\r\n) public payable onlyRole(FARMER_ROLE) {\r\n    require(_apmcid <= apmcscount, \"APMC doesn't exist\");\r\n\r\n    // Calculate auction end time\r\n    // uint256 auctionEndTime = block.timestamp + (_durationMinutes * 60);\r\n\r\n    productDetails memory newProduct = productDetails({\r\n        productId: productscount,\r\n        commodityName: _name,\r\n        quantity: _quantity,\r\n        unit: _unit,\r\n        image: _img,\r\n        tplic: _tplic,\r\n        apmcid: _apmcid,\r\n        curowner: msg.sender,\r\n        highestBid: 0,\r\n        highestBidder: address(0),\r\n        auctionEndTime: 0,\r\n        quality: false\r\n        \r\n    });\r\n\r\n    // Add the new product to the mappings and lists\r\n    // farmerProducts[msg.sender].push(newProduct);\r\n    allProducts.push(newProduct);\r\n\r\n    // Increment the product count\r\n    productscount++;\r\n}\r\n\r\nfunction startAuction(uint _auctionEndTime,uint productId) public {\r\n    require(allProducts[productId].curowner == msg.sender ,\"You're not the owner\");\r\n    require(allProducts[productId].quality == true,\"Quality Not Verified\");\r\n    // uint256 auctionEndTime = block.timestamp + (_durationMinutes * 60);\r\n    bidsDone[productId] = false;\r\n    allProducts[productId].auctionEndTime = _auctionEndTime;\r\n}\r\n\r\n\r\n    // function getFarmerProducts(address _addressvar) public view returns(productDetails[] memory){\r\n    //     return farmerProducts[_addressvar];\r\n    // }\r\n    function grantRoleToFarmer(address _farmer) public onlyRole(ADMIN_ROLE) {\r\n\r\n    // Remove the address from the farmerRequests array.\r\n    for (uint256 i = 0; i < farmerRequests.length; i++) {\r\n        if (farmerRequests[i] == _farmer) {\r\n            farmerRequests[i] = farmerRequests[farmerRequests.length - 1]; //swap the one at the very end with the i'th\r\n            farmerRequests.pop();\r\n            break;\r\n        }\r\n    }\r\n\r\n    // Grant the FARMER_ROLE to the address.\r\n    grantRole(FARMER_ROLE, _farmer);\r\n\r\n    // Add the address to the farmerAddresses array.\r\n    farmerAddresses.push(_farmer);\r\n    }\r\n\r\n    function getFarmers() public view returns (address[] memory) {\r\n        return farmerAddresses;\r\n    }\r\n\r\n    function getFarmersRequests() public view returns (address[] memory) {\r\n        return farmerRequests;\r\n    }\r\n\r\n    function getAllFarmerProducts() public view returns(productDetails[] memory){\r\n        return allProducts;\r\n    }\r\n\r\n    function getAllAPMC() public view returns(APMC[] memory){\r\n        return apmcs;\r\n    }\r\n\r\n    function getAProduct(uint productId) public view returns(productDetails memory){\r\n        return allProducts[productId];\r\n    }\r\n\r\n    function getProductsinAPMC(uint apmcid) public view returns(productDetails[] memory){\r\n    productDetails[] memory result;\r\n    for (uint i = 0; i < allProducts.length; i++) {\r\n        if (allProducts[i].apmcid == apmcid) {\r\n            result = new productDetails[](result.length + 1);\r\n            result[result.length - 1] = allProducts[i];\r\n        }\r\n    }\r\n    return result;\r\n    }\r\n\r\n    function getAllBids() public view returns(bidDetails[] memory){\r\n        return allBids;\r\n    }\r\n\r\n    function inspectFoodSafety(uint productId) public payable{\r\n        require(productId <= allProducts.length, \"Invalid product ID\");\r\n        allProducts[productId].quality = true;\r\n    }\r\n\r\n    function placeBid(uint productId) public payable {\r\n    require(productId <= allProducts.length, \"Invalid product ID\");\r\n    require(block.timestamp < allProducts[productId].auctionEndTime, \"Auction has ended\");\r\n    require(msg.value > allProducts[productId].highestBid, \"Value is lower than highest bid\");\r\n  \r\n    if (allProducts[productId].highestBidder != address(0)) {\r\n            // Refund the previous highest bidder\r\n            payable(allProducts[productId].highestBidder).transfer(allProducts[productId].highestBid);\r\n        }\r\n\r\n    allProducts[productId].highestBidder = msg.sender;\r\n    allProducts[productId].highestBid = msg.value;\r\n    bidDetails memory newBid = bidDetails({\r\n        productId: productId,\r\n        time: block.timestamp,\r\n        bid: msg.value,\r\n        bidderAddress: msg.sender\r\n    });\r\n    allBids.push(newBid);\r\n}\r\n\r\nfunction endAuction(uint256 productId) public{\r\n        require(allProducts[productId].curowner == msg.sender ,\"You're not the owner\");\r\n        require(allProducts[productId].quality == true,\"Quality Not Verified\");\r\n        require(block.timestamp >= allProducts[productId].auctionEndTime, \"Auction has not ended yet\");\r\n        require(productId <= allProducts.length, \"Invalid product ID\");\r\n        bidsDone[productId] = true;\r\n        payable(allProducts[productId].curowner).transfer(allProducts[productId].highestBid);\r\n    }\r\n\r\n\r\nfunction buyAtMSP(uint productId) public payable{\r\n    require(block.timestamp >= allProducts[productId].auctionEndTime, \"Auction has not ended yet\");\r\n    require(allProducts[productId].highestBid == 0, \"Cannot buy at MSP\");\r\n    allProducts[productId].highestBidder = msg.sender;\r\n    allProducts[productId].highestBid = msg.value;\r\n     bidDetails memory newBid = bidDetails({\r\n        productId: productId,\r\n        time: block.timestamp,\r\n        bid: msg.value,\r\n        bidderAddress: msg.sender\r\n    });\r\n    allBids.push(newBid);\r\n}\r\n\r\n}",
  "sourcePath": "C:\\Users\\USER\\Documents\\vscode\\PDS_Security\\contracts\\FarmerContract.sol",
  "compiler": {
    "name": "solc",
    "version": "0.8.19+commit.7dd6d404.Emscripten.clang"
  },
  "schemaVersion": "3.4.13",
  "updatedAt": "2024-05-03T16:43:32.059Z",
  "networkType": "ethereum",
  "devdoc": {
    "events": {
      "RoleAdminChanged(bytes32,bytes32,bytes32)": {
        "details": "Emitted when `newAdminRole` is set as ``role``'s admin role, replacing `previousAdminRole` `DEFAULT_ADMIN_ROLE` is the starting admin for all roles, despite {RoleAdminChanged} not being emitted signaling this. _Available since v3.1._"
      },
      "RoleGranted(bytes32,address,address)": {
        "details": "Emitted when `account` is granted `role`. `sender` is the account that originated the contract call, an admin role bearer except when using {AccessControl-_setupRole}."
      },
      "RoleRevoked(bytes32,address,address)": {
        "details": "Emitted when `account` is revoked `role`. `sender` is the account that originated the contract call:   - if using `revokeRole`, it is the admin role bearer   - if using `renounceRole`, it is the role bearer (i.e. `account`)"
      }
    },
    "kind": "dev",
    "methods": {
      "getRoleAdmin(bytes32)": {
        "details": "Returns the admin role that controls `role`. See {grantRole} and {revokeRole}. To change a role's admin, use {_setRoleAdmin}."
      },
      "grantRole(bytes32,address)": {
        "details": "Grants `role` to `account`. If `account` had not been already granted `role`, emits a {RoleGranted} event. Requirements: - the caller must have ``role``'s admin role. May emit a {RoleGranted} event."
      },
      "hasRole(bytes32,address)": {
        "details": "Returns `true` if `account` has been granted `role`."
      },
      "renounceRole(bytes32,address)": {
        "details": "Revokes `role` from the calling account. Roles are often managed via {grantRole} and {revokeRole}: this function's purpose is to provide a mechanism for accounts to lose their privileges if they are compromised (such as when a trusted device is misplaced). If the calling account had been revoked `role`, emits a {RoleRevoked} event. Requirements: - the caller must be `account`. May emit a {RoleRevoked} event."
      },
      "revokeRole(bytes32,address)": {
        "details": "Revokes `role` from `account`. If `account` had been granted `role`, emits a {RoleRevoked} event. Requirements: - the caller must have ``role``'s admin role. May emit a {RoleRevoked} event."
      },
      "supportsInterface(bytes4)": {
        "details": "See {IERC165-supportsInterface}."
      }
    },
    "version": 1
  },
  "userdoc": {
    "kind": "user",
    "methods": {},
    "version": 1
  }
}