{
  "contractName": "ProductContract",
  "abi": [
    {
      "inputs": [
        {
          "internalType": "address",
          "name": "_farmerContractAddress",
          "type": "address"
        }
      ],
      "stateMutability": "nonpayable",
      "type": "constructor"
    },
    {
      "anonymous": false,
      "inputs": [
        {
          "indexed": true,
          "internalType": "string",
          "name": "name",
          "type": "string"
        },
        {
          "indexed": false,
          "internalType": "uint256",
          "name": "msp",
          "type": "uint256"
        },
        {
          "indexed": false,
          "internalType": "uint256",
          "name": "requiredQuantity",
          "type": "uint256"
        },
        {
          "indexed": true,
          "internalType": "uint256",
          "name": "productId",
          "type": "uint256"
        },
        {
          "indexed": false,
          "internalType": "string",
          "name": "unit",
          "type": "string"
        }
      ],
      "name": "ProductAdded",
      "type": "event"
    },
    {
      "anonymous": false,
      "inputs": [
        {
          "indexed": true,
          "internalType": "uint256",
          "name": "productId",
          "type": "uint256"
        }
      ],
      "name": "ProductDeleted",
      "type": "event"
    },
    {
      "anonymous": false,
      "inputs": [
        {
          "indexed": true,
          "internalType": "uint256",
          "name": "productId",
          "type": "uint256"
        },
        {
          "indexed": false,
          "internalType": "string",
          "name": "name",
          "type": "string"
        },
        {
          "indexed": false,
          "internalType": "uint256",
          "name": "msp",
          "type": "uint256"
        },
        {
          "indexed": false,
          "internalType": "uint256",
          "name": "requiredQuantity",
          "type": "uint256"
        },
        {
          "indexed": false,
          "internalType": "string",
          "name": "unit",
          "type": "string"
        }
      ],
      "name": "ProductUpdated",
      "type": "event"
    },
    {
      "inputs": [],
      "name": "farmerContract",
      "outputs": [
        {
          "internalType": "contract FarmerContract",
          "name": "",
          "type": "address"
        }
      ],
      "stateMutability": "view",
      "type": "function",
      "constant": true
    },
    {
      "inputs": [
        {
          "internalType": "uint256",
          "name": "",
          "type": "uint256"
        }
      ],
      "name": "productIds",
      "outputs": [
        {
          "internalType": "uint256",
          "name": "",
          "type": "uint256"
        }
      ],
      "stateMutability": "view",
      "type": "function",
      "constant": true
    },
    {
      "inputs": [
        {
          "internalType": "uint256",
          "name": "",
          "type": "uint256"
        }
      ],
      "name": "products",
      "outputs": [
        {
          "internalType": "string",
          "name": "name",
          "type": "string"
        },
        {
          "internalType": "uint256",
          "name": "msp",
          "type": "uint256"
        },
        {
          "internalType": "uint256",
          "name": "requiredQuantity",
          "type": "uint256"
        },
        {
          "internalType": "string",
          "name": "unit",
          "type": "string"
        }
      ],
      "stateMutability": "view",
      "type": "function",
      "constant": true
    },
    {
      "inputs": [
        {
          "internalType": "string",
          "name": "_name",
          "type": "string"
        },
        {
          "internalType": "uint256",
          "name": "_msp",
          "type": "uint256"
        },
        {
          "internalType": "uint256",
          "name": "_requiredQuantity",
          "type": "uint256"
        },
        {
          "internalType": "uint256",
          "name": "_productId",
          "type": "uint256"
        },
        {
          "internalType": "string",
          "name": "_unit",
          "type": "string"
        }
      ],
      "name": "addProduct",
      "outputs": [],
      "stateMutability": "nonpayable",
      "type": "function"
    },
    {
      "inputs": [
        {
          "internalType": "uint256",
          "name": "_productID",
          "type": "uint256"
        },
        {
          "internalType": "string",
          "name": "_name",
          "type": "string"
        },
        {
          "internalType": "uint256",
          "name": "_msp",
          "type": "uint256"
        },
        {
          "internalType": "uint256",
          "name": "_requiredQuantity",
          "type": "uint256"
        },
        {
          "internalType": "string",
          "name": "_unit",
          "type": "string"
        }
      ],
      "name": "updateProduct",
      "outputs": [],
      "stateMutability": "nonpayable",
      "type": "function"
    },
    {
      "inputs": [
        {
          "internalType": "uint256",
          "name": "_productID",
          "type": "uint256"
        }
      ],
      "name": "deleteProduct",
      "outputs": [],
      "stateMutability": "nonpayable",
      "type": "function"
    },
    {
      "inputs": [
        {
          "internalType": "uint256",
          "name": "_productID",
          "type": "uint256"
        }
      ],
      "name": "getAllProductDetailsById",
      "outputs": [
        {
          "components": [
            {
              "internalType": "string",
              "name": "name",
              "type": "string"
            },
            {
              "internalType": "uint256",
              "name": "msp",
              "type": "uint256"
            },
            {
              "internalType": "uint256",
              "name": "requiredQuantity",
              "type": "uint256"
            },
            {
              "internalType": "string",
              "name": "unit",
              "type": "string"
            }
          ],
          "internalType": "struct ProductContract.productDetails",
          "name": "",
          "type": "tuple"
        }
      ],
      "stateMutability": "view",
      "type": "function",
      "constant": true
    }
  ],
  "bytecode": "0x60806040523480156200001157600080fd5b5060405162001724380380620017248339818101604052810190620000379190620000e8565b806000806101000a81548173ffffffffffffffffffffffffffffffffffffffff021916908373ffffffffffffffffffffffffffffffffffffffff160217905550506200011a565b600080fd5b600073ffffffffffffffffffffffffffffffffffffffff82169050919050565b6000620000b08262000083565b9050919050565b620000c281620000a3565b8114620000ce57600080fd5b50565b600081519050620000e281620000b7565b92915050565b6000602082840312156200010157620001006200007e565b5b60006200011184828501620000d1565b91505092915050565b6115fa806200012a6000396000f3fe608060405234801561001057600080fd5b506004361061007d5760003560e01c80639c0b7d461161005b5780639c0b7d4614610101578063cb51bba91461011f578063e8d0aa011461014f578063ed90c7b71461016b5761007d565b80633b88c4ff1461008257806346d90983146100b25780637acc0b20146100ce575b600080fd5b61009c60048036038101906100979190610b7e565b610187565b6040516100a99190610cb4565b60405180910390f35b6100cc60048036038101906100c79190610e0b565b6102ec565b005b6100e860048036038101906100e39190610b7e565b61052b565b6040516100f89493929190610f17565b60405180910390f35b61010961066b565b6040516101169190610fe9565b60405180910390f35b61013960048036038101906101349190610b7e565b61068f565b6040516101469190611004565b60405180910390f35b6101696004803603810190610164919061101f565b6106b3565b005b61018560048036038101906101809190610b7e565b610a39565b005b61018f610aaf565b600260008381526020019081526020016000206040518060800160405290816000820180546101bd90611101565b80601f01602080910402602001604051908101604052809291908181526020018280546101e990611101565b80156102365780601f1061020b57610100808354040283529160200191610236565b820191906000526020600020905b81548152906001019060200180831161021957829003601f168201915b50505050508152602001600182015481526020016002820154815260200160038201805461026390611101565b80601f016020809104026020016040519081016040528092919081815260200182805461028f90611101565b80156102dc5780601f106102b1576101008083540402835291602001916102dc565b820191906000526020600020905b8154815290600101906020018083116102bf57829003601f168201915b5050505050815250509050919050565b60008054906101000a900473ffffffffffffffffffffffffffffffffffffffff1673ffffffffffffffffffffffffffffffffffffffff166391d1485460008054906101000a900473ffffffffffffffffffffffffffffffffffffffff1673ffffffffffffffffffffffffffffffffffffffff166375b238fc6040518163ffffffff1660e01b8152600401602060405180830381865afa158015610393573d6000803e3d6000fd5b505050506040513d601f19601f820116820180604052508101906103b79190611168565b336040518363ffffffff1660e01b81526004016103d59291906111c5565b602060405180830381865afa1580156103f2573d6000803e3d6000fd5b505050506040513d601f19601f820116820180604052508101906104169190611226565b610455576040517f08c379a000000000000000000000000000000000000000000000000000000000815260040161044c9061129f565b60405180910390fd5b60006040518060800160405280878152602001868152602001858152602001838152509050806002600085815260200190815260200160002060008201518160000190816104a39190611461565b50602082015181600101556040820151816002015560608201518160030190816104cd9190611461565b5090505082866040516104e0919061156f565b60405180910390207f7bab937c89712c48cf1232d3b4557c2a91619c53c73623057550dd5b54f2583d87878660405161051b93929190611586565b60405180910390a3505050505050565b600260205280600052604060002060009150905080600001805461054e90611101565b80601f016020809104026020016040519081016040528092919081815260200182805461057a90611101565b80156105c75780601f1061059c576101008083540402835291602001916105c7565b820191906000526020600020905b8154815290600101906020018083116105aa57829003601f168201915b5050505050908060010154908060020154908060030180546105e890611101565b80601f016020809104026020016040519081016040528092919081815260200182805461061490611101565b80156106615780601f1061063657610100808354040283529160200191610661565b820191906000526020600020905b81548152906001019060200180831161064457829003601f168201915b5050505050905084565b60008054906101000a900473ffffffffffffffffffffffffffffffffffffffff1681565b6001818154811061069f57600080fd5b906000526020600020016000915090505481565b60008054906101000a900473ffffffffffffffffffffffffffffffffffffffff1673ffffffffffffffffffffffffffffffffffffffff166391d1485460008054906101000a900473ffffffffffffffffffffffffffffffffffffffff1673ffffffffffffffffffffffffffffffffffffffff166375b238fc6040518163ffffffff1660e01b8152600401602060405180830381865afa15801561075a573d6000803e3d6000fd5b505050506040513d601f19601f8201168201806040525081019061077e9190611168565b336040518363ffffffff1660e01b815260040161079c9291906111c5565b602060405180830381865afa1580156107b9573d6000803e3d6000fd5b505050506040513d601f19601f820116820180604052508101906107dd9190611226565b61081c576040517f08c379a00000000000000000000000000000000000000000000000000000000081526004016108139061129f565b60405180910390fd5b60006002600087815260200190815260200160002060405180608001604052908160008201805461084c90611101565b80601f016020809104026020016040519081016040528092919081815260200182805461087890611101565b80156108c55780601f1061089a576101008083540402835291602001916108c5565b820191906000526020600020905b8154815290600101906020018083116108a857829003601f168201915b5050505050815260200160018201548152602001600282015481526020016003820180546108f290611101565b80601f016020809104026020016040519081016040528092919081815260200182805461091e90611101565b801561096b5780601f106109405761010080835404028352916020019161096b565b820191906000526020600020905b81548152906001019060200180831161094e57829003601f168201915b50505050508152505090508481600001819052508381602001818152505082816040018181525050818160600181905250806002600088815260200190815260200160002060008201518160000190816109c59190611461565b50602082015181600101556040820151816002015560608201518160030190816109ef9190611461565b50905050857f5ba77e01985cc733d9c7628b2ecb45c3bc892158174edbf695aaa654607335d686868686604051610a299493929190610f17565b60405180910390a2505050505050565b6002600082815260200190815260200160002060008082016000610a5d9190610ad7565b60018201600090556002820160009055600382016000610a7d9190610ad7565b5050807fc341cf326465fe622f86c468249e8c0cb03ed23ba376a6a34863a1374ac7d76960405160405180910390a250565b6040518060800160405280606081526020016000815260200160008152602001606081525090565b508054610ae390611101565b6000825580601f10610af55750610b14565b601f016020900490600052602060002090810190610b139190610b17565b5b50565b5b80821115610b30576000816000905550600101610b18565b5090565b6000604051905090565b600080fd5b600080fd5b6000819050919050565b610b5b81610b48565b8114610b6657600080fd5b50565b600081359050610b7881610b52565b92915050565b600060208284031215610b9457610b93610b3e565b5b6000610ba284828501610b69565b91505092915050565b600081519050919050565b600082825260208201905092915050565b60005b83811015610be5578082015181840152602081019050610bca565b60008484015250505050565b6000601f19601f8301169050919050565b6000610c0d82610bab565b610c178185610bb6565b9350610c27818560208601610bc7565b610c3081610bf1565b840191505092915050565b610c4481610b48565b82525050565b60006080830160008301518482036000860152610c678282610c02565b9150506020830151610c7c6020860182610c3b565b506040830151610c8f6040860182610c3b565b5060608301518482036060860152610ca78282610c02565b9150508091505092915050565b60006020820190508181036000830152610cce8184610c4a565b905092915050565b600080fd5b600080fd5b7f4e487b7100000000000000000000000000000000000000000000000000000000600052604160045260246000fd5b610d1882610bf1565b810181811067ffffffffffffffff82111715610d3757610d36610ce0565b5b80604052505050565b6000610d4a610b34565b9050610d568282610d0f565b919050565b600067ffffffffffffffff821115610d7657610d75610ce0565b5b610d7f82610bf1565b9050602081019050919050565b82818337600083830152505050565b6000610dae610da984610d5b565b610d40565b905082815260208101848484011115610dca57610dc9610cdb565b5b610dd5848285610d8c565b509392505050565b600082601f830112610df257610df1610cd6565b5b8135610e02848260208601610d9b565b91505092915050565b600080600080600060a08688031215610e2757610e26610b3e565b5b600086013567ffffffffffffffff811115610e4557610e44610b43565b5b610e5188828901610ddd565b9550506020610e6288828901610b69565b9450506040610e7388828901610b69565b9350506060610e8488828901610b69565b925050608086013567ffffffffffffffff811115610ea557610ea4610b43565b5b610eb188828901610ddd565b9150509295509295909350565b600082825260208201905092915050565b6000610eda82610bab565b610ee48185610ebe565b9350610ef4818560208601610bc7565b610efd81610bf1565b840191505092915050565b610f1181610b48565b82525050565b60006080820190508181036000830152610f318187610ecf565b9050610f406020830186610f08565b610f4d6040830185610f08565b8181036060830152610f5f8184610ecf565b905095945050505050565b600073ffffffffffffffffffffffffffffffffffffffff82169050919050565b6000819050919050565b6000610faf610faa610fa584610f6a565b610f8a565b610f6a565b9050919050565b6000610fc182610f94565b9050919050565b6000610fd382610fb6565b9050919050565b610fe381610fc8565b82525050565b6000602082019050610ffe6000830184610fda565b92915050565b60006020820190506110196000830184610f08565b92915050565b600080600080600060a0868803121561103b5761103a610b3e565b5b600061104988828901610b69565b955050602086013567ffffffffffffffff81111561106a57611069610b43565b5b61107688828901610ddd565b945050604061108788828901610b69565b935050606061109888828901610b69565b925050608086013567ffffffffffffffff8111156110b9576110b8610b43565b5b6110c588828901610ddd565b9150509295509295909350565b7f4e487b7100000000000000000000000000000000000000000000000000000000600052602260045260246000fd5b6000600282049050600182168061111957607f821691505b60208210810361112c5761112b6110d2565b5b50919050565b6000819050919050565b61114581611132565b811461115057600080fd5b50565b6000815190506111628161113c565b92915050565b60006020828403121561117e5761117d610b3e565b5b600061118c84828501611153565b91505092915050565b61119e81611132565b82525050565b60006111af82610f6a565b9050919050565b6111bf816111a4565b82525050565b60006040820190506111da6000830185611195565b6111e760208301846111b6565b9392505050565b60008115159050919050565b611203816111ee565b811461120e57600080fd5b50565b600081519050611220816111fa565b92915050565b60006020828403121561123c5761123b610b3e565b5b600061124a84828501611211565b91505092915050565b7f4e6f7420617574686f72697a656420617320616e2061646d696e000000000000600082015250565b6000611289601a83610ebe565b915061129482611253565b602082019050919050565b600060208201905081810360008301526112b88161127c565b9050919050565b60008190508160005260206000209050919050565b60006020601f8301049050919050565b600082821b905092915050565b6000600883026113217fffffffffffffffffffffffffffffffffffffffffffffffffffffffffffffffff826112e4565b61132b86836112e4565b95508019841693508086168417925050509392505050565b600061135e61135961135484610b48565b610f8a565b610b48565b9050919050565b6000819050919050565b61137883611343565b61138c61138482611365565b8484546112f1565b825550505050565b600090565b6113a1611394565b6113ac81848461136f565b505050565b5b818110156113d0576113c5600082611399565b6001810190506113b2565b5050565b601f821115611415576113e6816112bf565b6113ef846112d4565b810160208510156113fe578190505b61141261140a856112d4565b8301826113b1565b50505b505050565b600082821c905092915050565b60006114386000198460080261141a565b1980831691505092915050565b60006114518383611427565b9150826002028217905092915050565b61146a82610bab565b67ffffffffffffffff81111561148357611482610ce0565b5b61148d8254611101565b6114988282856113d4565b600060209050601f8311600181146114cb57600084156114b9578287015190505b6114c38582611445565b86555061152b565b601f1984166114d9866112bf565b60005b82811015611501578489015182556001820191506020850194506020810190506114dc565b8683101561151e578489015161151a601f891682611427565b8355505b6001600288020188555050505b505050505050565b600081905092915050565b600061154982610bab565b6115538185611533565b9350611563818560208601610bc7565b80840191505092915050565b600061157b828461153e565b915081905092915050565b600060608201905061159b6000830186610f08565b6115a86020830185610f08565b81810360408301526115ba8184610ecf565b905094935050505056fea26469706673582212200fb70a55f7271d003d5652d0af7817aff655d5dfc9373cbf3079aca9cae59f7564736f6c63430008130033",
  "immutableReferences": {},
  "source": "// SPDX-License-Identifier: GPL-3.0\r\npragma solidity 0.8.19 ;\r\nimport \"./FarmerContract.sol\";\r\n\r\n\r\ncontract ProductContract{\r\n    FarmerContract public farmerContract;\r\n\r\n    constructor(address _farmerContractAddress) {\r\n        farmerContract = FarmerContract(_farmerContractAddress);\r\n    }\r\n\r\n    struct productDetails{\r\n        string name;\r\n        uint256 msp;\r\n        uint256 requiredQuantity;\r\n        string unit;\r\n    }\r\n\r\n    uint256[] public productIds; \r\n\r\n    mapping(uint256 => productDetails) public products;\r\n\r\n    event ProductAdded(string indexed name , uint256 msp , uint256 requiredQuantity , uint256 indexed productId , string unit);\r\n    event ProductUpdated(uint256 indexed productId , string name , uint256 msp , uint256  requiredQuantity , string unit);\r\n    event ProductDeleted(uint256 indexed productId);\r\n\r\n    // Modifier that checks if the sender has the FARMER_ROLE in FarmerContract\r\n    modifier onlyFarmerRole() {\r\n        require(farmerContract.hasRole(farmerContract.FARMER_ROLE(), msg.sender), \"Not authorized\");\r\n        _;\r\n    }\r\n\r\n    modifier onlyAdmin() {\r\n        require(farmerContract.hasRole(farmerContract.ADMIN_ROLE(), msg.sender), \"Not authorized as an admin\");\r\n        _;\r\n    }\r\n\r\n\r\n    function addProduct(string memory _name , uint256 _msp , uint256 _requiredQuantity,uint256 _productId,string memory _unit) public onlyAdmin{\r\n        // check whether product is present or not\r\n        productDetails memory newProduct = productDetails({\r\n            name : _name,\r\n            msp : _msp,\r\n            requiredQuantity : _requiredQuantity,\r\n            unit : _unit\r\n        });\r\n        products[_productId] = newProduct;\r\n        emit ProductAdded(_name, _msp, _requiredQuantity, _productId, _unit);\r\n    }\r\n\r\n    function updateProduct(uint256 _productID , string memory _name , uint256 _msp,uint256 _requiredQuantity,string memory _unit) public onlyAdmin{\r\n        // before updateing check presence of prooduct\r\n        productDetails memory str = products[_productID];\r\n        str.name = _name; \r\n        str.msp = _msp;\r\n        str.requiredQuantity = _requiredQuantity;\r\n        str.unit = _unit;\r\n        products[_productID] = str;\r\n        emit ProductUpdated(_productID,_name,_msp,_requiredQuantity,_unit);\r\n    }\r\n\r\n    function deleteProduct(uint256 _productID) public {\r\n        delete products[_productID];\r\n        emit ProductDeleted(_productID);\r\n    }\r\n\r\n    function getAllProductDetailsById(uint256 _productID) public view returns(productDetails memory) {\r\n        return products[_productID];\r\n    }\r\n}",
  "sourcePath": "C:\\Users\\ACER\\Documents\\Personal\\SEM-7_EXPERIMENTS\\sem-8-mini-project\\PDS_Security\\contracts\\ProductContract.sol",
  "compiler": {
    "name": "solc",
    "version": "0.8.19+commit.7dd6d404.Emscripten.clang"
  },
  "schemaVersion": "3.4.16",
  "updatedAt": "2024-01-11T09:34:02.649Z",
  "networkType": "ethereum",
  "devdoc": {
    "kind": "dev",
    "methods": {},
    "version": 1
  },
  "userdoc": {
    "kind": "user",
    "methods": {},
    "version": 1
  }
}